{
    "_format": "hh-sol-artifact-1",
    "contractName": "UserNftMinter",
    "sourceName": "contracts/UserNftMinter.sol",
    "abi": [
        {
            "inputs": [],
            "stateMutability": "nonpayable",
            "type": "constructor"
        },
        {
            "anonymous": false,
            "inputs": [
                {
                    "indexed": true,
                    "internalType": "address",
                    "name": "owner",
                    "type": "address"
                },
                {
                    "indexed": true,
                    "internalType": "address",
                    "name": "approved",
                    "type": "address"
                },
                {
                    "indexed": true,
                    "internalType": "uint256",
                    "name": "tokenId",
                    "type": "uint256"
                }
            ],
            "name": "Approval",
            "type": "event"
        },
        {
            "anonymous": false,
            "inputs": [
                {
                    "indexed": true,
                    "internalType": "address",
                    "name": "owner",
                    "type": "address"
                },
                {
                    "indexed": true,
                    "internalType": "address",
                    "name": "operator",
                    "type": "address"
                },
                {
                    "indexed": false,
                    "internalType": "bool",
                    "name": "approved",
                    "type": "bool"
                }
            ],
            "name": "ApprovalForAll",
            "type": "event"
        },
        {
            "anonymous": false,
            "inputs": [
                {
                    "indexed": true,
                    "internalType": "address",
                    "name": "from",
                    "type": "address"
                },
                {
                    "indexed": true,
                    "internalType": "address",
                    "name": "to",
                    "type": "address"
                },
                {
                    "indexed": true,
                    "internalType": "uint256",
                    "name": "tokenId",
                    "type": "uint256"
                }
            ],
            "name": "Transfer",
            "type": "event"
        },
        {
            "inputs": [
                {
                    "internalType": "address",
                    "name": "to",
                    "type": "address"
                },
                {
                    "internalType": "uint256",
                    "name": "tokenId",
                    "type": "uint256"
                }
            ],
            "name": "approve",
            "outputs": [],
            "stateMutability": "nonpayable",
            "type": "function"
        },
        {
            "inputs": [
                {
                    "internalType": "address",
                    "name": "owner",
                    "type": "address"
                }
            ],
            "name": "balanceOf",
            "outputs": [
                {
                    "internalType": "uint256",
                    "name": "",
                    "type": "uint256"
                }
            ],
            "stateMutability": "view",
            "type": "function"
        },
        {
            "inputs": [
                {
                    "internalType": "uint256",
                    "name": "id",
                    "type": "uint256"
                }
            ],
            "name": "burn",
            "outputs": [],
            "stateMutability": "nonpayable",
            "type": "function"
        },
        {
            "inputs": [
                {
                    "internalType": "uint256",
                    "name": "tokenId",
                    "type": "uint256"
                }
            ],
            "name": "getApproved",
            "outputs": [
                {
                    "internalType": "address",
                    "name": "",
                    "type": "address"
                }
            ],
            "stateMutability": "view",
            "type": "function"
        },
        {
            "inputs": [
                {
                    "internalType": "address",
                    "name": "owner",
                    "type": "address"
                },
                {
                    "internalType": "address",
                    "name": "operator",
                    "type": "address"
                }
            ],
            "name": "isApprovedForAll",
            "outputs": [
                {
                    "internalType": "bool",
                    "name": "",
                    "type": "bool"
                }
            ],
            "stateMutability": "view",
            "type": "function"
        },
        {
            "inputs": [
                {
                    "internalType": "string",
                    "name": "uri",
                    "type": "string"
                }
            ],
            "name": "mint",
            "outputs": [],
            "stateMutability": "nonpayable",
            "type": "function"
        },
        {
            "inputs": [],
            "name": "name",
            "outputs": [
                {
                    "internalType": "string",
                    "name": "",
                    "type": "string"
                }
            ],
            "stateMutability": "view",
            "type": "function"
        },
        {
            "inputs": [
                {
                    "internalType": "uint256",
                    "name": "tokenId",
                    "type": "uint256"
                }
            ],
            "name": "ownerOf",
            "outputs": [
                {
                    "internalType": "address",
                    "name": "",
                    "type": "address"
                }
            ],
            "stateMutability": "view",
            "type": "function"
        },
        {
            "inputs": [
                {
                    "internalType": "address",
                    "name": "from",
                    "type": "address"
                },
                {
                    "internalType": "address",
                    "name": "to",
                    "type": "address"
                },
                {
                    "internalType": "uint256",
                    "name": "tokenId",
                    "type": "uint256"
                }
            ],
            "name": "safeTransferFrom",
            "outputs": [],
            "stateMutability": "nonpayable",
            "type": "function"
        },
        {
            "inputs": [
                {
                    "internalType": "address",
                    "name": "from",
                    "type": "address"
                },
                {
                    "internalType": "address",
                    "name": "to",
                    "type": "address"
                },
                {
                    "internalType": "uint256",
                    "name": "tokenId",
                    "type": "uint256"
                },
                {
                    "internalType": "bytes",
                    "name": "_data",
                    "type": "bytes"
                }
            ],
            "name": "safeTransferFrom",
            "outputs": [],
            "stateMutability": "nonpayable",
            "type": "function"
        },
        {
            "inputs": [
                {
                    "internalType": "address",
                    "name": "operator",
                    "type": "address"
                },
                {
                    "internalType": "bool",
                    "name": "approved",
                    "type": "bool"
                }
            ],
            "name": "setApprovalForAll",
            "outputs": [],
            "stateMutability": "nonpayable",
            "type": "function"
        },
        {
            "inputs": [
                {
                    "internalType": "bytes4",
                    "name": "interfaceId",
                    "type": "bytes4"
                }
            ],
            "name": "supportsInterface",
            "outputs": [
                {
                    "internalType": "bool",
                    "name": "",
                    "type": "bool"
                }
            ],
            "stateMutability": "view",
            "type": "function"
        },
        {
            "inputs": [],
            "name": "symbol",
            "outputs": [
                {
                    "internalType": "string",
                    "name": "",
                    "type": "string"
                }
            ],
            "stateMutability": "view",
            "type": "function"
        },
        {
            "inputs": [],
            "name": "tokenId",
            "outputs": [
                {
                    "internalType": "uint256",
                    "name": "",
                    "type": "uint256"
                }
            ],
            "stateMutability": "view",
            "type": "function"
        },
        {
            "inputs": [
                {
                    "internalType": "uint256",
                    "name": "tokenId",
                    "type": "uint256"
                }
            ],
            "name": "tokenURI",
            "outputs": [
                {
                    "internalType": "string",
                    "name": "",
                    "type": "string"
                }
            ],
            "stateMutability": "view",
            "type": "function"
        },
        {
            "inputs": [
                {
                    "internalType": "address",
                    "name": "from",
                    "type": "address"
                },
                {
                    "internalType": "address",
                    "name": "to",
                    "type": "address"
                },
                {
                    "internalType": "uint256",
                    "name": "tokenId",
                    "type": "uint256"
                }
            ],
            "name": "transferFrom",
            "outputs": [],
            "stateMutability": "nonpayable",
            "type": "function"
        }
    ],
    "bytecode": "0x608060405260006007553480156200001657600080fd5b506040518060400160405280600d81526020017f557365724e66744d696e746572000000000000000000000000000000000000008152506040518060400160405280600381526020017f554d54000000000000000000000000000000000000000000000000000000000081525081600090805190602001906200009b929190620000bd565b508060019080519060200190620000b4929190620000bd565b505050620001d2565b828054620000cb906200016d565b90600052602060002090601f016020900481019282620000ef57600085556200013b565b82601f106200010a57805160ff19168380011785556200013b565b828001600101855582156200013b579182015b828111156200013a5782518255916020019190600101906200011d565b5b5090506200014a91906200014e565b5090565b5b80821115620001695760008160009055506001016200014f565b5090565b600060028204905060018216806200018657607f821691505b602082108114156200019d576200019c620001a3565b5b50919050565b7f4e487b7100000000000000000000000000000000000000000000000000000000600052602260045260246000fd5b612ea580620001e26000396000f3fe608060405234801561001057600080fd5b50600436106101005760003560e01c80636352211e11610097578063b88d4fde11610066578063b88d4fde146102ab578063c87b56dd146102c7578063d85d3d27146102f7578063e985e9c51461031357610100565b80636352211e1461021157806370a082311461024157806395d89b4114610271578063a22cb4651461028f57610100565b806317d70f7c116100d357806317d70f7c1461019f57806323b872dd146101bd57806342842e0e146101d957806342966c68146101f557610100565b806301ffc9a71461010557806306fdde0314610135578063081812fc14610153578063095ea7b314610183575b600080fd5b61011f600480360381019061011a9190611eac565b610343565b60405161012c919061231a565b60405180910390f35b61013d610425565b60405161014a9190612335565b60405180910390f35b61016d60048036038101906101689190611f43565b6104b7565b60405161017a91906122b3565b60405180910390f35b61019d60048036038101906101989190611e70565b61053c565b005b6101a7610654565b6040516101b49190612577565b60405180910390f35b6101d760048036038101906101d29190611d6a565b61065a565b005b6101f360048036038101906101ee9190611d6a565b6106ba565b005b61020f600480360381019061020a9190611f43565b6106da565b005b61022b60048036038101906102269190611f43565b610762565b60405161023891906122b3565b60405180910390f35b61025b60048036038101906102569190611d05565b610814565b6040516102689190612577565b60405180910390f35b6102796108cc565b6040516102869190612335565b60405180910390f35b6102a960048036038101906102a49190611e34565b61095e565b005b6102c560048036038101906102c09190611db9565b610adf565b005b6102e160048036038101906102dc9190611f43565b610b41565b6040516102ee9190612335565b60405180910390f35b610311600480360381019061030c9190611efe565b610c93565b005b61032d60048036038101906103289190611d2e565b610d0d565b60405161033a919061231a565b60405180910390f35b60007f80ac58cd000000000000000000000000000000000000000000000000000000007bffffffffffffffffffffffffffffffffffffffffffffffffffffffff1916827bffffffffffffffffffffffffffffffffffffffffffffffffffffffff1916148061040e57507f5b5e139f000000000000000000000000000000000000000000000000000000007bffffffffffffffffffffffffffffffffffffffffffffffffffffffff1916827bffffffffffffffffffffffffffffffffffffffffffffffffffffffff1916145b8061041e575061041d82610da1565b5b9050919050565b6060600080546104349061279c565b80601f01602080910402602001604051908101604052809291908181526020018280546104609061279c565b80156104ad5780601f10610482576101008083540402835291602001916104ad565b820191906000526020600020905b81548152906001019060200180831161049057829003601f168201915b5050505050905090565b60006104c282610e0b565b610501576040517f08c379a00000000000000000000000000000000000000000000000000000000081526004016104f8906124b7565b60405180910390fd5b6004600083815260200190815260200160002060009054906101000a900473ffffffffffffffffffffffffffffffffffffffff169050919050565b600061054782610762565b90508073ffffffffffffffffffffffffffffffffffffffff168373ffffffffffffffffffffffffffffffffffffffff1614156105b8576040517f08c379a00000000000000000000000000000000000000000000000000000000081526004016105af90612517565b60405180910390fd5b8073ffffffffffffffffffffffffffffffffffffffff166105d7610e77565b73ffffffffffffffffffffffffffffffffffffffff161480610606575061060581610600610e77565b610d0d565b5b610645576040517f08c379a000000000000000000000000000000000000000000000000000000000815260040161063c906123f7565b60405180910390fd5b61064f8383610e7f565b505050565b60075481565b61066b610665610e77565b82610f38565b6106aa576040517f08c379a00000000000000000000000000000000000000000000000000000000081526004016106a190612537565b60405180910390fd5b6106b5838383611016565b505050565b6106d583838360405180602001604052806000815250610adf565b505050565b60006106e582610762565b90503373ffffffffffffffffffffffffffffffffffffffff168173ffffffffffffffffffffffffffffffffffffffff1614610755576040517f08c379a000000000000000000000000000000000000000000000000000000000815260040161074c90612557565b60405180910390fd5b61075e82611272565b5050565b6000806002600084815260200190815260200160002060009054906101000a900473ffffffffffffffffffffffffffffffffffffffff169050600073ffffffffffffffffffffffffffffffffffffffff168173ffffffffffffffffffffffffffffffffffffffff16141561080b576040517f08c379a000000000000000000000000000000000000000000000000000000000815260040161080290612437565b60405180910390fd5b80915050919050565b60008073ffffffffffffffffffffffffffffffffffffffff168273ffffffffffffffffffffffffffffffffffffffff161415610885576040517f08c379a000000000000000000000000000000000000000000000000000000000815260040161087c90612417565b60405180910390fd5b600360008373ffffffffffffffffffffffffffffffffffffffff1673ffffffffffffffffffffffffffffffffffffffff168152602001908152602001600020549050919050565b6060600180546108db9061279c565b80601f01602080910402602001604051908101604052809291908181526020018280546109079061279c565b80156109545780601f1061092957610100808354040283529160200191610954565b820191906000526020600020905b81548152906001019060200180831161093757829003601f168201915b5050505050905090565b610966610e77565b73ffffffffffffffffffffffffffffffffffffffff168273ffffffffffffffffffffffffffffffffffffffff1614156109d4576040517f08c379a00000000000000000000000000000000000000000000000000000000081526004016109cb906123b7565b60405180910390fd5b80600560006109e1610e77565b73ffffffffffffffffffffffffffffffffffffffff1673ffffffffffffffffffffffffffffffffffffffff16815260200190815260200160002060008473ffffffffffffffffffffffffffffffffffffffff1673ffffffffffffffffffffffffffffffffffffffff16815260200190815260200160002060006101000a81548160ff0219169083151502179055508173ffffffffffffffffffffffffffffffffffffffff16610a8e610e77565b73ffffffffffffffffffffffffffffffffffffffff167f17307eab39ab6107e8899845ad3d59bd9653f200f220920489ca2b5937696c3183604051610ad3919061231a565b60405180910390a35050565b610af0610aea610e77565b83610f38565b610b2f576040517f08c379a0000000000000000000000000000000000000000000000000000000008152600401610b2690612537565b60405180910390fd5b610b3b848484846112c5565b50505050565b6060610b4c82610e0b565b610b8b576040517f08c379a0000000000000000000000000000000000000000000000000000000008152600401610b8290612497565b60405180910390fd5b6000600660008481526020019081526020016000208054610bab9061279c565b80601f0160208091040260200160405190810160405280929190818152602001828054610bd79061279c565b8015610c245780601f10610bf957610100808354040283529160200191610c24565b820191906000526020600020905b815481529060010190602001808311610c0757829003601f168201915b505050505090506000610c35611321565b9050600081511415610c4b578192505050610c8e565b600082511115610c80578082604051602001610c6892919061228f565b60405160208183030381529060405292505050610c8e565b610c8984611338565b925050505b919050565b610c9f336007546113df565b610cef60075483838080601f016020809104026020016040519081016040528093929190818152602001838380828437600081840152601f19601f820116905080830192505050505050506113fd565b600160076000828254610d02919061262b565b925050819055505050565b6000600560008473ffffffffffffffffffffffffffffffffffffffff1673ffffffffffffffffffffffffffffffffffffffff16815260200190815260200160002060008373ffffffffffffffffffffffffffffffffffffffff1673ffffffffffffffffffffffffffffffffffffffff16815260200190815260200160002060009054906101000a900460ff16905092915050565b60007f01ffc9a7000000000000000000000000000000000000000000000000000000007bffffffffffffffffffffffffffffffffffffffffffffffffffffffff1916827bffffffffffffffffffffffffffffffffffffffffffffffffffffffff1916149050919050565b60008073ffffffffffffffffffffffffffffffffffffffff166002600084815260200190815260200160002060009054906101000a900473ffffffffffffffffffffffffffffffffffffffff1673ffffffffffffffffffffffffffffffffffffffff1614159050919050565b600033905090565b816004600083815260200190815260200160002060006101000a81548173ffffffffffffffffffffffffffffffffffffffff021916908373ffffffffffffffffffffffffffffffffffffffff160217905550808273ffffffffffffffffffffffffffffffffffffffff16610ef283610762565b73ffffffffffffffffffffffffffffffffffffffff167f8c5be1e5ebec7d5bd14f71427d1e84f3dd0314c0f7b2291e5b200ac8c7c3b92560405160405180910390a45050565b6000610f4382610e0b565b610f82576040517f08c379a0000000000000000000000000000000000000000000000000000000008152600401610f79906123d7565b60405180910390fd5b6000610f8d83610762565b90508073ffffffffffffffffffffffffffffffffffffffff168473ffffffffffffffffffffffffffffffffffffffff161480610ffc57508373ffffffffffffffffffffffffffffffffffffffff16610fe4846104b7565b73ffffffffffffffffffffffffffffffffffffffff16145b8061100d575061100c8185610d0d565b5b91505092915050565b8273ffffffffffffffffffffffffffffffffffffffff1661103682610762565b73ffffffffffffffffffffffffffffffffffffffff161461108c576040517f08c379a0000000000000000000000000000000000000000000000000000000008152600401611083906124d7565b60405180910390fd5b600073ffffffffffffffffffffffffffffffffffffffff168273ffffffffffffffffffffffffffffffffffffffff1614156110fc576040517f08c379a00000000000000000000000000000000000000000000000000000000081526004016110f390612397565b60405180910390fd5b611107838383611471565b611112600082610e7f565b6001600360008573ffffffffffffffffffffffffffffffffffffffff1673ffffffffffffffffffffffffffffffffffffffff168152602001908152602001600020600082825461116291906126b2565b925050819055506001600360008473ffffffffffffffffffffffffffffffffffffffff1673ffffffffffffffffffffffffffffffffffffffff16815260200190815260200160002060008282546111b9919061262b565b92505081905550816002600083815260200190815260200160002060006101000a81548173ffffffffffffffffffffffffffffffffffffffff021916908373ffffffffffffffffffffffffffffffffffffffff160217905550808273ffffffffffffffffffffffffffffffffffffffff168473ffffffffffffffffffffffffffffffffffffffff167fddf252ad1be2c89b69c2b068fc378daa952ba7f163c4a11628f55a4df523b3ef60405160405180910390a4505050565b61127b81611476565b600060066000838152602001908152602001600020805461129b9061279c565b9050146112c2576006600082815260200190815260200160002060006112c19190611b07565b5b50565b6112d0848484611016565b6112dc84848484611587565b61131b576040517f08c379a000000000000000000000000000000000000000000000000000000000815260040161131290612357565b60405180910390fd5b50505050565b606060405180602001604052806000815250905090565b606061134382610e0b565b611382576040517f08c379a0000000000000000000000000000000000000000000000000000000008152600401611379906124f7565b60405180910390fd5b600061138c611321565b905060008151116113ac57604051806020016040528060008152506113d7565b806113b68461171e565b6040516020016113c792919061228f565b6040516020818303038152906040525b915050919050565b6113f98282604051806020016040528060008152506118cb565b5050565b61140682610e0b565b611445576040517f08c379a000000000000000000000000000000000000000000000000000000000815260040161143c90612457565b60405180910390fd5b8060066000848152602001908152602001600020908051906020019061146c929190611b47565b505050565b505050565b600061148182610762565b905061148f81600084611471565b61149a600083610e7f565b6001600360008373ffffffffffffffffffffffffffffffffffffffff1673ffffffffffffffffffffffffffffffffffffffff16815260200190815260200160002060008282546114ea91906126b2565b925050819055506002600083815260200190815260200160002060006101000a81549073ffffffffffffffffffffffffffffffffffffffff021916905581600073ffffffffffffffffffffffffffffffffffffffff168273ffffffffffffffffffffffffffffffffffffffff167fddf252ad1be2c89b69c2b068fc378daa952ba7f163c4a11628f55a4df523b3ef60405160405180910390a45050565b60006115a88473ffffffffffffffffffffffffffffffffffffffff16611926565b15611711578373ffffffffffffffffffffffffffffffffffffffff1663150b7a026115d1610e77565b8786866040518563ffffffff1660e01b81526004016115f394939291906122ce565b602060405180830381600087803b15801561160d57600080fd5b505af192505050801561163e57506040513d601f19601f8201168201806040525081019061163b9190611ed5565b60015b6116c1573d806000811461166e576040519150601f19603f3d011682016040523d82523d6000602084013e611673565b606091505b506000815114156116b9576040517f08c379a00000000000000000000000000000000000000000000000000000000081526004016116b090612357565b60405180910390fd5b805181602001fd5b63150b7a0260e01b7bffffffffffffffffffffffffffffffffffffffffffffffffffffffff1916817bffffffffffffffffffffffffffffffffffffffffffffffffffffffff191614915050611716565b600190505b949350505050565b60606000821415611766576040518060400160405280600181526020017f300000000000000000000000000000000000000000000000000000000000000081525090506118c6565b600082905060005b60008214611798578080611781906127ff565b915050600a826117919190612681565b915061176e565b60008167ffffffffffffffff8111156117da577f4e487b7100000000000000000000000000000000000000000000000000000000600052604160045260246000fd5b6040519080825280601f01601f19166020018201604052801561180c5781602001600182028036833780820191505090505b5090505b600085146118bf5760018261182591906126b2565b9150600a856118349190612848565b6030611840919061262b565b60f81b81838151811061187c577f4e487b7100000000000000000000000000000000000000000000000000000000600052603260045260246000fd5b60200101907effffffffffffffffffffffffffffffffffffffffffffffffffffffffffffff1916908160001a905350600a856118b89190612681565b9450611810565b8093505050505b919050565b6118d58383611939565b6118e26000848484611587565b611921576040517f08c379a000000000000000000000000000000000000000000000000000000000815260040161191890612357565b60405180910390fd5b505050565b600080823b905060008111915050919050565b600073ffffffffffffffffffffffffffffffffffffffff168273ffffffffffffffffffffffffffffffffffffffff1614156119a9576040517f08c379a00000000000000000000000000000000000000000000000000000000081526004016119a090612477565b60405180910390fd5b6119b281610e0b565b156119f2576040517f08c379a00000000000000000000000000000000000000000000000000000000081526004016119e990612377565b60405180910390fd5b6119fe60008383611471565b6001600360008473ffffffffffffffffffffffffffffffffffffffff1673ffffffffffffffffffffffffffffffffffffffff1681526020019081526020016000206000828254611a4e919061262b565b92505081905550816002600083815260200190815260200160002060006101000a81548173ffffffffffffffffffffffffffffffffffffffff021916908373ffffffffffffffffffffffffffffffffffffffff160217905550808273ffffffffffffffffffffffffffffffffffffffff16600073ffffffffffffffffffffffffffffffffffffffff167fddf252ad1be2c89b69c2b068fc378daa952ba7f163c4a11628f55a4df523b3ef60405160405180910390a45050565b508054611b139061279c565b6000825580601f10611b255750611b44565b601f016020900490600052602060002090810190611b439190611bcd565b5b50565b828054611b539061279c565b90600052602060002090601f016020900481019282611b755760008555611bbc565b82601f10611b8e57805160ff1916838001178555611bbc565b82800160010185558215611bbc579182015b82811115611bbb578251825591602001919060010190611ba0565b5b509050611bc99190611bcd565b5090565b5b80821115611be6576000816000905550600101611bce565b5090565b6000611bfd611bf8846125b7565b612592565b905082815260208101848484011115611c1557600080fd5b611c2084828561275a565b509392505050565b600081359050611c3781612e13565b92915050565b600081359050611c4c81612e2a565b92915050565b600081359050611c6181612e41565b92915050565b600081519050611c7681612e41565b92915050565b600082601f830112611c8d57600080fd5b8135611c9d848260208601611bea565b91505092915050565b60008083601f840112611cb857600080fd5b8235905067ffffffffffffffff811115611cd157600080fd5b602083019150836001820283011115611ce957600080fd5b9250929050565b600081359050611cff81612e58565b92915050565b600060208284031215611d1757600080fd5b6000611d2584828501611c28565b91505092915050565b60008060408385031215611d4157600080fd5b6000611d4f85828601611c28565b9250506020611d6085828601611c28565b9150509250929050565b600080600060608486031215611d7f57600080fd5b6000611d8d86828701611c28565b9350506020611d9e86828701611c28565b9250506040611daf86828701611cf0565b9150509250925092565b60008060008060808587031215611dcf57600080fd5b6000611ddd87828801611c28565b9450506020611dee87828801611c28565b9350506040611dff87828801611cf0565b925050606085013567ffffffffffffffff811115611e1c57600080fd5b611e2887828801611c7c565b91505092959194509250565b60008060408385031215611e4757600080fd5b6000611e5585828601611c28565b9250506020611e6685828601611c3d565b9150509250929050565b60008060408385031215611e8357600080fd5b6000611e9185828601611c28565b9250506020611ea285828601611cf0565b9150509250929050565b600060208284031215611ebe57600080fd5b6000611ecc84828501611c52565b91505092915050565b600060208284031215611ee757600080fd5b6000611ef584828501611c67565b91505092915050565b60008060208385031215611f1157600080fd5b600083013567ffffffffffffffff811115611f2b57600080fd5b611f3785828601611ca6565b92509250509250929050565b600060208284031215611f5557600080fd5b6000611f6384828501611cf0565b91505092915050565b611f75816126e6565b82525050565b611f84816126f8565b82525050565b6000611f95826125e8565b611f9f81856125fe565b9350611faf818560208601612769565b611fb881612935565b840191505092915050565b6000611fce826125f3565b611fd8818561260f565b9350611fe8818560208601612769565b611ff181612935565b840191505092915050565b6000612007826125f3565b6120118185612620565b9350612021818560208601612769565b80840191505092915050565b600061203a60328361260f565b915061204582612946565b604082019050919050565b600061205d601c8361260f565b915061206882612995565b602082019050919050565b600061208060248361260f565b915061208b826129be565b604082019050919050565b60006120a360198361260f565b91506120ae82612a0d565b602082019050919050565b60006120c6602c8361260f565b91506120d182612a36565b604082019050919050565b60006120e960388361260f565b91506120f482612a85565b604082019050919050565b600061210c602a8361260f565b915061211782612ad4565b604082019050919050565b600061212f60298361260f565b915061213a82612b23565b604082019050919050565b6000612152602e8361260f565b915061215d82612b72565b604082019050919050565b600061217560208361260f565b915061218082612bc1565b602082019050919050565b600061219860318361260f565b91506121a382612bea565b604082019050919050565b60006121bb602c8361260f565b91506121c682612c39565b604082019050919050565b60006121de60298361260f565b91506121e982612c88565b604082019050919050565b6000612201602f8361260f565b915061220c82612cd7565b604082019050919050565b600061222460218361260f565b915061222f82612d26565b604082019050919050565b600061224760318361260f565b915061225282612d75565b604082019050919050565b600061226a60238361260f565b915061227582612dc4565b604082019050919050565b61228981612750565b82525050565b600061229b8285611ffc565b91506122a78284611ffc565b91508190509392505050565b60006020820190506122c86000830184611f6c565b92915050565b60006080820190506122e36000830187611f6c565b6122f06020830186611f6c565b6122fd6040830185612280565b818103606083015261230f8184611f8a565b905095945050505050565b600060208201905061232f6000830184611f7b565b92915050565b6000602082019050818103600083015261234f8184611fc3565b905092915050565b600060208201905081810360008301526123708161202d565b9050919050565b6000602082019050818103600083015261239081612050565b9050919050565b600060208201905081810360008301526123b081612073565b9050919050565b600060208201905081810360008301526123d081612096565b9050919050565b600060208201905081810360008301526123f0816120b9565b9050919050565b60006020820190508181036000830152612410816120dc565b9050919050565b60006020820190508181036000830152612430816120ff565b9050919050565b6000602082019050818103600083015261245081612122565b9050919050565b6000602082019050818103600083015261247081612145565b9050919050565b6000602082019050818103600083015261249081612168565b9050919050565b600060208201905081810360008301526124b08161218b565b9050919050565b600060208201905081810360008301526124d0816121ae565b9050919050565b600060208201905081810360008301526124f0816121d1565b9050919050565b60006020820190508181036000830152612510816121f4565b9050919050565b6000602082019050818103600083015261253081612217565b9050919050565b600060208201905081810360008301526125508161223a565b9050919050565b600060208201905081810360008301526125708161225d565b9050919050565b600060208201905061258c6000830184612280565b92915050565b600061259c6125ad565b90506125a882826127ce565b919050565b6000604051905090565b600067ffffffffffffffff8211156125d2576125d1612906565b5b6125db82612935565b9050602081019050919050565b600081519050919050565b600081519050919050565b600082825260208201905092915050565b600082825260208201905092915050565b600081905092915050565b600061263682612750565b915061264183612750565b9250827fffffffffffffffffffffffffffffffffffffffffffffffffffffffffffffffff0382111561267657612675612879565b5b828201905092915050565b600061268c82612750565b915061269783612750565b9250826126a7576126a66128a8565b5b828204905092915050565b60006126bd82612750565b91506126c883612750565b9250828210156126db576126da612879565b5b828203905092915050565b60006126f182612730565b9050919050565b60008115159050919050565b60007fffffffff0000000000000000000000000000000000000000000000000000000082169050919050565b600073ffffffffffffffffffffffffffffffffffffffff82169050919050565b6000819050919050565b82818337600083830152505050565b60005b8381101561278757808201518184015260208101905061276c565b83811115612796576000848401525b50505050565b600060028204905060018216806127b457607f821691505b602082108114156127c8576127c76128d7565b5b50919050565b6127d782612935565b810181811067ffffffffffffffff821117156127f6576127f5612906565b5b80604052505050565b600061280a82612750565b91507fffffffffffffffffffffffffffffffffffffffffffffffffffffffffffffffff82141561283d5761283c612879565b5b600182019050919050565b600061285382612750565b915061285e83612750565b92508261286e5761286d6128a8565b5b828206905092915050565b7f4e487b7100000000000000000000000000000000000000000000000000000000600052601160045260246000fd5b7f4e487b7100000000000000000000000000000000000000000000000000000000600052601260045260246000fd5b7f4e487b7100000000000000000000000000000000000000000000000000000000600052602260045260246000fd5b7f4e487b7100000000000000000000000000000000000000000000000000000000600052604160045260246000fd5b6000601f19601f8301169050919050565b7f4552433732313a207472616e7366657220746f206e6f6e20455243373231526560008201527f63656976657220696d706c656d656e7465720000000000000000000000000000602082015250565b7f4552433732313a20746f6b656e20616c7265616479206d696e74656400000000600082015250565b7f4552433732313a207472616e7366657220746f20746865207a65726f2061646460008201527f7265737300000000000000000000000000000000000000000000000000000000602082015250565b7f4552433732313a20617070726f766520746f2063616c6c657200000000000000600082015250565b7f4552433732313a206f70657261746f7220717565727920666f72206e6f6e657860008201527f697374656e7420746f6b656e0000000000000000000000000000000000000000602082015250565b7f4552433732313a20617070726f76652063616c6c6572206973206e6f74206f7760008201527f6e6572206e6f7220617070726f76656420666f7220616c6c0000000000000000602082015250565b7f4552433732313a2062616c616e636520717565727920666f7220746865207a6560008201527f726f206164647265737300000000000000000000000000000000000000000000602082015250565b7f4552433732313a206f776e657220717565727920666f72206e6f6e657869737460008201527f656e7420746f6b656e0000000000000000000000000000000000000000000000602082015250565b7f45524337323155524953746f726167653a2055524920736574206f66206e6f6e60008201527f6578697374656e7420746f6b656e000000000000000000000000000000000000602082015250565b7f4552433732313a206d696e7420746f20746865207a65726f2061646472657373600082015250565b7f45524337323155524953746f726167653a2055524920717565727920666f722060008201527f6e6f6e6578697374656e7420746f6b656e000000000000000000000000000000602082015250565b7f4552433732313a20617070726f76656420717565727920666f72206e6f6e657860008201527f697374656e7420746f6b656e0000000000000000000000000000000000000000602082015250565b7f4552433732313a207472616e73666572206f6620746f6b656e2074686174206960008201527f73206e6f74206f776e0000000000000000000000000000000000000000000000602082015250565b7f4552433732314d657461646174613a2055524920717565727920666f72206e6f60008201527f6e6578697374656e7420746f6b656e0000000000000000000000000000000000602082015250565b7f4552433732313a20617070726f76616c20746f2063757272656e74206f776e6560008201527f7200000000000000000000000000000000000000000000000000000000000000602082015250565b7f4552433732313a207472616e736665722063616c6c6572206973206e6f74206f60008201527f776e6572206e6f7220617070726f766564000000000000000000000000000000602082015250565b7f596f7520617265206e6f7420746865206f776e6572206f66207468697320746f60008201527f6b656e0000000000000000000000000000000000000000000000000000000000602082015250565b612e1c816126e6565b8114612e2757600080fd5b50565b612e33816126f8565b8114612e3e57600080fd5b50565b612e4a81612704565b8114612e5557600080fd5b50565b612e6181612750565b8114612e6c57600080fd5b5056fea2646970667358221220450c170b147f23ef2e7d9ba5dd576873827cdc58eb81e48dc3e22d0d7ebc1f2664736f6c63430008040033",
    "linkReferences": {},
    "deployedLinkReferences": {}
}