{
  "_format": "hh-sol-artifact-1",
  "contractName": "UserNftMinter",
  "sourceName": "contracts/UserNftMinter.sol",
  "abi": [
    {
      "inputs": [],
      "stateMutability": "nonpayable",
      "type": "constructor"
    },
    {
      "anonymous": false,
      "inputs": [
        {
          "indexed": true,
          "internalType": "address",
          "name": "owner",
          "type": "address"
        },
        {
          "indexed": true,
          "internalType": "address",
          "name": "approved",
          "type": "address"
        },
        {
          "indexed": true,
          "internalType": "uint256",
          "name": "tokenId",
          "type": "uint256"
        }
      ],
      "name": "Approval",
      "type": "event"
    },
    {
      "anonymous": false,
      "inputs": [
        {
          "indexed": true,
          "internalType": "address",
          "name": "owner",
          "type": "address"
        },
        {
          "indexed": true,
          "internalType": "address",
          "name": "operator",
          "type": "address"
        },
        {
          "indexed": false,
          "internalType": "bool",
          "name": "approved",
          "type": "bool"
        }
      ],
      "name": "ApprovalForAll",
      "type": "event"
    },
    {
      "anonymous": false,
      "inputs": [
        {
          "indexed": true,
          "internalType": "address",
          "name": "previousOwner",
          "type": "address"
        },
        {
          "indexed": true,
          "internalType": "address",
          "name": "newOwner",
          "type": "address"
        }
      ],
      "name": "OwnershipTransferred",
      "type": "event"
    },
    {
      "anonymous": false,
      "inputs": [
        {
          "indexed": true,
          "internalType": "address",
          "name": "from",
          "type": "address"
        },
        {
          "indexed": true,
          "internalType": "address",
          "name": "to",
          "type": "address"
        },
        {
          "indexed": true,
          "internalType": "uint256",
          "name": "tokenId",
          "type": "uint256"
        }
      ],
      "name": "Transfer",
      "type": "event"
    },
    {
      "inputs": [
        {
          "internalType": "address",
          "name": "to",
          "type": "address"
        },
        {
          "internalType": "uint256",
          "name": "tokenId",
          "type": "uint256"
        }
      ],
      "name": "approve",
      "outputs": [],
      "stateMutability": "nonpayable",
      "type": "function"
    },
    {
      "inputs": [
        {
          "internalType": "address",
          "name": "owner",
          "type": "address"
        }
      ],
      "name": "balanceOf",
      "outputs": [
        {
          "internalType": "uint256",
          "name": "",
          "type": "uint256"
        }
      ],
      "stateMutability": "view",
      "type": "function"
    },
    {
      "inputs": [
        {
          "internalType": "uint256",
          "name": "id",
          "type": "uint256"
        }
      ],
      "name": "burn",
      "outputs": [],
      "stateMutability": "nonpayable",
      "type": "function"
    },
    {
      "inputs": [
        {
          "internalType": "uint256",
          "name": "tokenId",
          "type": "uint256"
        }
      ],
      "name": "getApproved",
      "outputs": [
        {
          "internalType": "address",
          "name": "",
          "type": "address"
        }
      ],
      "stateMutability": "view",
      "type": "function"
    },
    {
      "inputs": [
        {
          "internalType": "address",
          "name": "owner",
          "type": "address"
        },
        {
          "internalType": "address",
          "name": "operator",
          "type": "address"
        }
      ],
      "name": "isApprovedForAll",
      "outputs": [
        {
          "internalType": "bool",
          "name": "",
          "type": "bool"
        }
      ],
      "stateMutability": "view",
      "type": "function"
    },
    {
      "inputs": [
        {
          "internalType": "uint256",
          "name": "id",
          "type": "uint256"
        },
        {
          "internalType": "string",
          "name": "uri",
          "type": "string"
        }
      ],
      "name": "mint",
      "outputs": [],
      "stateMutability": "nonpayable",
      "type": "function"
    },
    {
      "inputs": [],
      "name": "name",
      "outputs": [
        {
          "internalType": "string",
          "name": "",
          "type": "string"
        }
      ],
      "stateMutability": "view",
      "type": "function"
    },
    {
      "inputs": [],
      "name": "owner",
      "outputs": [
        {
          "internalType": "address",
          "name": "",
          "type": "address"
        }
      ],
      "stateMutability": "view",
      "type": "function"
    },
    {
      "inputs": [
        {
          "internalType": "uint256",
          "name": "tokenId",
          "type": "uint256"
        }
      ],
      "name": "ownerOf",
      "outputs": [
        {
          "internalType": "address",
          "name": "",
          "type": "address"
        }
      ],
      "stateMutability": "view",
      "type": "function"
    },
    {
      "inputs": [],
      "name": "renounceOwnership",
      "outputs": [],
      "stateMutability": "nonpayable",
      "type": "function"
    },
    {
      "inputs": [
        {
          "internalType": "address",
          "name": "from",
          "type": "address"
        },
        {
          "internalType": "address",
          "name": "to",
          "type": "address"
        },
        {
          "internalType": "uint256",
          "name": "tokenId",
          "type": "uint256"
        }
      ],
      "name": "safeTransferFrom",
      "outputs": [],
      "stateMutability": "nonpayable",
      "type": "function"
    },
    {
      "inputs": [
        {
          "internalType": "address",
          "name": "from",
          "type": "address"
        },
        {
          "internalType": "address",
          "name": "to",
          "type": "address"
        },
        {
          "internalType": "uint256",
          "name": "tokenId",
          "type": "uint256"
        },
        {
          "internalType": "bytes",
          "name": "_data",
          "type": "bytes"
        }
      ],
      "name": "safeTransferFrom",
      "outputs": [],
      "stateMutability": "nonpayable",
      "type": "function"
    },
    {
      "inputs": [
        {
          "internalType": "address",
          "name": "operator",
          "type": "address"
        },
        {
          "internalType": "bool",
          "name": "approved",
          "type": "bool"
        }
      ],
      "name": "setApprovalForAll",
      "outputs": [],
      "stateMutability": "nonpayable",
      "type": "function"
    },
    {
      "inputs": [
        {
          "internalType": "bytes4",
          "name": "interfaceId",
          "type": "bytes4"
        }
      ],
      "name": "supportsInterface",
      "outputs": [
        {
          "internalType": "bool",
          "name": "",
          "type": "bool"
        }
      ],
      "stateMutability": "view",
      "type": "function"
    },
    {
      "inputs": [],
      "name": "symbol",
      "outputs": [
        {
          "internalType": "string",
          "name": "",
          "type": "string"
        }
      ],
      "stateMutability": "view",
      "type": "function"
    },
    {
      "inputs": [
        {
          "internalType": "uint256",
          "name": "tokenId",
          "type": "uint256"
        }
      ],
      "name": "tokenURI",
      "outputs": [
        {
          "internalType": "string",
          "name": "",
          "type": "string"
        }
      ],
      "stateMutability": "view",
      "type": "function"
    },
    {
      "inputs": [
        {
          "internalType": "address",
          "name": "from",
          "type": "address"
        },
        {
          "internalType": "address",
          "name": "to",
          "type": "address"
        },
        {
          "internalType": "uint256",
          "name": "tokenId",
          "type": "uint256"
        }
      ],
      "name": "transferFrom",
      "outputs": [],
      "stateMutability": "nonpayable",
      "type": "function"
    },
    {
      "inputs": [
        {
          "internalType": "address",
          "name": "newOwner",
          "type": "address"
        }
      ],
      "name": "transferOwnership",
      "outputs": [],
      "stateMutability": "nonpayable",
      "type": "function"
    }
  ],
  "bytecode": "0x60806040523480156200001157600080fd5b506040518060400160405280600d81526020017f557365724e66744d696e746572000000000000000000000000000000000000008152506040518060400160405280600381526020017f554d540000000000000000000000000000000000000000000000000000000000815250816000908051906020019062000096929190620001a6565b508060019080519060200190620000af929190620001a6565b505050620000d2620000c6620000d860201b60201c565b620000e060201b60201c565b620002bb565b600033905090565b6000600760009054906101000a900473ffffffffffffffffffffffffffffffffffffffff16905081600760006101000a81548173ffffffffffffffffffffffffffffffffffffffff021916908373ffffffffffffffffffffffffffffffffffffffff1602179055508173ffffffffffffffffffffffffffffffffffffffff168173ffffffffffffffffffffffffffffffffffffffff167f8be0079c531659141344cd1fd0a4f28419497f9722a3daafe3b4186f6b6457e060405160405180910390a35050565b828054620001b49062000256565b90600052602060002090601f016020900481019282620001d8576000855562000224565b82601f10620001f357805160ff191683800117855562000224565b8280016001018555821562000224579182015b828111156200022357825182559160200191906001019062000206565b5b50905062000233919062000237565b5090565b5b808211156200025257600081600090555060010162000238565b5090565b600060028204905060018216806200026f57607f821691505b602082108114156200028657620002856200028c565b5b50919050565b7f4e487b7100000000000000000000000000000000000000000000000000000000600052602260045260246000fd5b61323f80620002cb6000396000f3fe608060405234801561001057600080fd5b50600436106101165760003560e01c8063715018a6116100a2578063a22cb46511610071578063a22cb465146102cb578063b88d4fde146102e7578063c87b56dd14610303578063e985e9c514610333578063f2fde38b1461036357610116565b8063715018a61461026957806377097fc8146102735780638da5cb5b1461028f57806395d89b41146102ad57610116565b806323b872dd116100e957806323b872dd146101b557806342842e0e146101d157806342966c68146101ed5780636352211e1461020957806370a082311461023957610116565b806301ffc9a71461011b57806306fdde031461014b578063081812fc14610169578063095ea7b314610199575b600080fd5b61013560048036038101906101309190612135565b61037f565b60405161014291906125fc565b60405180910390f35b610153610461565b6040516101609190612617565b60405180910390f35b610183600480360381019061017e9190612187565b6104f3565b6040516101909190612595565b60405180910390f35b6101b360048036038101906101ae91906120f9565b610578565b005b6101cf60048036038101906101ca9190611ff3565b610690565b005b6101eb60048036038101906101e69190611ff3565b6106f0565b005b61020760048036038101906102029190612187565b610710565b005b610223600480360381019061021e9190612187565b610798565b6040516102309190612595565b60405180910390f35b610253600480360381019061024e9190611f8e565b61084a565b6040516102609190612899565b60405180910390f35b610271610902565b005b61028d600480360381019061028891906121b0565b61098a565b005b6102976109e7565b6040516102a49190612595565b60405180910390f35b6102b5610a11565b6040516102c29190612617565b60405180910390f35b6102e560048036038101906102e091906120bd565b610aa3565b005b61030160048036038101906102fc9190612042565b610c24565b005b61031d60048036038101906103189190612187565b610c86565b60405161032a9190612617565b60405180910390f35b61034d60048036038101906103489190611fb7565b610dd8565b60405161035a91906125fc565b60405180910390f35b61037d60048036038101906103789190611f8e565b610e6c565b005b60007f80ac58cd000000000000000000000000000000000000000000000000000000007bffffffffffffffffffffffffffffffffffffffffffffffffffffffff1916827bffffffffffffffffffffffffffffffffffffffffffffffffffffffff1916148061044a57507f5b5e139f000000000000000000000000000000000000000000000000000000007bffffffffffffffffffffffffffffffffffffffffffffffffffffffff1916827bffffffffffffffffffffffffffffffffffffffffffffffffffffffff1916145b8061045a575061045982610f64565b5b9050919050565b60606000805461047090612abe565b80601f016020809104026020016040519081016040528092919081815260200182805461049c90612abe565b80156104e95780601f106104be576101008083540402835291602001916104e9565b820191906000526020600020905b8154815290600101906020018083116104cc57829003601f168201915b5050505050905090565b60006104fe82610fce565b61053d576040517f08c379a0000000000000000000000000000000000000000000000000000000008152600401610534906127b9565b60405180910390fd5b6004600083815260200190815260200160002060009054906101000a900473ffffffffffffffffffffffffffffffffffffffff169050919050565b600061058382610798565b90508073ffffffffffffffffffffffffffffffffffffffff168373ffffffffffffffffffffffffffffffffffffffff1614156105f4576040517f08c379a00000000000000000000000000000000000000000000000000000000081526004016105eb90612839565b60405180910390fd5b8073ffffffffffffffffffffffffffffffffffffffff1661061361103a565b73ffffffffffffffffffffffffffffffffffffffff16148061064257506106418161063c61103a565b610dd8565b5b610681576040517f08c379a0000000000000000000000000000000000000000000000000000000008152600401610678906126f9565b60405180910390fd5b61068b8383611042565b505050565b6106a161069b61103a565b826110fb565b6106e0576040517f08c379a00000000000000000000000000000000000000000000000000000000081526004016106d790612859565b60405180910390fd5b6106eb8383836111d9565b505050565b61070b83838360405180602001604052806000815250610c24565b505050565b600061071b82610798565b90503373ffffffffffffffffffffffffffffffffffffffff168173ffffffffffffffffffffffffffffffffffffffff161461078b576040517f08c379a000000000000000000000000000000000000000000000000000000000815260040161078290612879565b60405180910390fd5b61079482611435565b5050565b6000806002600084815260200190815260200160002060009054906101000a900473ffffffffffffffffffffffffffffffffffffffff169050600073ffffffffffffffffffffffffffffffffffffffff168173ffffffffffffffffffffffffffffffffffffffff161415610841576040517f08c379a000000000000000000000000000000000000000000000000000000000815260040161083890612739565b60405180910390fd5b80915050919050565b60008073ffffffffffffffffffffffffffffffffffffffff168273ffffffffffffffffffffffffffffffffffffffff1614156108bb576040517f08c379a00000000000000000000000000000000000000000000000000000000081526004016108b290612719565b60405180910390fd5b600360008373ffffffffffffffffffffffffffffffffffffffff1673ffffffffffffffffffffffffffffffffffffffff168152602001908152602001600020549050919050565b61090a61103a565b73ffffffffffffffffffffffffffffffffffffffff166109286109e7565b73ffffffffffffffffffffffffffffffffffffffff161461097e576040517f08c379a0000000000000000000000000000000000000000000000000000000008152600401610975906127d9565b60405180910390fd5b6109886000611488565b565b610994338461154e565b6109e28383838080601f016020809104026020016040519081016040528093929190818152602001838380828437600081840152601f19601f8201169050808301925050505050505061156c565b505050565b6000600760009054906101000a900473ffffffffffffffffffffffffffffffffffffffff16905090565b606060018054610a2090612abe565b80601f0160208091040260200160405190810160405280929190818152602001828054610a4c90612abe565b8015610a995780601f10610a6e57610100808354040283529160200191610a99565b820191906000526020600020905b815481529060010190602001808311610a7c57829003601f168201915b5050505050905090565b610aab61103a565b73ffffffffffffffffffffffffffffffffffffffff168273ffffffffffffffffffffffffffffffffffffffff161415610b19576040517f08c379a0000000000000000000000000000000000000000000000000000000008152600401610b10906126b9565b60405180910390fd5b8060056000610b2661103a565b73ffffffffffffffffffffffffffffffffffffffff1673ffffffffffffffffffffffffffffffffffffffff16815260200190815260200160002060008473ffffffffffffffffffffffffffffffffffffffff1673ffffffffffffffffffffffffffffffffffffffff16815260200190815260200160002060006101000a81548160ff0219169083151502179055508173ffffffffffffffffffffffffffffffffffffffff16610bd361103a565b73ffffffffffffffffffffffffffffffffffffffff167f17307eab39ab6107e8899845ad3d59bd9653f200f220920489ca2b5937696c3183604051610c1891906125fc565b60405180910390a35050565b610c35610c2f61103a565b836110fb565b610c74576040517f08c379a0000000000000000000000000000000000000000000000000000000008152600401610c6b90612859565b60405180910390fd5b610c80848484846115e0565b50505050565b6060610c9182610fce565b610cd0576040517f08c379a0000000000000000000000000000000000000000000000000000000008152600401610cc790612799565b60405180910390fd5b6000600660008481526020019081526020016000208054610cf090612abe565b80601f0160208091040260200160405190810160405280929190818152602001828054610d1c90612abe565b8015610d695780601f10610d3e57610100808354040283529160200191610d69565b820191906000526020600020905b815481529060010190602001808311610d4c57829003601f168201915b505050505090506000610d7a61163c565b9050600081511415610d90578192505050610dd3565b600082511115610dc5578082604051602001610dad929190612571565b60405160208183030381529060405292505050610dd3565b610dce84611653565b925050505b919050565b6000600560008473ffffffffffffffffffffffffffffffffffffffff1673ffffffffffffffffffffffffffffffffffffffff16815260200190815260200160002060008373ffffffffffffffffffffffffffffffffffffffff1673ffffffffffffffffffffffffffffffffffffffff16815260200190815260200160002060009054906101000a900460ff16905092915050565b610e7461103a565b73ffffffffffffffffffffffffffffffffffffffff16610e926109e7565b73ffffffffffffffffffffffffffffffffffffffff1614610ee8576040517f08c379a0000000000000000000000000000000000000000000000000000000008152600401610edf906127d9565b60405180910390fd5b600073ffffffffffffffffffffffffffffffffffffffff168173ffffffffffffffffffffffffffffffffffffffff161415610f58576040517f08c379a0000000000000000000000000000000000000000000000000000000008152600401610f4f90612659565b60405180910390fd5b610f6181611488565b50565b60007f01ffc9a7000000000000000000000000000000000000000000000000000000007bffffffffffffffffffffffffffffffffffffffffffffffffffffffff1916827bffffffffffffffffffffffffffffffffffffffffffffffffffffffff1916149050919050565b60008073ffffffffffffffffffffffffffffffffffffffff166002600084815260200190815260200160002060009054906101000a900473ffffffffffffffffffffffffffffffffffffffff1673ffffffffffffffffffffffffffffffffffffffff1614159050919050565b600033905090565b816004600083815260200190815260200160002060006101000a81548173ffffffffffffffffffffffffffffffffffffffff021916908373ffffffffffffffffffffffffffffffffffffffff160217905550808273ffffffffffffffffffffffffffffffffffffffff166110b583610798565b73ffffffffffffffffffffffffffffffffffffffff167f8c5be1e5ebec7d5bd14f71427d1e84f3dd0314c0f7b2291e5b200ac8c7c3b92560405160405180910390a45050565b600061110682610fce565b611145576040517f08c379a000000000000000000000000000000000000000000000000000000000815260040161113c906126d9565b60405180910390fd5b600061115083610798565b90508073ffffffffffffffffffffffffffffffffffffffff168473ffffffffffffffffffffffffffffffffffffffff1614806111bf57508373ffffffffffffffffffffffffffffffffffffffff166111a7846104f3565b73ffffffffffffffffffffffffffffffffffffffff16145b806111d057506111cf8185610dd8565b5b91505092915050565b8273ffffffffffffffffffffffffffffffffffffffff166111f982610798565b73ffffffffffffffffffffffffffffffffffffffff161461124f576040517f08c379a0000000000000000000000000000000000000000000000000000000008152600401611246906127f9565b60405180910390fd5b600073ffffffffffffffffffffffffffffffffffffffff168273ffffffffffffffffffffffffffffffffffffffff1614156112bf576040517f08c379a00000000000000000000000000000000000000000000000000000000081526004016112b690612699565b60405180910390fd5b6112ca8383836116fa565b6112d5600082611042565b6001600360008573ffffffffffffffffffffffffffffffffffffffff1673ffffffffffffffffffffffffffffffffffffffff168152602001908152602001600020600082825461132591906129d4565b925050819055506001600360008473ffffffffffffffffffffffffffffffffffffffff1673ffffffffffffffffffffffffffffffffffffffff168152602001908152602001600020600082825461137c919061294d565b92505081905550816002600083815260200190815260200160002060006101000a81548173ffffffffffffffffffffffffffffffffffffffff021916908373ffffffffffffffffffffffffffffffffffffffff160217905550808273ffffffffffffffffffffffffffffffffffffffff168473ffffffffffffffffffffffffffffffffffffffff167fddf252ad1be2c89b69c2b068fc378daa952ba7f163c4a11628f55a4df523b3ef60405160405180910390a4505050565b61143e816116ff565b600060066000838152602001908152602001600020805461145e90612abe565b905014611485576006600082815260200190815260200160002060006114849190611d90565b5b50565b6000600760009054906101000a900473ffffffffffffffffffffffffffffffffffffffff16905081600760006101000a81548173ffffffffffffffffffffffffffffffffffffffff021916908373ffffffffffffffffffffffffffffffffffffffff1602179055508173ffffffffffffffffffffffffffffffffffffffff168173ffffffffffffffffffffffffffffffffffffffff167f8be0079c531659141344cd1fd0a4f28419497f9722a3daafe3b4186f6b6457e060405160405180910390a35050565b611568828260405180602001604052806000815250611810565b5050565b61157582610fce565b6115b4576040517f08c379a00000000000000000000000000000000000000000000000000000000081526004016115ab90612759565b60405180910390fd5b806006600084815260200190815260200160002090805190602001906115db929190611dd0565b505050565b6115eb8484846111d9565b6115f78484848461186b565b611636576040517f08c379a000000000000000000000000000000000000000000000000000000000815260040161162d90612639565b60405180910390fd5b50505050565b606060405180602001604052806000815250905090565b606061165e82610fce565b61169d576040517f08c379a000000000000000000000000000000000000000000000000000000000815260040161169490612819565b60405180910390fd5b60006116a761163c565b905060008151116116c757604051806020016040528060008152506116f2565b806116d184611a02565b6040516020016116e2929190612571565b6040516020818303038152906040525b915050919050565b505050565b600061170a82610798565b9050611718816000846116fa565b611723600083611042565b6001600360008373ffffffffffffffffffffffffffffffffffffffff1673ffffffffffffffffffffffffffffffffffffffff168152602001908152602001600020600082825461177391906129d4565b925050819055506002600083815260200190815260200160002060006101000a81549073ffffffffffffffffffffffffffffffffffffffff021916905581600073ffffffffffffffffffffffffffffffffffffffff168273ffffffffffffffffffffffffffffffffffffffff167fddf252ad1be2c89b69c2b068fc378daa952ba7f163c4a11628f55a4df523b3ef60405160405180910390a45050565b61181a8383611baf565b611827600084848461186b565b611866576040517f08c379a000000000000000000000000000000000000000000000000000000000815260040161185d90612639565b60405180910390fd5b505050565b600061188c8473ffffffffffffffffffffffffffffffffffffffff16611d7d565b156119f5578373ffffffffffffffffffffffffffffffffffffffff1663150b7a026118b561103a565b8786866040518563ffffffff1660e01b81526004016118d794939291906125b0565b602060405180830381600087803b1580156118f157600080fd5b505af192505050801561192257506040513d601f19601f8201168201806040525081019061191f919061215e565b60015b6119a5573d8060008114611952576040519150601f19603f3d011682016040523d82523d6000602084013e611957565b606091505b5060008151141561199d576040517f08c379a000000000000000000000000000000000000000000000000000000000815260040161199490612639565b60405180910390fd5b805181602001fd5b63150b7a0260e01b7bffffffffffffffffffffffffffffffffffffffffffffffffffffffff1916817bffffffffffffffffffffffffffffffffffffffffffffffffffffffff1916149150506119fa565b600190505b949350505050565b60606000821415611a4a576040518060400160405280600181526020017f30000000000000000000000000000000000000000000000000000000000000008152509050611baa565b600082905060005b60008214611a7c578080611a6590612b21565b915050600a82611a7591906129a3565b9150611a52565b60008167ffffffffffffffff811115611abe577f4e487b7100000000000000000000000000000000000000000000000000000000600052604160045260246000fd5b6040519080825280601f01601f191660200182016040528015611af05781602001600182028036833780820191505090505b5090505b60008514611ba357600182611b0991906129d4565b9150600a85611b189190612b6a565b6030611b24919061294d565b60f81b818381518110611b60577f4e487b7100000000000000000000000000000000000000000000000000000000600052603260045260246000fd5b60200101907effffffffffffffffffffffffffffffffffffffffffffffffffffffffffffff1916908160001a905350600a85611b9c91906129a3565b9450611af4565b8093505050505b919050565b600073ffffffffffffffffffffffffffffffffffffffff168273ffffffffffffffffffffffffffffffffffffffff161415611c1f576040517f08c379a0000000000000000000000000000000000000000000000000000000008152600401611c1690612779565b60405180910390fd5b611c2881610fce565b15611c68576040517f08c379a0000000000000000000000000000000000000000000000000000000008152600401611c5f90612679565b60405180910390fd5b611c74600083836116fa565b6001600360008473ffffffffffffffffffffffffffffffffffffffff1673ffffffffffffffffffffffffffffffffffffffff1681526020019081526020016000206000828254611cc4919061294d565b92505081905550816002600083815260200190815260200160002060006101000a81548173ffffffffffffffffffffffffffffffffffffffff021916908373ffffffffffffffffffffffffffffffffffffffff160217905550808273ffffffffffffffffffffffffffffffffffffffff16600073ffffffffffffffffffffffffffffffffffffffff167fddf252ad1be2c89b69c2b068fc378daa952ba7f163c4a11628f55a4df523b3ef60405160405180910390a45050565b600080823b905060008111915050919050565b508054611d9c90612abe565b6000825580601f10611dae5750611dcd565b601f016020900490600052602060002090810190611dcc9190611e56565b5b50565b828054611ddc90612abe565b90600052602060002090601f016020900481019282611dfe5760008555611e45565b82601f10611e1757805160ff1916838001178555611e45565b82800160010185558215611e45579182015b82811115611e44578251825591602001919060010190611e29565b5b509050611e529190611e56565b5090565b5b80821115611e6f576000816000905550600101611e57565b5090565b6000611e86611e81846128d9565b6128b4565b905082815260208101848484011115611e9e57600080fd5b611ea9848285612a7c565b509392505050565b600081359050611ec0816131ad565b92915050565b600081359050611ed5816131c4565b92915050565b600081359050611eea816131db565b92915050565b600081519050611eff816131db565b92915050565b600082601f830112611f1657600080fd5b8135611f26848260208601611e73565b91505092915050565b60008083601f840112611f4157600080fd5b8235905067ffffffffffffffff811115611f5a57600080fd5b602083019150836001820283011115611f7257600080fd5b9250929050565b600081359050611f88816131f2565b92915050565b600060208284031215611fa057600080fd5b6000611fae84828501611eb1565b91505092915050565b60008060408385031215611fca57600080fd5b6000611fd885828601611eb1565b9250506020611fe985828601611eb1565b9150509250929050565b60008060006060848603121561200857600080fd5b600061201686828701611eb1565b935050602061202786828701611eb1565b925050604061203886828701611f79565b9150509250925092565b6000806000806080858703121561205857600080fd5b600061206687828801611eb1565b945050602061207787828801611eb1565b935050604061208887828801611f79565b925050606085013567ffffffffffffffff8111156120a557600080fd5b6120b187828801611f05565b91505092959194509250565b600080604083850312156120d057600080fd5b60006120de85828601611eb1565b92505060206120ef85828601611ec6565b9150509250929050565b6000806040838503121561210c57600080fd5b600061211a85828601611eb1565b925050602061212b85828601611f79565b9150509250929050565b60006020828403121561214757600080fd5b600061215584828501611edb565b91505092915050565b60006020828403121561217057600080fd5b600061217e84828501611ef0565b91505092915050565b60006020828403121561219957600080fd5b60006121a784828501611f79565b91505092915050565b6000806000604084860312156121c557600080fd5b60006121d386828701611f79565b935050602084013567ffffffffffffffff8111156121f057600080fd5b6121fc86828701611f2f565b92509250509250925092565b61221181612a08565b82525050565b61222081612a1a565b82525050565b60006122318261290a565b61223b8185612920565b935061224b818560208601612a8b565b61225481612c57565b840191505092915050565b600061226a82612915565b6122748185612931565b9350612284818560208601612a8b565b61228d81612c57565b840191505092915050565b60006122a382612915565b6122ad8185612942565b93506122bd818560208601612a8b565b80840191505092915050565b60006122d6603283612931565b91506122e182612c68565b604082019050919050565b60006122f9602683612931565b915061230482612cb7565b604082019050919050565b600061231c601c83612931565b915061232782612d06565b602082019050919050565b600061233f602483612931565b915061234a82612d2f565b604082019050919050565b6000612362601983612931565b915061236d82612d7e565b602082019050919050565b6000612385602c83612931565b915061239082612da7565b604082019050919050565b60006123a8603883612931565b91506123b382612df6565b604082019050919050565b60006123cb602a83612931565b91506123d682612e45565b604082019050919050565b60006123ee602983612931565b91506123f982612e94565b604082019050919050565b6000612411602e83612931565b915061241c82612ee3565b604082019050919050565b6000612434602083612931565b915061243f82612f32565b602082019050919050565b6000612457603183612931565b915061246282612f5b565b604082019050919050565b600061247a602c83612931565b915061248582612faa565b604082019050919050565b600061249d602083612931565b91506124a882612ff9565b602082019050919050565b60006124c0602983612931565b91506124cb82613022565b604082019050919050565b60006124e3602f83612931565b91506124ee82613071565b604082019050919050565b6000612506602183612931565b9150612511826130c0565b604082019050919050565b6000612529603183612931565b91506125348261310f565b604082019050919050565b600061254c602383612931565b91506125578261315e565b604082019050919050565b61256b81612a72565b82525050565b600061257d8285612298565b91506125898284612298565b91508190509392505050565b60006020820190506125aa6000830184612208565b92915050565b60006080820190506125c56000830187612208565b6125d26020830186612208565b6125df6040830185612562565b81810360608301526125f18184612226565b905095945050505050565b60006020820190506126116000830184612217565b92915050565b60006020820190508181036000830152612631818461225f565b905092915050565b60006020820190508181036000830152612652816122c9565b9050919050565b60006020820190508181036000830152612672816122ec565b9050919050565b600060208201905081810360008301526126928161230f565b9050919050565b600060208201905081810360008301526126b281612332565b9050919050565b600060208201905081810360008301526126d281612355565b9050919050565b600060208201905081810360008301526126f281612378565b9050919050565b600060208201905081810360008301526127128161239b565b9050919050565b60006020820190508181036000830152612732816123be565b9050919050565b60006020820190508181036000830152612752816123e1565b9050919050565b6000602082019050818103600083015261277281612404565b9050919050565b6000602082019050818103600083015261279281612427565b9050919050565b600060208201905081810360008301526127b28161244a565b9050919050565b600060208201905081810360008301526127d28161246d565b9050919050565b600060208201905081810360008301526127f281612490565b9050919050565b60006020820190508181036000830152612812816124b3565b9050919050565b60006020820190508181036000830152612832816124d6565b9050919050565b60006020820190508181036000830152612852816124f9565b9050919050565b600060208201905081810360008301526128728161251c565b9050919050565b600060208201905081810360008301526128928161253f565b9050919050565b60006020820190506128ae6000830184612562565b92915050565b60006128be6128cf565b90506128ca8282612af0565b919050565b6000604051905090565b600067ffffffffffffffff8211156128f4576128f3612c28565b5b6128fd82612c57565b9050602081019050919050565b600081519050919050565b600081519050919050565b600082825260208201905092915050565b600082825260208201905092915050565b600081905092915050565b600061295882612a72565b915061296383612a72565b9250827fffffffffffffffffffffffffffffffffffffffffffffffffffffffffffffffff0382111561299857612997612b9b565b5b828201905092915050565b60006129ae82612a72565b91506129b983612a72565b9250826129c9576129c8612bca565b5b828204905092915050565b60006129df82612a72565b91506129ea83612a72565b9250828210156129fd576129fc612b9b565b5b828203905092915050565b6000612a1382612a52565b9050919050565b60008115159050919050565b60007fffffffff0000000000000000000000000000000000000000000000000000000082169050919050565b600073ffffffffffffffffffffffffffffffffffffffff82169050919050565b6000819050919050565b82818337600083830152505050565b60005b83811015612aa9578082015181840152602081019050612a8e565b83811115612ab8576000848401525b50505050565b60006002820490506001821680612ad657607f821691505b60208210811415612aea57612ae9612bf9565b5b50919050565b612af982612c57565b810181811067ffffffffffffffff82111715612b1857612b17612c28565b5b80604052505050565b6000612b2c82612a72565b91507fffffffffffffffffffffffffffffffffffffffffffffffffffffffffffffffff821415612b5f57612b5e612b9b565b5b600182019050919050565b6000612b7582612a72565b9150612b8083612a72565b925082612b9057612b8f612bca565b5b828206905092915050565b7f4e487b7100000000000000000000000000000000000000000000000000000000600052601160045260246000fd5b7f4e487b7100000000000000000000000000000000000000000000000000000000600052601260045260246000fd5b7f4e487b7100000000000000000000000000000000000000000000000000000000600052602260045260246000fd5b7f4e487b7100000000000000000000000000000000000000000000000000000000600052604160045260246000fd5b6000601f19601f8301169050919050565b7f4552433732313a207472616e7366657220746f206e6f6e20455243373231526560008201527f63656976657220696d706c656d656e7465720000000000000000000000000000602082015250565b7f4f776e61626c653a206e6577206f776e657220697320746865207a65726f206160008201527f6464726573730000000000000000000000000000000000000000000000000000602082015250565b7f4552433732313a20746f6b656e20616c7265616479206d696e74656400000000600082015250565b7f4552433732313a207472616e7366657220746f20746865207a65726f2061646460008201527f7265737300000000000000000000000000000000000000000000000000000000602082015250565b7f4552433732313a20617070726f766520746f2063616c6c657200000000000000600082015250565b7f4552433732313a206f70657261746f7220717565727920666f72206e6f6e657860008201527f697374656e7420746f6b656e0000000000000000000000000000000000000000602082015250565b7f4552433732313a20617070726f76652063616c6c6572206973206e6f74206f7760008201527f6e6572206e6f7220617070726f76656420666f7220616c6c0000000000000000602082015250565b7f4552433732313a2062616c616e636520717565727920666f7220746865207a6560008201527f726f206164647265737300000000000000000000000000000000000000000000602082015250565b7f4552433732313a206f776e657220717565727920666f72206e6f6e657869737460008201527f656e7420746f6b656e0000000000000000000000000000000000000000000000602082015250565b7f45524337323155524953746f726167653a2055524920736574206f66206e6f6e60008201527f6578697374656e7420746f6b656e000000000000000000000000000000000000602082015250565b7f4552433732313a206d696e7420746f20746865207a65726f2061646472657373600082015250565b7f45524337323155524953746f726167653a2055524920717565727920666f722060008201527f6e6f6e6578697374656e7420746f6b656e000000000000000000000000000000602082015250565b7f4552433732313a20617070726f76656420717565727920666f72206e6f6e657860008201527f697374656e7420746f6b656e0000000000000000000000000000000000000000602082015250565b7f4f776e61626c653a2063616c6c6572206973206e6f7420746865206f776e6572600082015250565b7f4552433732313a207472616e73666572206f6620746f6b656e2074686174206960008201527f73206e6f74206f776e0000000000000000000000000000000000000000000000602082015250565b7f4552433732314d657461646174613a2055524920717565727920666f72206e6f60008201527f6e6578697374656e7420746f6b656e0000000000000000000000000000000000602082015250565b7f4552433732313a20617070726f76616c20746f2063757272656e74206f776e6560008201527f7200000000000000000000000000000000000000000000000000000000000000602082015250565b7f4552433732313a207472616e736665722063616c6c6572206973206e6f74206f60008201527f776e6572206e6f7220617070726f766564000000000000000000000000000000602082015250565b7f596f7520617265206e6f7420746865206f776e6572206f66207468697320746f60008201527f6b656e0000000000000000000000000000000000000000000000000000000000602082015250565b6131b681612a08565b81146131c157600080fd5b50565b6131cd81612a1a565b81146131d857600080fd5b50565b6131e481612a26565b81146131ef57600080fd5b50565b6131fb81612a72565b811461320657600080fd5b5056fea2646970667358221220090aad813af943086fa67a33e003e32975d9a3c5d24a76440964583dd9205ef064736f6c63430008040033",
  "linkReferences": {},
  "deployedLinkReferences": {}
}