{
  "_format": "hh-sol-artifact-1",
  "contractName": "UserNftMinter",
  "sourceName": "contracts/UserNftMinter.sol",
  "abi": [
    {
      "inputs": [],
      "stateMutability": "nonpayable",
      "type": "constructor"
    },
    {
      "anonymous": false,
      "inputs": [
        {
          "indexed": true,
          "internalType": "address",
          "name": "owner",
          "type": "address"
        },
        {
          "indexed": true,
          "internalType": "address",
          "name": "approved",
          "type": "address"
        },
        {
          "indexed": true,
          "internalType": "uint256",
          "name": "tokenId",
          "type": "uint256"
        }
      ],
      "name": "Approval",
      "type": "event"
    },
    {
      "anonymous": false,
      "inputs": [
        {
          "indexed": true,
          "internalType": "address",
          "name": "owner",
          "type": "address"
        },
        {
          "indexed": true,
          "internalType": "address",
          "name": "operator",
          "type": "address"
        },
        {
          "indexed": false,
          "internalType": "bool",
          "name": "approved",
          "type": "bool"
        }
      ],
      "name": "ApprovalForAll",
      "type": "event"
    },
    {
      "anonymous": false,
      "inputs": [
        {
          "indexed": true,
          "internalType": "address",
          "name": "from",
          "type": "address"
        },
        {
          "indexed": true,
          "internalType": "address",
          "name": "to",
          "type": "address"
        },
        {
          "indexed": true,
          "internalType": "uint256",
          "name": "tokenId",
          "type": "uint256"
        }
      ],
      "name": "Transfer",
      "type": "event"
    },
    {
      "inputs": [
        {
          "internalType": "address",
          "name": "to",
          "type": "address"
        },
        {
          "internalType": "uint256",
          "name": "tokenId",
          "type": "uint256"
        }
      ],
      "name": "approve",
      "outputs": [],
      "stateMutability": "nonpayable",
      "type": "function"
    },
    {
      "inputs": [
        {
          "internalType": "address",
          "name": "owner",
          "type": "address"
        }
      ],
      "name": "balanceOf",
      "outputs": [
        {
          "internalType": "uint256",
          "name": "",
          "type": "uint256"
        }
      ],
      "stateMutability": "view",
      "type": "function"
    },
    {
      "inputs": [
        {
          "internalType": "uint256",
          "name": "id",
          "type": "uint256"
        }
      ],
      "name": "burn",
      "outputs": [],
      "stateMutability": "nonpayable",
      "type": "function"
    },
    {
      "inputs": [
        {
          "internalType": "uint256",
          "name": "tokenId",
          "type": "uint256"
        }
      ],
      "name": "getApproved",
      "outputs": [
        {
          "internalType": "address",
          "name": "",
          "type": "address"
        }
      ],
      "stateMutability": "view",
      "type": "function"
    },
    {
      "inputs": [
        {
          "internalType": "address",
          "name": "owner",
          "type": "address"
        },
        {
          "internalType": "address",
          "name": "operator",
          "type": "address"
        }
      ],
      "name": "isApprovedForAll",
      "outputs": [
        {
          "internalType": "bool",
          "name": "",
          "type": "bool"
        }
      ],
      "stateMutability": "view",
      "type": "function"
    },
    {
      "inputs": [
        {
          "internalType": "uint256",
          "name": "id",
          "type": "uint256"
        },
        {
          "internalType": "string",
          "name": "uri",
          "type": "string"
        }
      ],
      "name": "mint",
      "outputs": [],
      "stateMutability": "nonpayable",
      "type": "function"
    },
    {
      "inputs": [],
      "name": "name",
      "outputs": [
        {
          "internalType": "string",
          "name": "",
          "type": "string"
        }
      ],
      "stateMutability": "view",
      "type": "function"
    },
    {
      "inputs": [
        {
          "internalType": "uint256",
          "name": "tokenId",
          "type": "uint256"
        }
      ],
      "name": "ownerOf",
      "outputs": [
        {
          "internalType": "address",
          "name": "",
          "type": "address"
        }
      ],
      "stateMutability": "view",
      "type": "function"
    },
    {
      "inputs": [
        {
          "internalType": "address",
          "name": "from",
          "type": "address"
        },
        {
          "internalType": "address",
          "name": "to",
          "type": "address"
        },
        {
          "internalType": "uint256",
          "name": "tokenId",
          "type": "uint256"
        }
      ],
      "name": "safeTransferFrom",
      "outputs": [],
      "stateMutability": "nonpayable",
      "type": "function"
    },
    {
      "inputs": [
        {
          "internalType": "address",
          "name": "from",
          "type": "address"
        },
        {
          "internalType": "address",
          "name": "to",
          "type": "address"
        },
        {
          "internalType": "uint256",
          "name": "tokenId",
          "type": "uint256"
        },
        {
          "internalType": "bytes",
          "name": "_data",
          "type": "bytes"
        }
      ],
      "name": "safeTransferFrom",
      "outputs": [],
      "stateMutability": "nonpayable",
      "type": "function"
    },
    {
      "inputs": [
        {
          "internalType": "address",
          "name": "operator",
          "type": "address"
        },
        {
          "internalType": "bool",
          "name": "approved",
          "type": "bool"
        }
      ],
      "name": "setApprovalForAll",
      "outputs": [],
      "stateMutability": "nonpayable",
      "type": "function"
    },
    {
      "inputs": [
        {
          "internalType": "bytes4",
          "name": "interfaceId",
          "type": "bytes4"
        }
      ],
      "name": "supportsInterface",
      "outputs": [
        {
          "internalType": "bool",
          "name": "",
          "type": "bool"
        }
      ],
      "stateMutability": "view",
      "type": "function"
    },
    {
      "inputs": [],
      "name": "symbol",
      "outputs": [
        {
          "internalType": "string",
          "name": "",
          "type": "string"
        }
      ],
      "stateMutability": "view",
      "type": "function"
    },
    {
      "inputs": [],
      "name": "tokenId",
      "outputs": [
        {
          "internalType": "uint256",
          "name": "",
          "type": "uint256"
        }
      ],
      "stateMutability": "view",
      "type": "function"
    },
    {
      "inputs": [
        {
          "internalType": "uint256",
          "name": "tokenId",
          "type": "uint256"
        }
      ],
      "name": "tokenURI",
      "outputs": [
        {
          "internalType": "string",
          "name": "",
          "type": "string"
        }
      ],
      "stateMutability": "view",
      "type": "function"
    },
    {
      "inputs": [
        {
          "internalType": "address",
          "name": "from",
          "type": "address"
        },
        {
          "internalType": "address",
          "name": "to",
          "type": "address"
        },
        {
          "internalType": "uint256",
          "name": "tokenId",
          "type": "uint256"
        }
      ],
      "name": "transferFrom",
      "outputs": [],
      "stateMutability": "nonpayable",
      "type": "function"
    }
  ],
  "bytecode": "0x608060405260006007553480156200001657600080fd5b506040518060400160405280600d81526020017f557365724e66744d696e746572000000000000000000000000000000000000008152506040518060400160405280600381526020017f554d54000000000000000000000000000000000000000000000000000000000081525081600090805190602001906200009b929190620000bd565b508060019080519060200190620000b4929190620000bd565b505050620001d2565b828054620000cb906200016d565b90600052602060002090601f016020900481019282620000ef57600085556200013b565b82601f106200010a57805160ff19168380011785556200013b565b828001600101855582156200013b579182015b828111156200013a5782518255916020019190600101906200011d565b5b5090506200014a91906200014e565b5090565b5b80821115620001695760008160009055506001016200014f565b5090565b600060028204905060018216806200018657607f821691505b602082108114156200019d576200019c620001a3565b5b50919050565b7f4e487b7100000000000000000000000000000000000000000000000000000000600052602260045260246000fd5b612eb580620001e26000396000f3fe608060405234801561001057600080fd5b50600436106101005760003560e01c80636352211e11610097578063a22cb46511610066578063a22cb465146102ab578063b88d4fde146102c7578063c87b56dd146102e3578063e985e9c51461031357610100565b80636352211e1461021157806370a082311461024157806377097fc81461027157806395d89b411461028d57610100565b806317d70f7c116100d357806317d70f7c1461019f57806323b872dd146101bd57806342842e0e146101d957806342966c68146101f557610100565b806301ffc9a71461010557806306fdde0314610135578063081812fc14610153578063095ea7b314610183575b600080fd5b61011f600480360381019061011a9190611ea9565b610343565b60405161012c919061232a565b60405180910390f35b61013d610425565b60405161014a9190612345565b60405180910390f35b61016d60048036038101906101689190611efb565b6104b7565b60405161017a91906122c3565b60405180910390f35b61019d60048036038101906101989190611e6d565b61053c565b005b6101a7610654565b6040516101b49190612587565b60405180910390f35b6101d760048036038101906101d29190611d67565b61065a565b005b6101f360048036038101906101ee9190611d67565b6106ba565b005b61020f600480360381019061020a9190611efb565b6106da565b005b61022b60048036038101906102269190611efb565b610762565b60405161023891906122c3565b60405180910390f35b61025b60048036038101906102569190611d02565b610814565b6040516102689190612587565b60405180910390f35b61028b60048036038101906102869190611f24565b6108cc565b005b610295610943565b6040516102a29190612345565b60405180910390f35b6102c560048036038101906102c09190611e31565b6109d5565b005b6102e160048036038101906102dc9190611db6565b610b56565b005b6102fd60048036038101906102f89190611efb565b610bb8565b60405161030a9190612345565b60405180910390f35b61032d60048036038101906103289190611d2b565b610d0a565b60405161033a919061232a565b60405180910390f35b60007f80ac58cd000000000000000000000000000000000000000000000000000000007bffffffffffffffffffffffffffffffffffffffffffffffffffffffff1916827bffffffffffffffffffffffffffffffffffffffffffffffffffffffff1916148061040e57507f5b5e139f000000000000000000000000000000000000000000000000000000007bffffffffffffffffffffffffffffffffffffffffffffffffffffffff1916827bffffffffffffffffffffffffffffffffffffffffffffffffffffffff1916145b8061041e575061041d82610d9e565b5b9050919050565b606060008054610434906127ac565b80601f0160208091040260200160405190810160405280929190818152602001828054610460906127ac565b80156104ad5780601f10610482576101008083540402835291602001916104ad565b820191906000526020600020905b81548152906001019060200180831161049057829003601f168201915b5050505050905090565b60006104c282610e08565b610501576040517f08c379a00000000000000000000000000000000000000000000000000000000081526004016104f8906124c7565b60405180910390fd5b6004600083815260200190815260200160002060009054906101000a900473ffffffffffffffffffffffffffffffffffffffff169050919050565b600061054782610762565b90508073ffffffffffffffffffffffffffffffffffffffff168373ffffffffffffffffffffffffffffffffffffffff1614156105b8576040517f08c379a00000000000000000000000000000000000000000000000000000000081526004016105af90612527565b60405180910390fd5b8073ffffffffffffffffffffffffffffffffffffffff166105d7610e74565b73ffffffffffffffffffffffffffffffffffffffff161480610606575061060581610600610e74565b610d0a565b5b610645576040517f08c379a000000000000000000000000000000000000000000000000000000000815260040161063c90612407565b60405180910390fd5b61064f8383610e7c565b505050565b60075481565b61066b610665610e74565b82610f35565b6106aa576040517f08c379a00000000000000000000000000000000000000000000000000000000081526004016106a190612547565b60405180910390fd5b6106b5838383611013565b505050565b6106d583838360405180602001604052806000815250610b56565b505050565b60006106e582610762565b90503373ffffffffffffffffffffffffffffffffffffffff168173ffffffffffffffffffffffffffffffffffffffff1614610755576040517f08c379a000000000000000000000000000000000000000000000000000000000815260040161074c90612567565b60405180910390fd5b61075e8261126f565b5050565b6000806002600084815260200190815260200160002060009054906101000a900473ffffffffffffffffffffffffffffffffffffffff169050600073ffffffffffffffffffffffffffffffffffffffff168173ffffffffffffffffffffffffffffffffffffffff16141561080b576040517f08c379a000000000000000000000000000000000000000000000000000000000815260040161080290612447565b60405180910390fd5b80915050919050565b60008073ffffffffffffffffffffffffffffffffffffffff168273ffffffffffffffffffffffffffffffffffffffff161415610885576040517f08c379a000000000000000000000000000000000000000000000000000000000815260040161087c90612427565b60405180910390fd5b600360008373ffffffffffffffffffffffffffffffffffffffff1673ffffffffffffffffffffffffffffffffffffffff168152602001908152602001600020549050919050565b6108d633846112c2565b6109248383838080601f016020809104026020016040519081016040528093929190818152602001838380828437600081840152601f19601f820116905080830192505050505050506112e0565b600160076000828254610937919061263b565b92505081905550505050565b606060018054610952906127ac565b80601f016020809104026020016040519081016040528092919081815260200182805461097e906127ac565b80156109cb5780601f106109a0576101008083540402835291602001916109cb565b820191906000526020600020905b8154815290600101906020018083116109ae57829003601f168201915b5050505050905090565b6109dd610e74565b73ffffffffffffffffffffffffffffffffffffffff168273ffffffffffffffffffffffffffffffffffffffff161415610a4b576040517f08c379a0000000000000000000000000000000000000000000000000000000008152600401610a42906123c7565b60405180910390fd5b8060056000610a58610e74565b73ffffffffffffffffffffffffffffffffffffffff1673ffffffffffffffffffffffffffffffffffffffff16815260200190815260200160002060008473ffffffffffffffffffffffffffffffffffffffff1673ffffffffffffffffffffffffffffffffffffffff16815260200190815260200160002060006101000a81548160ff0219169083151502179055508173ffffffffffffffffffffffffffffffffffffffff16610b05610e74565b73ffffffffffffffffffffffffffffffffffffffff167f17307eab39ab6107e8899845ad3d59bd9653f200f220920489ca2b5937696c3183604051610b4a919061232a565b60405180910390a35050565b610b67610b61610e74565b83610f35565b610ba6576040517f08c379a0000000000000000000000000000000000000000000000000000000008152600401610b9d90612547565b60405180910390fd5b610bb284848484611354565b50505050565b6060610bc382610e08565b610c02576040517f08c379a0000000000000000000000000000000000000000000000000000000008152600401610bf9906124a7565b60405180910390fd5b6000600660008481526020019081526020016000208054610c22906127ac565b80601f0160208091040260200160405190810160405280929190818152602001828054610c4e906127ac565b8015610c9b5780601f10610c7057610100808354040283529160200191610c9b565b820191906000526020600020905b815481529060010190602001808311610c7e57829003601f168201915b505050505090506000610cac6113b0565b9050600081511415610cc2578192505050610d05565b600082511115610cf7578082604051602001610cdf92919061229f565b60405160208183030381529060405292505050610d05565b610d00846113c7565b925050505b919050565b6000600560008473ffffffffffffffffffffffffffffffffffffffff1673ffffffffffffffffffffffffffffffffffffffff16815260200190815260200160002060008373ffffffffffffffffffffffffffffffffffffffff1673ffffffffffffffffffffffffffffffffffffffff16815260200190815260200160002060009054906101000a900460ff16905092915050565b60007f01ffc9a7000000000000000000000000000000000000000000000000000000007bffffffffffffffffffffffffffffffffffffffffffffffffffffffff1916827bffffffffffffffffffffffffffffffffffffffffffffffffffffffff1916149050919050565b60008073ffffffffffffffffffffffffffffffffffffffff166002600084815260200190815260200160002060009054906101000a900473ffffffffffffffffffffffffffffffffffffffff1673ffffffffffffffffffffffffffffffffffffffff1614159050919050565b600033905090565b816004600083815260200190815260200160002060006101000a81548173ffffffffffffffffffffffffffffffffffffffff021916908373ffffffffffffffffffffffffffffffffffffffff160217905550808273ffffffffffffffffffffffffffffffffffffffff16610eef83610762565b73ffffffffffffffffffffffffffffffffffffffff167f8c5be1e5ebec7d5bd14f71427d1e84f3dd0314c0f7b2291e5b200ac8c7c3b92560405160405180910390a45050565b6000610f4082610e08565b610f7f576040517f08c379a0000000000000000000000000000000000000000000000000000000008152600401610f76906123e7565b60405180910390fd5b6000610f8a83610762565b90508073ffffffffffffffffffffffffffffffffffffffff168473ffffffffffffffffffffffffffffffffffffffff161480610ff957508373ffffffffffffffffffffffffffffffffffffffff16610fe1846104b7565b73ffffffffffffffffffffffffffffffffffffffff16145b8061100a57506110098185610d0a565b5b91505092915050565b8273ffffffffffffffffffffffffffffffffffffffff1661103382610762565b73ffffffffffffffffffffffffffffffffffffffff1614611089576040517f08c379a0000000000000000000000000000000000000000000000000000000008152600401611080906124e7565b60405180910390fd5b600073ffffffffffffffffffffffffffffffffffffffff168273ffffffffffffffffffffffffffffffffffffffff1614156110f9576040517f08c379a00000000000000000000000000000000000000000000000000000000081526004016110f0906123a7565b60405180910390fd5b61110483838361146e565b61110f600082610e7c565b6001600360008573ffffffffffffffffffffffffffffffffffffffff1673ffffffffffffffffffffffffffffffffffffffff168152602001908152602001600020600082825461115f91906126c2565b925050819055506001600360008473ffffffffffffffffffffffffffffffffffffffff1673ffffffffffffffffffffffffffffffffffffffff16815260200190815260200160002060008282546111b6919061263b565b92505081905550816002600083815260200190815260200160002060006101000a81548173ffffffffffffffffffffffffffffffffffffffff021916908373ffffffffffffffffffffffffffffffffffffffff160217905550808273ffffffffffffffffffffffffffffffffffffffff168473ffffffffffffffffffffffffffffffffffffffff167fddf252ad1be2c89b69c2b068fc378daa952ba7f163c4a11628f55a4df523b3ef60405160405180910390a4505050565b61127881611473565b6000600660008381526020019081526020016000208054611298906127ac565b9050146112bf576006600082815260200190815260200160002060006112be9190611b04565b5b50565b6112dc828260405180602001604052806000815250611584565b5050565b6112e982610e08565b611328576040517f08c379a000000000000000000000000000000000000000000000000000000000815260040161131f90612467565b60405180910390fd5b8060066000848152602001908152602001600020908051906020019061134f929190611b44565b505050565b61135f848484611013565b61136b848484846115df565b6113aa576040517f08c379a00000000000000000000000000000000000000000000000000000000081526004016113a190612367565b60405180910390fd5b50505050565b606060405180602001604052806000815250905090565b60606113d282610e08565b611411576040517f08c379a000000000000000000000000000000000000000000000000000000000815260040161140890612507565b60405180910390fd5b600061141b6113b0565b9050600081511161143b5760405180602001604052806000815250611466565b8061144584611776565b60405160200161145692919061229f565b6040516020818303038152906040525b915050919050565b505050565b600061147e82610762565b905061148c8160008461146e565b611497600083610e7c565b6001600360008373ffffffffffffffffffffffffffffffffffffffff1673ffffffffffffffffffffffffffffffffffffffff16815260200190815260200160002060008282546114e791906126c2565b925050819055506002600083815260200190815260200160002060006101000a81549073ffffffffffffffffffffffffffffffffffffffff021916905581600073ffffffffffffffffffffffffffffffffffffffff168273ffffffffffffffffffffffffffffffffffffffff167fddf252ad1be2c89b69c2b068fc378daa952ba7f163c4a11628f55a4df523b3ef60405160405180910390a45050565b61158e8383611923565b61159b60008484846115df565b6115da576040517f08c379a00000000000000000000000000000000000000000000000000000000081526004016115d190612367565b60405180910390fd5b505050565b60006116008473ffffffffffffffffffffffffffffffffffffffff16611af1565b15611769578373ffffffffffffffffffffffffffffffffffffffff1663150b7a02611629610e74565b8786866040518563ffffffff1660e01b815260040161164b94939291906122de565b602060405180830381600087803b15801561166557600080fd5b505af192505050801561169657506040513d601f19601f820116820180604052508101906116939190611ed2565b60015b611719573d80600081146116c6576040519150601f19603f3d011682016040523d82523d6000602084013e6116cb565b606091505b50600081511415611711576040517f08c379a000000000000000000000000000000000000000000000000000000000815260040161170890612367565b60405180910390fd5b805181602001fd5b63150b7a0260e01b7bffffffffffffffffffffffffffffffffffffffffffffffffffffffff1916817bffffffffffffffffffffffffffffffffffffffffffffffffffffffff19161491505061176e565b600190505b949350505050565b606060008214156117be576040518060400160405280600181526020017f3000000000000000000000000000000000000000000000000000000000000000815250905061191e565b600082905060005b600082146117f05780806117d99061280f565b915050600a826117e99190612691565b91506117c6565b60008167ffffffffffffffff811115611832577f4e487b7100000000000000000000000000000000000000000000000000000000600052604160045260246000fd5b6040519080825280601f01601f1916602001820160405280156118645781602001600182028036833780820191505090505b5090505b600085146119175760018261187d91906126c2565b9150600a8561188c9190612858565b6030611898919061263b565b60f81b8183815181106118d4577f4e487b7100000000000000000000000000000000000000000000000000000000600052603260045260246000fd5b60200101907effffffffffffffffffffffffffffffffffffffffffffffffffffffffffffff1916908160001a905350600a856119109190612691565b9450611868565b8093505050505b919050565b600073ffffffffffffffffffffffffffffffffffffffff168273ffffffffffffffffffffffffffffffffffffffff161415611993576040517f08c379a000000000000000000000000000000000000000000000000000000000815260040161198a90612487565b60405180910390fd5b61199c81610e08565b156119dc576040517f08c379a00000000000000000000000000000000000000000000000000000000081526004016119d390612387565b60405180910390fd5b6119e86000838361146e565b6001600360008473ffffffffffffffffffffffffffffffffffffffff1673ffffffffffffffffffffffffffffffffffffffff1681526020019081526020016000206000828254611a38919061263b565b92505081905550816002600083815260200190815260200160002060006101000a81548173ffffffffffffffffffffffffffffffffffffffff021916908373ffffffffffffffffffffffffffffffffffffffff160217905550808273ffffffffffffffffffffffffffffffffffffffff16600073ffffffffffffffffffffffffffffffffffffffff167fddf252ad1be2c89b69c2b068fc378daa952ba7f163c4a11628f55a4df523b3ef60405160405180910390a45050565b600080823b905060008111915050919050565b508054611b10906127ac565b6000825580601f10611b225750611b41565b601f016020900490600052602060002090810190611b409190611bca565b5b50565b828054611b50906127ac565b90600052602060002090601f016020900481019282611b725760008555611bb9565b82601f10611b8b57805160ff1916838001178555611bb9565b82800160010185558215611bb9579182015b82811115611bb8578251825591602001919060010190611b9d565b5b509050611bc69190611bca565b5090565b5b80821115611be3576000816000905550600101611bcb565b5090565b6000611bfa611bf5846125c7565b6125a2565b905082815260208101848484011115611c1257600080fd5b611c1d84828561276a565b509392505050565b600081359050611c3481612e23565b92915050565b600081359050611c4981612e3a565b92915050565b600081359050611c5e81612e51565b92915050565b600081519050611c7381612e51565b92915050565b600082601f830112611c8a57600080fd5b8135611c9a848260208601611be7565b91505092915050565b60008083601f840112611cb557600080fd5b8235905067ffffffffffffffff811115611cce57600080fd5b602083019150836001820283011115611ce657600080fd5b9250929050565b600081359050611cfc81612e68565b92915050565b600060208284031215611d1457600080fd5b6000611d2284828501611c25565b91505092915050565b60008060408385031215611d3e57600080fd5b6000611d4c85828601611c25565b9250506020611d5d85828601611c25565b9150509250929050565b600080600060608486031215611d7c57600080fd5b6000611d8a86828701611c25565b9350506020611d9b86828701611c25565b9250506040611dac86828701611ced565b9150509250925092565b60008060008060808587031215611dcc57600080fd5b6000611dda87828801611c25565b9450506020611deb87828801611c25565b9350506040611dfc87828801611ced565b925050606085013567ffffffffffffffff811115611e1957600080fd5b611e2587828801611c79565b91505092959194509250565b60008060408385031215611e4457600080fd5b6000611e5285828601611c25565b9250506020611e6385828601611c3a565b9150509250929050565b60008060408385031215611e8057600080fd5b6000611e8e85828601611c25565b9250506020611e9f85828601611ced565b9150509250929050565b600060208284031215611ebb57600080fd5b6000611ec984828501611c4f565b91505092915050565b600060208284031215611ee457600080fd5b6000611ef284828501611c64565b91505092915050565b600060208284031215611f0d57600080fd5b6000611f1b84828501611ced565b91505092915050565b600080600060408486031215611f3957600080fd5b6000611f4786828701611ced565b935050602084013567ffffffffffffffff811115611f6457600080fd5b611f7086828701611ca3565b92509250509250925092565b611f85816126f6565b82525050565b611f9481612708565b82525050565b6000611fa5826125f8565b611faf818561260e565b9350611fbf818560208601612779565b611fc881612945565b840191505092915050565b6000611fde82612603565b611fe8818561261f565b9350611ff8818560208601612779565b61200181612945565b840191505092915050565b600061201782612603565b6120218185612630565b9350612031818560208601612779565b80840191505092915050565b600061204a60328361261f565b915061205582612956565b604082019050919050565b600061206d601c8361261f565b9150612078826129a5565b602082019050919050565b600061209060248361261f565b915061209b826129ce565b604082019050919050565b60006120b360198361261f565b91506120be82612a1d565b602082019050919050565b60006120d6602c8361261f565b91506120e182612a46565b604082019050919050565b60006120f960388361261f565b915061210482612a95565b604082019050919050565b600061211c602a8361261f565b915061212782612ae4565b604082019050919050565b600061213f60298361261f565b915061214a82612b33565b604082019050919050565b6000612162602e8361261f565b915061216d82612b82565b604082019050919050565b600061218560208361261f565b915061219082612bd1565b602082019050919050565b60006121a860318361261f565b91506121b382612bfa565b604082019050919050565b60006121cb602c8361261f565b91506121d682612c49565b604082019050919050565b60006121ee60298361261f565b91506121f982612c98565b604082019050919050565b6000612211602f8361261f565b915061221c82612ce7565b604082019050919050565b600061223460218361261f565b915061223f82612d36565b604082019050919050565b600061225760318361261f565b915061226282612d85565b604082019050919050565b600061227a60238361261f565b915061228582612dd4565b604082019050919050565b61229981612760565b82525050565b60006122ab828561200c565b91506122b7828461200c565b91508190509392505050565b60006020820190506122d86000830184611f7c565b92915050565b60006080820190506122f36000830187611f7c565b6123006020830186611f7c565b61230d6040830185612290565b818103606083015261231f8184611f9a565b905095945050505050565b600060208201905061233f6000830184611f8b565b92915050565b6000602082019050818103600083015261235f8184611fd3565b905092915050565b600060208201905081810360008301526123808161203d565b9050919050565b600060208201905081810360008301526123a081612060565b9050919050565b600060208201905081810360008301526123c081612083565b9050919050565b600060208201905081810360008301526123e0816120a6565b9050919050565b60006020820190508181036000830152612400816120c9565b9050919050565b60006020820190508181036000830152612420816120ec565b9050919050565b600060208201905081810360008301526124408161210f565b9050919050565b6000602082019050818103600083015261246081612132565b9050919050565b6000602082019050818103600083015261248081612155565b9050919050565b600060208201905081810360008301526124a081612178565b9050919050565b600060208201905081810360008301526124c08161219b565b9050919050565b600060208201905081810360008301526124e0816121be565b9050919050565b60006020820190508181036000830152612500816121e1565b9050919050565b6000602082019050818103600083015261252081612204565b9050919050565b6000602082019050818103600083015261254081612227565b9050919050565b600060208201905081810360008301526125608161224a565b9050919050565b600060208201905081810360008301526125808161226d565b9050919050565b600060208201905061259c6000830184612290565b92915050565b60006125ac6125bd565b90506125b882826127de565b919050565b6000604051905090565b600067ffffffffffffffff8211156125e2576125e1612916565b5b6125eb82612945565b9050602081019050919050565b600081519050919050565b600081519050919050565b600082825260208201905092915050565b600082825260208201905092915050565b600081905092915050565b600061264682612760565b915061265183612760565b9250827fffffffffffffffffffffffffffffffffffffffffffffffffffffffffffffffff0382111561268657612685612889565b5b828201905092915050565b600061269c82612760565b91506126a783612760565b9250826126b7576126b66128b8565b5b828204905092915050565b60006126cd82612760565b91506126d883612760565b9250828210156126eb576126ea612889565b5b828203905092915050565b600061270182612740565b9050919050565b60008115159050919050565b60007fffffffff0000000000000000000000000000000000000000000000000000000082169050919050565b600073ffffffffffffffffffffffffffffffffffffffff82169050919050565b6000819050919050565b82818337600083830152505050565b60005b8381101561279757808201518184015260208101905061277c565b838111156127a6576000848401525b50505050565b600060028204905060018216806127c457607f821691505b602082108114156127d8576127d76128e7565b5b50919050565b6127e782612945565b810181811067ffffffffffffffff8211171561280657612805612916565b5b80604052505050565b600061281a82612760565b91507fffffffffffffffffffffffffffffffffffffffffffffffffffffffffffffffff82141561284d5761284c612889565b5b600182019050919050565b600061286382612760565b915061286e83612760565b92508261287e5761287d6128b8565b5b828206905092915050565b7f4e487b7100000000000000000000000000000000000000000000000000000000600052601160045260246000fd5b7f4e487b7100000000000000000000000000000000000000000000000000000000600052601260045260246000fd5b7f4e487b7100000000000000000000000000000000000000000000000000000000600052602260045260246000fd5b7f4e487b7100000000000000000000000000000000000000000000000000000000600052604160045260246000fd5b6000601f19601f8301169050919050565b7f4552433732313a207472616e7366657220746f206e6f6e20455243373231526560008201527f63656976657220696d706c656d656e7465720000000000000000000000000000602082015250565b7f4552433732313a20746f6b656e20616c7265616479206d696e74656400000000600082015250565b7f4552433732313a207472616e7366657220746f20746865207a65726f2061646460008201527f7265737300000000000000000000000000000000000000000000000000000000602082015250565b7f4552433732313a20617070726f766520746f2063616c6c657200000000000000600082015250565b7f4552433732313a206f70657261746f7220717565727920666f72206e6f6e657860008201527f697374656e7420746f6b656e0000000000000000000000000000000000000000602082015250565b7f4552433732313a20617070726f76652063616c6c6572206973206e6f74206f7760008201527f6e6572206e6f7220617070726f76656420666f7220616c6c0000000000000000602082015250565b7f4552433732313a2062616c616e636520717565727920666f7220746865207a6560008201527f726f206164647265737300000000000000000000000000000000000000000000602082015250565b7f4552433732313a206f776e657220717565727920666f72206e6f6e657869737460008201527f656e7420746f6b656e0000000000000000000000000000000000000000000000602082015250565b7f45524337323155524953746f726167653a2055524920736574206f66206e6f6e60008201527f6578697374656e7420746f6b656e000000000000000000000000000000000000602082015250565b7f4552433732313a206d696e7420746f20746865207a65726f2061646472657373600082015250565b7f45524337323155524953746f726167653a2055524920717565727920666f722060008201527f6e6f6e6578697374656e7420746f6b656e000000000000000000000000000000602082015250565b7f4552433732313a20617070726f76656420717565727920666f72206e6f6e657860008201527f697374656e7420746f6b656e0000000000000000000000000000000000000000602082015250565b7f4552433732313a207472616e73666572206f6620746f6b656e2074686174206960008201527f73206e6f74206f776e0000000000000000000000000000000000000000000000602082015250565b7f4552433732314d657461646174613a2055524920717565727920666f72206e6f60008201527f6e6578697374656e7420746f6b656e0000000000000000000000000000000000602082015250565b7f4552433732313a20617070726f76616c20746f2063757272656e74206f776e6560008201527f7200000000000000000000000000000000000000000000000000000000000000602082015250565b7f4552433732313a207472616e736665722063616c6c6572206973206e6f74206f60008201527f776e6572206e6f7220617070726f766564000000000000000000000000000000602082015250565b7f596f7520617265206e6f7420746865206f776e6572206f66207468697320746f60008201527f6b656e0000000000000000000000000000000000000000000000000000000000602082015250565b612e2c816126f6565b8114612e3757600080fd5b50565b612e4381612708565b8114612e4e57600080fd5b50565b612e5a81612714565b8114612e6557600080fd5b50565b612e7181612760565b8114612e7c57600080fd5b5056fea2646970667358221220afc50bc783f130cbfa166d7c7b6cd6b846c10e8cdc885592443a8b5e9c9b237964736f6c63430008040033",
  "linkReferences": {},
  "deployedLinkReferences": {}
}