{
  "_format": "hh-sol-artifact-1",
  "contractName": "Minter",
  "sourceName": "contracts/Minter.sol",
  "abi": [
    {
      "inputs": [
        {
          "internalType": "address[]",
          "name": "_validators",
          "type": "address[]"
        },
        {
          "internalType": "uint16",
          "name": "_threshold",
          "type": "uint16"
        },
        {
          "internalType": "contract XPNet",
          "name": "_token",
          "type": "address"
        }
      ],
      "stateMutability": "nonpayable",
      "type": "constructor"
    },
    {
      "anonymous": false,
      "inputs": [
        {
          "indexed": false,
          "internalType": "uint256",
          "name": "action_id",
          "type": "uint256"
        },
        {
          "indexed": false,
          "internalType": "uint64",
          "name": "chain_nonce",
          "type": "uint64"
        },
        {
          "indexed": false,
          "internalType": "string",
          "name": "to",
          "type": "string"
        },
        {
          "indexed": false,
          "internalType": "uint256",
          "name": "value",
          "type": "uint256"
        }
      ],
      "name": "Transfer",
      "type": "event"
    },
    {
      "anonymous": false,
      "inputs": [
        {
          "indexed": false,
          "internalType": "uint256",
          "name": "action_id",
          "type": "uint256"
        },
        {
          "indexed": false,
          "internalType": "uint64",
          "name": "chain_nonce",
          "type": "uint64"
        },
        {
          "indexed": false,
          "internalType": "string",
          "name": "to",
          "type": "string"
        },
        {
          "indexed": false,
          "internalType": "uint256",
          "name": "id",
          "type": "uint256"
        },
        {
          "indexed": false,
          "internalType": "address",
          "name": "contract_addr",
          "type": "address"
        }
      ],
      "name": "TransferErc1155",
      "type": "event"
    },
    {
      "anonymous": false,
      "inputs": [
        {
          "indexed": false,
          "internalType": "uint256",
          "name": "action_id",
          "type": "uint256"
        },
        {
          "indexed": false,
          "internalType": "uint64",
          "name": "chain_nonce",
          "type": "uint64"
        },
        {
          "indexed": false,
          "internalType": "string",
          "name": "to",
          "type": "string"
        },
        {
          "indexed": false,
          "internalType": "uint256",
          "name": "id",
          "type": "uint256"
        },
        {
          "indexed": false,
          "internalType": "address",
          "name": "contract_addr",
          "type": "address"
        }
      ],
      "name": "TransferErc721",
      "type": "event"
    },
    {
      "anonymous": false,
      "inputs": [
        {
          "indexed": false,
          "internalType": "uint256",
          "name": "action_id",
          "type": "uint256"
        },
        {
          "indexed": false,
          "internalType": "uint64",
          "name": "chain_nonce",
          "type": "uint64"
        },
        {
          "indexed": false,
          "internalType": "string",
          "name": "to",
          "type": "string"
        },
        {
          "indexed": false,
          "internalType": "uint256",
          "name": "value",
          "type": "uint256"
        }
      ],
      "name": "Unfreeze",
      "type": "event"
    },
    {
      "anonymous": false,
      "inputs": [
        {
          "indexed": false,
          "internalType": "uint256",
          "name": "action_id",
          "type": "uint256"
        },
        {
          "indexed": false,
          "internalType": "string",
          "name": "to",
          "type": "string"
        },
        {
          "indexed": false,
          "internalType": "string",
          "name": "data",
          "type": "string"
        }
      ],
      "name": "UnfreezeNft",
      "type": "event"
    },
    {
      "inputs": [
        {
          "internalType": "uint64",
          "name": "chain_nonce",
          "type": "uint64"
        },
        {
          "internalType": "string",
          "name": "to",
          "type": "string"
        }
      ],
      "name": "freeze",
      "outputs": [],
      "stateMutability": "payable",
      "type": "function"
    },
    {
      "inputs": [
        {
          "internalType": "address",
          "name": "",
          "type": "address"
        },
        {
          "internalType": "address",
          "name": "",
          "type": "address"
        },
        {
          "internalType": "uint256[]",
          "name": "",
          "type": "uint256[]"
        },
        {
          "internalType": "uint256[]",
          "name": "",
          "type": "uint256[]"
        },
        {
          "internalType": "bytes",
          "name": "",
          "type": "bytes"
        }
      ],
      "name": "onERC1155BatchReceived",
      "outputs": [
        {
          "internalType": "bytes4",
          "name": "",
          "type": "bytes4"
        }
      ],
      "stateMutability": "pure",
      "type": "function"
    },
    {
      "inputs": [
        {
          "internalType": "address",
          "name": "",
          "type": "address"
        },
        {
          "internalType": "address",
          "name": "",
          "type": "address"
        },
        {
          "internalType": "uint256",
          "name": "id",
          "type": "uint256"
        },
        {
          "internalType": "uint256",
          "name": "value",
          "type": "uint256"
        },
        {
          "internalType": "bytes",
          "name": "data",
          "type": "bytes"
        }
      ],
      "name": "onERC1155Received",
      "outputs": [
        {
          "internalType": "bytes4",
          "name": "",
          "type": "bytes4"
        }
      ],
      "stateMutability": "nonpayable",
      "type": "function"
    },
    {
      "inputs": [
        {
          "internalType": "address",
          "name": "caller",
          "type": "address"
        },
        {
          "internalType": "address",
          "name": "",
          "type": "address"
        },
        {
          "internalType": "uint256",
          "name": "tokenId",
          "type": "uint256"
        },
        {
          "internalType": "bytes",
          "name": "data",
          "type": "bytes"
        }
      ],
      "name": "onERC721Received",
      "outputs": [
        {
          "internalType": "bytes4",
          "name": "",
          "type": "bytes4"
        }
      ],
      "stateMutability": "nonpayable",
      "type": "function"
    },
    {
      "inputs": [
        {
          "internalType": "bytes4",
          "name": "interfaceId",
          "type": "bytes4"
        }
      ],
      "name": "supportsInterface",
      "outputs": [
        {
          "internalType": "bool",
          "name": "",
          "type": "bool"
        }
      ],
      "stateMutability": "view",
      "type": "function"
    },
    {
      "inputs": [
        {
          "internalType": "uint128",
          "name": "action_id",
          "type": "uint128"
        },
        {
          "internalType": "uint64",
          "name": "chain_nonce",
          "type": "uint64"
        },
        {
          "internalType": "address",
          "name": "to",
          "type": "address"
        },
        {
          "internalType": "uint256",
          "name": "value",
          "type": "uint256"
        }
      ],
      "name": "validate_transfer",
      "outputs": [],
      "stateMutability": "nonpayable",
      "type": "function"
    },
    {
      "inputs": [
        {
          "internalType": "uint128",
          "name": "action_id",
          "type": "uint128"
        },
        {
          "internalType": "address",
          "name": "to",
          "type": "address"
        },
        {
          "internalType": "string",
          "name": "data",
          "type": "string"
        }
      ],
      "name": "validate_transfer_nft",
      "outputs": [
        {
          "internalType": "uint256",
          "name": "",
          "type": "uint256"
        }
      ],
      "stateMutability": "nonpayable",
      "type": "function"
    },
    {
      "inputs": [
        {
          "internalType": "uint128",
          "name": "action_id",
          "type": "uint128"
        },
        {
          "internalType": "address payable",
          "name": "to",
          "type": "address"
        },
        {
          "internalType": "uint256",
          "name": "value",
          "type": "uint256"
        }
      ],
      "name": "validate_unfreeze",
      "outputs": [],
      "stateMutability": "nonpayable",
      "type": "function"
    },
    {
      "inputs": [
        {
          "internalType": "uint128",
          "name": "action_id",
          "type": "uint128"
        },
        {
          "internalType": "address",
          "name": "to",
          "type": "address"
        },
        {
          "internalType": "uint256",
          "name": "tokenId",
          "type": "uint256"
        },
        {
          "internalType": "contract IERC1155",
          "name": "contract_addr",
          "type": "address"
        }
      ],
      "name": "validate_unfreeze_erc1155",
      "outputs": [],
      "stateMutability": "nonpayable",
      "type": "function"
    },
    {
      "inputs": [
        {
          "internalType": "uint128",
          "name": "action_id",
          "type": "uint128"
        },
        {
          "internalType": "address",
          "name": "to",
          "type": "address"
        },
        {
          "internalType": "uint256",
          "name": "tokenId",
          "type": "uint256"
        },
        {
          "internalType": "contract IERC721",
          "name": "contract_addr",
          "type": "address"
        }
      ],
      "name": "validate_unfreeze_erc721",
      "outputs": [],
      "stateMutability": "nonpayable",
      "type": "function"
    },
    {
      "inputs": [],
      "name": "validator_cnt",
      "outputs": [
        {
          "internalType": "uint256",
          "name": "",
          "type": "uint256"
        }
      ],
      "stateMutability": "view",
      "type": "function"
    },
    {
      "inputs": [
        {
          "internalType": "uint64",
          "name": "chain_nonce",
          "type": "uint64"
        },
        {
          "internalType": "string",
          "name": "to",
          "type": "string"
        },
        {
          "internalType": "uint256",
          "name": "value",
          "type": "uint256"
        }
      ],
      "name": "withdraw",
      "outputs": [],
      "stateMutability": "nonpayable",
      "type": "function"
    },
    {
      "inputs": [
        {
          "internalType": "string",
          "name": "to",
          "type": "string"
        },
        {
          "internalType": "uint256",
          "name": "id",
          "type": "uint256"
        }
      ],
      "name": "withdraw_nft",
      "outputs": [],
      "stateMutability": "nonpayable",
      "type": "function"
    }
  ],
  "bytecode": "0x60806040526000600155620100006002553480156200001d57600080fd5b50604051620032d4380380620032d48339818101604052810190620000439190620002e8565b60008351116200008a576040517f08c379a00000000000000000000000000000000000000000000000000000000081526004016200008190620003c7565b60405180910390fd5b60008261ffff16118015620000a4575082518261ffff1611155b620000e6576040517f08c379a0000000000000000000000000000000000000000000000000000000008152600401620000dd90620003a5565b60405180910390fd5b60005b8351811015620001a35760026004600086848151811062000133577f4e487b7100000000000000000000000000000000000000000000000000000000600052603260045260246000fd5b602002602001015173ffffffffffffffffffffffffffffffffffffffff1673ffffffffffffffffffffffffffffffffffffffff16815260200190815260200160002060006101000a81548160ff021916908360ff16021790555080806200019a90620004e8565b915050620000e9565b5082516005819055508161ffff1660008190555080600360006101000a81548173ffffffffffffffffffffffffffffffffffffffff021916908373ffffffffffffffffffffffffffffffffffffffff16021790555050505062000645565b600062000218620002128462000412565b620003e9565b905080838252602082019050828560208602820111156200023857600080fd5b60005b858110156200026c578162000251888262000276565b8452602084019350602083019250506001810190506200023b565b5050509392505050565b6000815190506200028781620005f7565b92915050565b600082601f8301126200029f57600080fd5b8151620002b184826020860162000201565b91505092915050565b600081519050620002cb8162000611565b92915050565b600081519050620002e2816200062b565b92915050565b600080600060608486031215620002fe57600080fd5b600084015167ffffffffffffffff8111156200031957600080fd5b62000327868287016200028d565b93505060206200033a86828701620002d1565b92505060406200034d86828701620002ba565b9150509250925092565b60006200036660128362000441565b91506200037382620005a5565b602082019050919050565b60006200038d601d8362000441565b91506200039a82620005ce565b602082019050919050565b60006020820190508181036000830152620003c08162000357565b9050919050565b60006020820190508181036000830152620003e2816200037e565b9050919050565b6000620003f562000408565b9050620004038282620004b2565b919050565b6000604051905090565b600067ffffffffffffffff82111562000430576200042f62000565565b5b602082029050602081019050919050565b600082825260208201905092915050565b60006200045f8262000488565b9050919050565b6000620004738262000452565b9050919050565b600061ffff82169050919050565b600073ffffffffffffffffffffffffffffffffffffffff82169050919050565b6000819050919050565b620004bd8262000594565b810181811067ffffffffffffffff82111715620004df57620004de62000565565b5b80604052505050565b6000620004f582620004a8565b91507fffffffffffffffffffffffffffffffffffffffffffffffffffffffffffffffff8214156200052b576200052a62000536565b5b600182019050919050565b7f4e487b7100000000000000000000000000000000000000000000000000000000600052601160045260246000fd5b7f4e487b7100000000000000000000000000000000000000000000000000000000600052604160045260246000fd5b6000601f19601f8301169050919050565b7f696e76616c6964207468726573686f6c64210000000000000000000000000000600082015250565b7f56616c696461746f7273206d757374206e6f7420626520656d70747921000000600082015250565b620006028162000452565b81146200060e57600080fd5b50565b6200061c8162000466565b81146200062857600080fd5b50565b62000636816200047a565b81146200064257600080fd5b50565b612c7f80620006556000396000f3fe6080604052600436106100c25760003560e01c8063453d73651161007f578063b6c1d66311610059578063b6c1d66314610267578063bc197c8114610292578063ef1d0dec146102cf578063f23a6e61146102f8576100c2565b8063453d7365146101d85780635df93c7e146102155780638b202d8f1461023e576100c2565b806301ffc9a7146100c75780630d11f0a414610104578063150b7a021461012d5780631a8220b71461016a578063218130c51461019357806336490fb2146101af575b600080fd5b3480156100d357600080fd5b506100ee60048036038101906100e99190611c73565b610335565b6040516100fb919061236c565b60405180910390f35b34801561011057600080fd5b5061012b60048036038101906101269190611c9c565b6103af565b005b34801561013957600080fd5b50610154600480360381019061014f9190611b61565b6103c0565b6040516101619190612387565b60405180910390f35b34801561017657600080fd5b50610191600480360381019061018c9190611df0565b6104f8565b005b6101ad60048036038101906101a89190611f85565b6105fa565b005b3480156101bb57600080fd5b506101d660048036038101906101d19190611e53565b610699565b005b3480156101e457600080fd5b506101ff60048036038101906101fa9190611d84565b610798565b60405161020c9190612502565b60405180910390f35b34801561022157600080fd5b5061023c60048036038101906102379190611d35565b610987565b005b34801561024a57600080fd5b5061026560048036038101906102609190611f19565b610a8a565b005b34801561027357600080fd5b5061027c610a9d565b6040516102899190612502565b60405180910390f35b34801561029e57600080fd5b506102b960048036038101906102b49190611a95565b610aa3565b6040516102c69190612387565b60405180910390f35b3480156102db57600080fd5b506102f660048036038101906102f19190611eb6565b610afb565b005b34801561030457600080fd5b5061031f600480360381019061031a9190611be1565b610c1c565b60405161032c9190612387565b60405180910390f35b60007f4e2312e0000000000000000000000000000000000000000000000000000000007bffffffffffffffffffffffffffffffffffffffffffffffffffffffff1916827bffffffffffffffffffffffffffffffffffffffffffffffffffffffff191614806103a857506103a782610e26565b5b9050919050565b6103bb33848484610e90565b505050565b60008061041b600085858080601f016020809104026020016040519081016040528093929190818152602001838380828437600081840152601f19601f820116905080830192505050505050506110c290919063ffffffff16565b90506000610487600880878790506104339190612791565b87878080601f016020809104026020016040519081016040528093929190818152602001838380828437600081840152601f19601f820116905080830192505050505050506111299092919063ffffffff16565b90507f2d2ba3dca5c42419d9063a114d3f6be9edf8650e8b35098bcd58e5995d6c11546001548383898c6040516104c295949392919061265e565b60405180910390a160018060008282546104dc919061273b565b9250508190555063150b7a0260e01b9250505095945050505050565b6000610505856003611247565b905060006001811115610541577f4e487b7100000000000000000000000000000000000000000000000000000000600052602160045260246000fd5b81600181111561057a577f4e487b7100000000000000000000000000000000000000000000000000000000600052602160045260246000fd5b14156105f3578173ffffffffffffffffffffffffffffffffffffffff1663f242432a30868660016040518563ffffffff1660e01b81526004016105c094939291906122a6565b600060405180830381600087803b1580156105da57600080fd5b505af11580156105ee573d6000803e3d6000fd5b505050505b5050505050565b6000341161063d576040517f08c379a0000000000000000000000000000000000000000000000000000000008152600401610634906123e2565b60405180910390fd5b7fae6cc388e6cb7ad146f221b7fb33b2336c24effe84937090deacde6f0c9e4f2b6001548383346040516106749493929190612612565b60405180910390a1600180600082825461068e919061273b565b925050819055505050565b60006106a6856003611247565b9050600060018111156106e2577f4e487b7100000000000000000000000000000000000000000000000000000000600052602160045260246000fd5b81600181111561071b577f4e487b7100000000000000000000000000000000000000000000000000000000600052602160045260246000fd5b1415610791578173ffffffffffffffffffffffffffffffffffffffff166342842e0e3086866040518463ffffffff1660e01b815260040161075e9392919061226f565b600060405180830381600087803b15801561077857600080fd5b505af115801561078c573d6000803e3d6000fd5b505050505b5050505050565b6000806107a6866001611247565b9050600060018111156107e2577f4e487b7100000000000000000000000000000000000000000000000000000000600052602160045260246000fd5b81600181111561081b577f4e487b7100000000000000000000000000000000000000000000000000000000600052602160045260246000fd5b141561097957600360009054906101000a900473ffffffffffffffffffffffffffffffffffffffff1673ffffffffffffffffffffffffffffffffffffffff1663156e29f68660025460016040518463ffffffff1660e01b8152600401610883939291906122fe565b600060405180830381600087803b15801561089d57600080fd5b505af11580156108b1573d6000803e3d6000fd5b50505050600360009054906101000a900473ffffffffffffffffffffffffffffffffffffffff1673ffffffffffffffffffffffffffffffffffffffff1663862440e260025486866040518463ffffffff1660e01b81526004016109169392919061251d565b600060405180830381600087803b15801561093057600080fd5b505af1158015610944573d6000803e3d6000fd5b5050505060016002600082825461095b919061273b565b9250508190555060016002546109719190612791565b91505061097f565b60009150505b949350505050565b6000610994846002611247565b9050600060018111156109d0577f4e487b7100000000000000000000000000000000000000000000000000000000600052602160045260246000fd5b816001811115610a09577f4e487b7100000000000000000000000000000000000000000000000000000000600052602160045260246000fd5b1415610a84578273ffffffffffffffffffffffffffffffffffffffff166108fc839081150290604051600060405180830381858888f19350505050610a83576040517f08c379a0000000000000000000000000000000000000000000000000000000008152600401610a7a90612462565b60405180910390fd5b5b50505050565b610a9733858585856116a8565b50505050565b60055481565b600080610ae5576040517f08c379a0000000000000000000000000000000000000000000000000000000008152600401610adc906124c2565b60405180910390fd5b63bc197c8160e01b905098975050505050505050565b6000610b08856000611247565b905060006001811115610b44577f4e487b7100000000000000000000000000000000000000000000000000000000600052602160045260246000fd5b816001811115610b7d577f4e487b7100000000000000000000000000000000000000000000000000000000600052602160045260246000fd5b1415610c1557600360009054906101000a900473ffffffffffffffffffffffffffffffffffffffff1673ffffffffffffffffffffffffffffffffffffffff1663156e29f68486856040518463ffffffff1660e01b8152600401610be293929190612335565b600060405180830381600087803b158015610bfc57600080fd5b505af1158015610c10573d6000803e3d6000fd5b505050505b5050505050565b6000600360009054906101000a900473ffffffffffffffffffffffffffffffffffffffff1673ffffffffffffffffffffffffffffffffffffffff163373ffffffffffffffffffffffffffffffffffffffff161415610caa57611000851015610c9857610c9330610c8b876117e8565b8585886116a8565b610ca5565b610ca430848488610e90565b5b610e12565b60018414610ced576040517f08c379a0000000000000000000000000000000000000000000000000000000008152600401610ce490612482565b60405180910390fd5b6000610d47600085858080601f016020809104026020016040519081016040528093929190818152602001838380828437600081840152601f19601f820116905080830192505050505050506110c290919063ffffffff16565b90506000610db360088087879050610d5f9190612791565b87878080601f016020809104026020016040519081016040528093929190818152602001838380828437600081840152601f19601f820116905080830192505050505050506111299092919063ffffffff16565b90507f491f05df58ecacc555aeb87b5abf28becc511fb5c227c0bfbaf2da3e6109335e60015483838a33604051610dee95949392919061265e565b60405180910390a16001806000828254610e08919061273b565b9250508190555050505b63f23a6e6160e01b90509695505050505050565b60007f01ffc9a7000000000000000000000000000000000000000000000000000000007bffffffffffffffffffffffffffffffffffffffffffffffffffffffff1916827bffffffffffffffffffffffffffffffffffffffffffffffffffffffff1916149050919050565b6000600360009054906101000a900473ffffffffffffffffffffffffffffffffffffffff1673ffffffffffffffffffffffffffffffffffffffff16630e89341c836040518263ffffffff1660e01b8152600401610eed9190612502565b60006040518083038186803b158015610f0557600080fd5b505afa158015610f19573d6000803e3d6000fd5b505050506040513d6000823e3d601f19601f82011682018060405250810190610f429190611cf4565b9050600360009054906101000a900473ffffffffffffffffffffffffffffffffffffffff1673ffffffffffffffffffffffffffffffffffffffff1663f5298aca868460016040518463ffffffff1660e01b8152600401610fa4939291906122fe565b600060405180830381600087803b158015610fbe57600080fd5b505af1158015610fd2573d6000803e3d6000fd5b50505050600360009054906101000a900473ffffffffffffffffffffffffffffffffffffffff1673ffffffffffffffffffffffffffffffffffffffff1663862440e2836040518263ffffffff1660e01b81526004016110319190612596565b600060405180830381600087803b15801561104b57600080fd5b505af115801561105f573d6000803e3d6000fd5b505050507f1e2291a96615bb70cc8395e1493605485ea5df7d0d6eed27295e95368bcd185e60015485858460405161109a949392919061254f565b60405180910390a160018060008282546110b4919061273b565b925050819055505050505050565b60006008826110d1919061273b565b83511015611114576040517f08c379a000000000000000000000000000000000000000000000000000000000815260040161110b90612402565b60405180910390fd5b60008260088501015190508091505092915050565b606081601f83611139919061273b565b101561117a576040517f08c379a000000000000000000000000000000000000000000000000000000000815260040161117190612422565b60405180910390fd5b8183611186919061273b565b845110156111c9576040517f08c379a00000000000000000000000000000000000000000000000000000000081526004016111c0906124a2565b60405180910390fd5b60608215600081146111ea576040519150600082526020820160405261123b565b6040519150601f8416801560200281840101858101878315602002848b0101015b81831015611228578051835260208301925060208101905061120b565b50868552601f19601f8301166040525050505b50809150509392505050565b60006002600460003373ffffffffffffffffffffffffffffffffffffffff1673ffffffffffffffffffffffffffffffffffffffff16815260200190815260200160002060009054906101000a900460ff1660ff16146112db576040517f08c379a00000000000000000000000000000000000000000000000000000000081526004016112d2906123a2565b60405180910390fd5b600060066000856fffffffffffffffffffffffffffffffff166fffffffffffffffffffffffffffffffff16815260200190815260200160002060010154141561140b576040518060400160405280836003811115611362577f4e487b7100000000000000000000000000000000000000000000000000000000600052602160045260246000fd5b8152602001600181525060066000856fffffffffffffffffffffffffffffffff166fffffffffffffffffffffffffffffffff16815260200190815260200160002060008201518160000160006101000a81548160ff021916908360038111156113f4577f4e487b7100000000000000000000000000000000000000000000000000000000600052602160045260246000fd5b021790555060208201518160010155905050611526565b600260076000856fffffffffffffffffffffffffffffffff166fffffffffffffffffffffffffffffffff16815260200190815260200160002060003373ffffffffffffffffffffffffffffffffffffffff1673ffffffffffffffffffffffffffffffffffffffff16815260200190815260200160002060009054906101000a900460ff1660ff1614156114d3576040517f08c379a00000000000000000000000000000000000000000000000000000000081526004016114ca906123c2565b60405180910390fd5b600160066000856fffffffffffffffffffffffffffffffff166fffffffffffffffffffffffffffffffff168152602001908152602001600020600101600082825461151e919061273b565b925050819055505b600260076000856fffffffffffffffffffffffffffffffff166fffffffffffffffffffffffffffffffff16815260200190815260200160002060003373ffffffffffffffffffffffffffffffffffffffff1673ffffffffffffffffffffffffffffffffffffffff16815260200190815260200160002060006101000a81548160ff021916908360ff16021790555060006001905060005460066000866fffffffffffffffffffffffffffffffff166fffffffffffffffffffffffffffffffff16815260200190815260200160002060010154141561160357600090505b60055460066000866fffffffffffffffffffffffffffffffff166fffffffffffffffffffffffffffffffff16815260200190815260200160002060010154141561169e5760066000856fffffffffffffffffffffffffffffffff166fffffffffffffffffffffffffffffffff168152602001908152602001600020600080820160006101000a81549060ff0219169055600182016000905550505b8091505092915050565b6110008467ffffffffffffffff16106116f6576040517f08c379a00000000000000000000000000000000000000000000000000000000081526004016116ed906124e2565b60405180910390fd5b600360009054906101000a900473ffffffffffffffffffffffffffffffffffffffff1673ffffffffffffffffffffffffffffffffffffffff1663f5298aca8686846040518463ffffffff1660e01b815260040161175593929190612335565b600060405180830381600087803b15801561176f57600080fd5b505af1158015611783573d6000803e3d6000fd5b505050507fb58390b60b92155ee6f1561cf0f29316be0c0f26d248a7ff7e0b341f5fb2f898600154858585856040516117c09594939291906125c4565b60405180910390a160018060008282546117da919061273b565b925050819055505050505050565b600067ffffffffffffffff8016821115611837576040517f08c379a000000000000000000000000000000000000000000000000000000000815260040161182e90612442565b60405180910390fd5b819050919050565b600061185261184d846126dd565b6126b8565b90508281526020810184848401111561186a57600080fd5b6118758482856128c3565b509392505050565b600061189061188b846126dd565b6126b8565b9050828152602081018484840111156118a857600080fd5b6118b38482856128d2565b509392505050565b6000813590506118ca81612b91565b92915050565b6000813590506118df81612ba8565b92915050565b60008083601f8401126118f757600080fd5b8235905067ffffffffffffffff81111561191057600080fd5b60208301915083602082028301111561192857600080fd5b9250929050565b60008135905061193e81612bbf565b92915050565b60008083601f84011261195657600080fd5b8235905067ffffffffffffffff81111561196f57600080fd5b60208301915083600182028301111561198757600080fd5b9250929050565b60008135905061199d81612bd6565b92915050565b6000813590506119b281612bed565b92915050565b60008083601f8401126119ca57600080fd5b8235905067ffffffffffffffff8111156119e357600080fd5b6020830191508360018202830111156119fb57600080fd5b9250929050565b600082601f830112611a1357600080fd5b8135611a2384826020860161183f565b91505092915050565b600082601f830112611a3d57600080fd5b8151611a4d84826020860161187d565b91505092915050565b600081359050611a6581612c04565b92915050565b600081359050611a7a81612c1b565b92915050565b600081359050611a8f81612c32565b92915050565b60008060008060008060008060a0898b031215611ab157600080fd5b6000611abf8b828c016118bb565b9850506020611ad08b828c016118bb565b975050604089013567ffffffffffffffff811115611aed57600080fd5b611af98b828c016118e5565b9650965050606089013567ffffffffffffffff811115611b1857600080fd5b611b248b828c016118e5565b9450945050608089013567ffffffffffffffff811115611b4357600080fd5b611b4f8b828c01611944565b92509250509295985092959890939650565b600080600080600060808688031215611b7957600080fd5b6000611b87888289016118bb565b9550506020611b98888289016118bb565b9450506040611ba988828901611a6b565b935050606086013567ffffffffffffffff811115611bc657600080fd5b611bd288828901611944565b92509250509295509295909350565b60008060008060008060a08789031215611bfa57600080fd5b6000611c0889828a016118bb565b9650506020611c1989828a016118bb565b9550506040611c2a89828a01611a6b565b9450506060611c3b89828a01611a6b565b935050608087013567ffffffffffffffff811115611c5857600080fd5b611c6489828a01611944565b92509250509295509295509295565b600060208284031215611c8557600080fd5b6000611c938482850161192f565b91505092915050565b600080600060408486031215611cb157600080fd5b600084013567ffffffffffffffff811115611ccb57600080fd5b611cd7868287016119b8565b93509350506020611cea86828701611a6b565b9150509250925092565b600060208284031215611d0657600080fd5b600082015167ffffffffffffffff811115611d2057600080fd5b611d2c84828501611a2c565b91505092915050565b600080600060608486031215611d4a57600080fd5b6000611d5886828701611a56565b9350506020611d69868287016118d0565b9250506040611d7a86828701611a6b565b9150509250925092565b60008060008060608587031215611d9a57600080fd5b6000611da887828801611a56565b9450506020611db9878288016118bb565b935050604085013567ffffffffffffffff811115611dd657600080fd5b611de2878288016119b8565b925092505092959194509250565b60008060008060808587031215611e0657600080fd5b6000611e1487828801611a56565b9450506020611e25878288016118bb565b9350506040611e3687828801611a6b565b9250506060611e478782880161198e565b91505092959194509250565b60008060008060808587031215611e6957600080fd5b6000611e7787828801611a56565b9450506020611e88878288016118bb565b9350506040611e9987828801611a6b565b9250506060611eaa878288016119a3565b91505092959194509250565b60008060008060808587031215611ecc57600080fd5b6000611eda87828801611a56565b9450506020611eeb87828801611a80565b9350506040611efc878288016118bb565b9250506060611f0d87828801611a6b565b91505092959194509250565b60008060008060608587031215611f2f57600080fd5b6000611f3d87828801611a80565b945050602085013567ffffffffffffffff811115611f5a57600080fd5b611f66878288016119b8565b93509350506040611f7987828801611a6b565b91505092959194509250565b60008060408385031215611f9857600080fd5b6000611fa685828601611a80565b925050602083013567ffffffffffffffff811115611fc357600080fd5b611fcf85828601611a02565b9150509250929050565b611fe2816127c5565b82525050565b611ff1816127e9565b82525050565b612000816127f5565b82525050565b61200f8161289f565b82525050565b6000612021838561272a565b935061202e8385846128c3565b61203783612994565b840190509392505050565b600061204d8261270e565b612057818561272a565b93506120678185602086016128d2565b61207081612994565b840191505092915050565b600061208860108361272a565b9150612093826129a5565b602082019050919050565b60006120ab60148361272a565b91506120b6826129ce565b602082019050919050565b60006120ce60128361272a565b91506120d9826129f7565b602082019050919050565b60006120f160148361272a565b91506120fc82612a20565b602082019050919050565b6000612114600e8361272a565b915061211f82612a49565b602082019050919050565b600061213760268361272a565b915061214282612a72565b604082019050919050565b600061215a60148361272a565b915061216582612ac1565b602082019050919050565b600061217d60168361272a565b915061218882612aea565b602082019050919050565b60006121a0600083612719565b91506121ab82612b13565b600082019050919050565b60006121c360008361272a565b91506121ce82612b13565b600082019050919050565b60006121e660118361272a565b91506121f182612b16565b602082019050919050565b600061220960158361272a565b915061221482612b3f565b602082019050919050565b600061222c60158361272a565b915061223782612b68565b602082019050919050565b61224b81612881565b82525050565b61225a816128b1565b82525050565b6122698161288b565b82525050565b60006060820190506122846000830186611fd9565b6122916020830185611fd9565b61229e6040830184612242565b949350505050565b600060a0820190506122bb6000830187611fd9565b6122c86020830186611fd9565b6122d56040830185612242565b6122e26060830184612006565b81810360808301526122f381612193565b905095945050505050565b60006060820190506123136000830186611fd9565b6123206020830185612242565b61232d6040830184612006565b949350505050565b600060608201905061234a6000830186611fd9565b6123576020830185612251565b6123646040830184612242565b949350505050565b60006020820190506123816000830184611fe8565b92915050565b600060208201905061239c6000830184611ff7565b92915050565b600060208201905081810360008301526123bb8161207b565b9050919050565b600060208201905081810360008301526123db8161209e565b9050919050565b600060208201905081810360008301526123fb816120c1565b9050919050565b6000602082019050818103600083015261241b816120e4565b9050919050565b6000602082019050818103600083015261243b81612107565b9050919050565b6000602082019050818103600083015261245b8161212a565b9050919050565b6000602082019050818103600083015261247b8161214d565b9050919050565b6000602082019050818103600083015261249b81612170565b9050919050565b600060208201905081810360008301526124bb816121d9565b9050919050565b600060208201905081810360008301526124db816121fc565b9050919050565b600060208201905081810360008301526124fb8161221f565b9050919050565b60006020820190506125176000830184612242565b92915050565b60006040820190506125326000830186612242565b8181036020830152612545818486612015565b9050949350505050565b60006060820190506125646000830187612242565b8181036020830152612577818587612015565b9050818103604083015261258b8184612042565b905095945050505050565b60006040820190506125ab6000830184612242565b81810360208301526125bc816121b6565b905092915050565b60006080820190506125d96000830188612242565b6125e66020830187612260565b81810360408301526125f9818587612015565b90506126086060830184612242565b9695505050505050565b60006080820190506126276000830187612242565b6126346020830186612260565b81810360408301526126468185612042565b90506126556060830184612242565b95945050505050565b600060a0820190506126736000830188612242565b6126806020830187612260565b81810360408301526126928186612042565b90506126a16060830185612242565b6126ae6080830184611fd9565b9695505050505050565b60006126c26126d3565b90506126ce8282612905565b919050565b6000604051905090565b600067ffffffffffffffff8211156126f8576126f7612965565b5b61270182612994565b9050602081019050919050565b600081519050919050565b600082825260208201905092915050565b600082825260208201905092915050565b600061274682612881565b915061275183612881565b9250827fffffffffffffffffffffffffffffffffffffffffffffffffffffffffffffffff0382111561278657612785612936565b5b828201905092915050565b600061279c82612881565b91506127a783612881565b9250828210156127ba576127b9612936565b5b828203905092915050565b60006127d082612861565b9050919050565b60006127e282612861565b9050919050565b60008115159050919050565b60007fffffffff0000000000000000000000000000000000000000000000000000000082169050919050565b600061282c826127c5565b9050919050565b600061283e826127c5565b9050919050565b60006fffffffffffffffffffffffffffffffff82169050919050565b600073ffffffffffffffffffffffffffffffffffffffff82169050919050565b6000819050919050565b600067ffffffffffffffff82169050919050565b60006128aa82612881565b9050919050565b60006128bc8261288b565b9050919050565b82818337600083830152505050565b60005b838110156128f05780820151818401526020810190506128d5565b838111156128ff576000848401525b50505050565b61290e82612994565b810181811067ffffffffffffffff8211171561292d5761292c612965565b5b80604052505050565b7f4e487b7100000000000000000000000000000000000000000000000000000000600052601160045260246000fd5b7f4e487b7100000000000000000000000000000000000000000000000000000000600052604160045260246000fd5b6000601f19601f8301169050919050565b7f4e6f7420612076616c696461746f722100000000000000000000000000000000600082015250565b7f4475706c69636174652056616c696461746f7221000000000000000000000000600082015250565b7f76616c7565206d757374206265203e2030210000000000000000000000000000600082015250565b7f746f55696e7436345f6f75744f66426f756e6473000000000000000000000000600082015250565b7f736c6963655f6f766572666c6f77000000000000000000000000000000000000600082015250565b7f53616665436173743a2076616c756520646f65736e27742066697420696e203660008201527f3420626974730000000000000000000000000000000000000000000000000000602082015250565b7f4641494c454420544f205452414e534645523f21000000000000000000000000600082015250565b7f5346542f465473206e6f7420737570706f727465642100000000000000000000600082015250565b50565b7f736c6963655f6f75744f66426f756e6473000000000000000000000000000000600082015250565b7f4d6574686f64206e6f7420737570706f72746564210000000000000000000000600082015250565b7f4e6f7420612046756e6769626c6520746f6b656e210000000000000000000000600082015250565b612b9a816127c5565b8114612ba557600080fd5b50565b612bb1816127d7565b8114612bbc57600080fd5b50565b612bc8816127f5565b8114612bd357600080fd5b50565b612bdf81612821565b8114612bea57600080fd5b50565b612bf681612833565b8114612c0157600080fd5b50565b612c0d81612845565b8114612c1857600080fd5b50565b612c2481612881565b8114612c2f57600080fd5b50565b612c3b8161288b565b8114612c4657600080fd5b5056fea2646970667358221220efd3b349cb0870470c3a67be5ced52ec66e5016b0be060f42b2a5b1efd7a9d6164736f6c63430008040033",
  "linkReferences": {},
  "deployedLinkReferences": {}
}