{
  "_format": "hh-sol-artifact-1",
  "contractName": "Minter",
  "sourceName": "contracts/Minter.sol",
  "abi": [
    {
      "inputs": [
        {
          "internalType": "address[]",
          "name": "_validators",
          "type": "address[]"
        },
        {
          "internalType": "contract IERC721[]",
          "name": "_nft_whitelist",
          "type": "address[]"
        },
        {
          "internalType": "uint16",
          "name": "_threshold",
          "type": "uint16"
        },
        {
          "internalType": "contract XPNft",
          "name": "_nft_token",
          "type": "address"
        },
        {
          "internalType": "contract XPNet",
          "name": "_token",
          "type": "address"
        }
      ],
      "stateMutability": "nonpayable",
      "type": "constructor"
    },
    {
      "anonymous": false,
      "inputs": [
        {
          "indexed": false,
          "internalType": "address",
          "name": "account",
          "type": "address"
        }
      ],
      "name": "Paused",
      "type": "event"
    },
    {
      "anonymous": false,
      "inputs": [
        {
          "indexed": false,
          "internalType": "uint256",
          "name": "action_id",
          "type": "uint256"
        }
      ],
      "name": "QuorumFailure",
      "type": "event"
    },
    {
      "anonymous": false,
      "inputs": [
        {
          "indexed": false,
          "internalType": "uint256",
          "name": "action_id",
          "type": "uint256"
        },
        {
          "indexed": false,
          "internalType": "uint64",
          "name": "chain_nonce",
          "type": "uint64"
        },
        {
          "indexed": false,
          "internalType": "uint256",
          "name": "txFees",
          "type": "uint256"
        },
        {
          "indexed": false,
          "internalType": "string",
          "name": "to",
          "type": "string"
        },
        {
          "indexed": false,
          "internalType": "uint256",
          "name": "value",
          "type": "uint256"
        }
      ],
      "name": "Transfer",
      "type": "event"
    },
    {
      "anonymous": false,
      "inputs": [
        {
          "indexed": false,
          "internalType": "uint256",
          "name": "action_id",
          "type": "uint256"
        },
        {
          "indexed": false,
          "internalType": "uint64",
          "name": "chain_nonce",
          "type": "uint64"
        },
        {
          "indexed": false,
          "internalType": "uint256",
          "name": "txFees",
          "type": "uint256"
        },
        {
          "indexed": false,
          "internalType": "string",
          "name": "to",
          "type": "string"
        },
        {
          "indexed": false,
          "internalType": "uint256",
          "name": "id",
          "type": "uint256"
        },
        {
          "indexed": false,
          "internalType": "address",
          "name": "contract_addr",
          "type": "address"
        }
      ],
      "name": "TransferErc721",
      "type": "event"
    },
    {
      "anonymous": false,
      "inputs": [
        {
          "indexed": false,
          "internalType": "uint256",
          "name": "action_id",
          "type": "uint256"
        },
        {
          "indexed": false,
          "internalType": "uint64",
          "name": "chain_nonce",
          "type": "uint64"
        },
        {
          "indexed": false,
          "internalType": "uint256",
          "name": "txFees",
          "type": "uint256"
        },
        {
          "indexed": false,
          "internalType": "string",
          "name": "to",
          "type": "string"
        },
        {
          "indexed": false,
          "internalType": "uint256",
          "name": "value",
          "type": "uint256"
        }
      ],
      "name": "Unfreeze",
      "type": "event"
    },
    {
      "anonymous": false,
      "inputs": [
        {
          "indexed": false,
          "internalType": "uint256",
          "name": "action_id",
          "type": "uint256"
        },
        {
          "indexed": false,
          "internalType": "uint256",
          "name": "txFees",
          "type": "uint256"
        },
        {
          "indexed": false,
          "internalType": "string",
          "name": "to",
          "type": "string"
        },
        {
          "indexed": false,
          "internalType": "string",
          "name": "data",
          "type": "string"
        }
      ],
      "name": "UnfreezeNft",
      "type": "event"
    },
    {
      "anonymous": false,
      "inputs": [
        {
          "indexed": false,
          "internalType": "address",
          "name": "account",
          "type": "address"
        }
      ],
      "name": "Unpaused",
      "type": "event"
    },
    {
      "inputs": [
        {
          "internalType": "uint64",
          "name": "chain_nonce",
          "type": "uint64"
        },
        {
          "internalType": "string",
          "name": "to",
          "type": "string"
        },
        {
          "internalType": "uint256",
          "name": "value",
          "type": "uint256"
        }
      ],
      "name": "freeze",
      "outputs": [],
      "stateMutability": "payable",
      "type": "function"
    },
    {
      "inputs": [
        {
          "internalType": "contract IERC721",
          "name": "erc721_contract",
          "type": "address"
        },
        {
          "internalType": "uint256",
          "name": "tokenId",
          "type": "uint256"
        },
        {
          "internalType": "uint64",
          "name": "chain_nonce",
          "type": "uint64"
        },
        {
          "internalType": "string",
          "name": "to",
          "type": "string"
        }
      ],
      "name": "freeze_erc721",
      "outputs": [],
      "stateMutability": "payable",
      "type": "function"
    },
    {
      "inputs": [
        {
          "internalType": "address",
          "name": "",
          "type": "address"
        },
        {
          "internalType": "address",
          "name": "",
          "type": "address"
        },
        {
          "internalType": "uint256",
          "name": "",
          "type": "uint256"
        },
        {
          "internalType": "bytes",
          "name": "",
          "type": "bytes"
        }
      ],
      "name": "onERC721Received",
      "outputs": [
        {
          "internalType": "bytes4",
          "name": "",
          "type": "bytes4"
        }
      ],
      "stateMutability": "nonpayable",
      "type": "function"
    },
    {
      "inputs": [],
      "name": "paused",
      "outputs": [
        {
          "internalType": "bool",
          "name": "",
          "type": "bool"
        }
      ],
      "stateMutability": "view",
      "type": "function"
    },
    {
      "inputs": [
        {
          "internalType": "uint128",
          "name": "action_id",
          "type": "uint128"
        },
        {
          "internalType": "address",
          "name": "new_validator",
          "type": "address"
        }
      ],
      "name": "validate_add_validator",
      "outputs": [],
      "stateMutability": "nonpayable",
      "type": "function"
    },
    {
      "inputs": [
        {
          "internalType": "uint128",
          "name": "action_id",
          "type": "uint128"
        }
      ],
      "name": "validate_pause_bridge",
      "outputs": [],
      "stateMutability": "nonpayable",
      "type": "function"
    },
    {
      "inputs": [
        {
          "internalType": "uint128",
          "name": "action_id",
          "type": "uint128"
        },
        {
          "internalType": "address",
          "name": "old_validator",
          "type": "address"
        }
      ],
      "name": "validate_remove_validator",
      "outputs": [],
      "stateMutability": "nonpayable",
      "type": "function"
    },
    {
      "inputs": [
        {
          "internalType": "uint128",
          "name": "action_id",
          "type": "uint128"
        },
        {
          "internalType": "uint16",
          "name": "new_threshold",
          "type": "uint16"
        }
      ],
      "name": "validate_set_threshold",
      "outputs": [],
      "stateMutability": "nonpayable",
      "type": "function"
    },
    {
      "inputs": [
        {
          "internalType": "uint128",
          "name": "action_id",
          "type": "uint128"
        },
        {
          "internalType": "uint64",
          "name": "chain_nonce",
          "type": "uint64"
        },
        {
          "internalType": "address",
          "name": "to",
          "type": "address"
        },
        {
          "internalType": "uint256",
          "name": "value",
          "type": "uint256"
        }
      ],
      "name": "validate_transfer",
      "outputs": [],
      "stateMutability": "nonpayable",
      "type": "function"
    },
    {
      "inputs": [
        {
          "internalType": "uint128",
          "name": "action_id",
          "type": "uint128"
        },
        {
          "internalType": "address",
          "name": "to",
          "type": "address"
        },
        {
          "internalType": "string",
          "name": "data",
          "type": "string"
        }
      ],
      "name": "validate_transfer_nft",
      "outputs": [
        {
          "internalType": "uint256",
          "name": "",
          "type": "uint256"
        }
      ],
      "stateMutability": "nonpayable",
      "type": "function"
    },
    {
      "inputs": [
        {
          "internalType": "uint128",
          "name": "action_id",
          "type": "uint128"
        },
        {
          "internalType": "address payable",
          "name": "to",
          "type": "address"
        },
        {
          "internalType": "uint256",
          "name": "value",
          "type": "uint256"
        }
      ],
      "name": "validate_unfreeze",
      "outputs": [],
      "stateMutability": "nonpayable",
      "type": "function"
    },
    {
      "inputs": [
        {
          "internalType": "uint128",
          "name": "action_id",
          "type": "uint128"
        },
        {
          "internalType": "address",
          "name": "to",
          "type": "address"
        },
        {
          "internalType": "uint256",
          "name": "tokenId",
          "type": "uint256"
        },
        {
          "internalType": "contract IERC721",
          "name": "contract_addr",
          "type": "address"
        }
      ],
      "name": "validate_unfreeze_nft",
      "outputs": [],
      "stateMutability": "nonpayable",
      "type": "function"
    },
    {
      "inputs": [
        {
          "internalType": "uint128",
          "name": "action_id",
          "type": "uint128"
        }
      ],
      "name": "validate_unpause_bridge",
      "outputs": [],
      "stateMutability": "nonpayable",
      "type": "function"
    },
    {
      "inputs": [
        {
          "internalType": "uint128",
          "name": "action_id",
          "type": "uint128"
        },
        {
          "internalType": "contract IERC721",
          "name": "contract_addr",
          "type": "address"
        }
      ],
      "name": "validate_whitelist_nft",
      "outputs": [],
      "stateMutability": "nonpayable",
      "type": "function"
    },
    {
      "inputs": [
        {
          "internalType": "uint128",
          "name": "action_id",
          "type": "uint128"
        }
      ],
      "name": "validate_withdraw_fees",
      "outputs": [],
      "stateMutability": "nonpayable",
      "type": "function"
    },
    {
      "inputs": [
        {
          "internalType": "uint64",
          "name": "chain_nonce",
          "type": "uint64"
        },
        {
          "internalType": "string",
          "name": "to",
          "type": "string"
        },
        {
          "internalType": "uint256",
          "name": "value",
          "type": "uint256"
        }
      ],
      "name": "withdraw",
      "outputs": [],
      "stateMutability": "payable",
      "type": "function"
    },
    {
      "inputs": [
        {
          "internalType": "string",
          "name": "to",
          "type": "string"
        },
        {
          "internalType": "uint256",
          "name": "id",
          "type": "uint256"
        }
      ],
      "name": "withdraw_nft",
      "outputs": [],
      "stateMutability": "payable",
      "type": "function"
    }
  ],
  "bytecode": "0x60806040526000600255600060035560006004553480156200002057600080fd5b5060405162004f5d38038062004f5d833981810160405281019062000046919062000566565b60008060006101000a81548160ff0219169083151502179055506000855111620000a7576040517f08c379a00000000000000000000000000000000000000000000000000000000081526004016200009e906200068a565b60405180910390fd5b60008361ffff16118015620000c1575084518361ffff1611155b62000103576040517f08c379a0000000000000000000000000000000000000000000000000000000008152600401620000fa9062000668565b60405180910390fd5b60005b855181101562000183576200016c8682815181106200014e577f4e487b7100000000000000000000000000000000000000000000000000000000600052603260045260246000fd5b60200260200101516007620002da60201b6200199f1790919060201c565b5080806200017a9062000802565b91505062000106565b5060005b84518110156200024157600260096000878481518110620001d1577f4e487b7100000000000000000000000000000000000000000000000000000000600052603260045260246000fd5b602002602001015173ffffffffffffffffffffffffffffffffffffffff1673ffffffffffffffffffffffffffffffffffffffff16815260200190815260200160002060006101000a81548160ff021916908360ff1602179055508080620002389062000802565b91505062000187565b508261ffff1660018190555081600560006101000a81548173ffffffffffffffffffffffffffffffffffffffff021916908373ffffffffffffffffffffffffffffffffffffffff16021790555080600660006101000a81548173ffffffffffffffffffffffffffffffffffffffff021916908373ffffffffffffffffffffffffffffffffffffffff160217905550505050505062000993565b60006200030a836000018373ffffffffffffffffffffffffffffffffffffffff1660001b6200031260201b60201c565b905092915050565b60006200032683836200038c60201b60201c565b6200038157826000018290806001815401808255809150506001900390600052602060002001600090919091909150558260000180549050836001016000848152602001908152602001600020819055506001905062000386565b600090505b92915050565b600080836001016000848152602001908152602001600020541415905092915050565b6000620003c6620003c084620006d5565b620006ac565b90508083825260208201905082856020860282011115620003e657600080fd5b60005b858110156200041a5781620003ff888262000499565b845260208401935060208301925050600181019050620003e9565b5050509392505050565b60006200043b620004358462000704565b620006ac565b905080838252602082019050828560208602820111156200045b57600080fd5b60005b858110156200048f57816200047488826200050a565b8452602084019350602083019250506001810190506200045e565b5050509392505050565b600081519050620004aa8162000911565b92915050565b600082601f830112620004c257600080fd5b8151620004d4848260208601620003af565b91505092915050565b600082601f830112620004ef57600080fd5b81516200050184826020860162000424565b91505092915050565b6000815190506200051b816200092b565b92915050565b600081519050620005328162000945565b92915050565b60008151905062000549816200095f565b92915050565b600081519050620005608162000979565b92915050565b600080600080600060a086880312156200057f57600080fd5b600086015167ffffffffffffffff8111156200059a57600080fd5b620005a888828901620004b0565b955050602086015167ffffffffffffffff811115620005c657600080fd5b620005d488828901620004dd565b9450506040620005e7888289016200054f565b9350506060620005fa8882890162000538565b92505060806200060d8882890162000521565b9150509295509295909350565b60006200062960128362000733565b91506200063682620008bf565b602082019050919050565b600062000650601d8362000733565b91506200065d82620008e8565b602082019050919050565b6000602082019050818103600083015262000683816200061a565b9050919050565b60006020820190508181036000830152620006a58162000641565b9050919050565b6000620006b8620006cb565b9050620006c68282620007cc565b919050565b6000604051905090565b600067ffffffffffffffff821115620006f357620006f26200087f565b5b602082029050602081019050919050565b600067ffffffffffffffff8211156200072257620007216200087f565b5b602082029050602081019050919050565b600082825260208201905092915050565b60006200075182620007a2565b9050919050565b6000620007658262000744565b9050919050565b6000620007798262000744565b9050919050565b60006200078d8262000744565b9050919050565b600061ffff82169050919050565b600073ffffffffffffffffffffffffffffffffffffffff82169050919050565b6000819050919050565b620007d782620008ae565b810181811067ffffffffffffffff82111715620007f957620007f86200087f565b5b80604052505050565b60006200080f82620007c2565b91507fffffffffffffffffffffffffffffffffffffffffffffffffffffffffffffffff82141562000845576200084462000850565b5b600182019050919050565b7f4e487b7100000000000000000000000000000000000000000000000000000000600052601160045260246000fd5b7f4e487b7100000000000000000000000000000000000000000000000000000000600052604160045260246000fd5b6000601f19601f8301169050919050565b7f696e76616c6964207468726573686f6c64210000000000000000000000000000600082015250565b7f56616c696461746f7273206d757374206e6f7420626520656d70747921000000600082015250565b6200091c8162000744565b81146200092857600080fd5b50565b620009368162000758565b81146200094257600080fd5b50565b62000950816200076c565b81146200095c57600080fd5b50565b6200096a8162000780565b81146200097657600080fd5b50565b620009848162000794565b81146200099057600080fd5b50565b6145ba80620009a36000396000f3fe6080604052600436106100fe5760003560e01c80636d0446d911610095578063daf1396411610064578063daf13964146102f2578063e2ef22171461031b578063ef1d0dec14610337578063f30f44a114610360578063f325c75414610389576100fe565b80636d0446d91461026857806372536d4f146102915780638b202d8f146102ba578063cff75c78146102d6576100fe565b8063453d7365116100d1578063453d7365146101ae578063519de490146101eb5780635c975abb146102145780635df93c7e1461023f576100fe565b80630d11f0a414610103578063128e66bd1461011f578063150b7a0214610148578063270c1cb414610185575b600080fd5b61011d60048036038101906101189190612f38565b6103b2565b005b34801561012b57600080fd5b5061014660048036038101906101419190612ffa565b61044e565b005b34801561015457600080fd5b5061016f600480360381019061016a9190612e3d565b6105b3565b60405161017c91906138ab565b60405180910390f35b34801561019157600080fd5b506101ac60048036038101906101a79190612fd1565b6105c7565b005b3480156101ba57600080fd5b506101d560048036038101906101d09190613085565b6106ba565b6040516101e29190613b54565b60405180910390f35b3480156101f757600080fd5b50610212600480360381019061020d9190612fd1565b610984565b005b34801561022057600080fd5b50610229610a76565b6040516102369190613890565b60405180910390f35b34801561024b57600080fd5b5061026660048036038101906102619190613036565b610a8c565b005b34801561027457600080fd5b5061028f600480360381019061028a9190612fd1565b610c27565b005b34801561029d57600080fd5b506102b860048036038101906102b391906130f1565b610cd2565b005b6102d460048036038101906102cf919061322f565b610f17565b005b6102f060048036038101906102eb919061329b565b610fb5565b005b3480156102fe57600080fd5b5061031960048036038101906103149190612ffa565b6110ce565b005b61033560048036038101906103309190612eb8565b61128c565b005b34801561034357600080fd5b5061035e600480360381019061035991906131cc565b611497565b005b34801561036c57600080fd5b5061038760048036038101906103829190613154565b611660565b005b34801561039557600080fd5b506103b060048036038101906103ab9190613190565b611848565b005b600034116103f5576040517f08c379a00000000000000000000000000000000000000000000000000000000081526004016103ec90613a26565b60405180910390fd5b6103fd610a76565b1561043d576040517f08c379a0000000000000000000000000000000000000000000000000000000008152600401610434906139c6565b60405180910390fd5b610449338484846119cf565b505050565b610456610a76565b15610496576040517f08c379a000000000000000000000000000000000000000000000000000000000815260040161048d906139c6565b60405180910390fd5b6104aa816007611d3090919063ffffffff16565b156104ea576040517f08c379a00000000000000000000000000000000000000000000000000000000081526004016104e1906139e6565b60405180910390fd5b6000816040516020016104fd91906137a8565b6040516020818303038152906040529050600061051c84600784611d60565b905060006001811115610558577f4e487b7100000000000000000000000000000000000000000000000000000000600052602160045260246000fd5b816001811115610591577f4e487b7100000000000000000000000000000000000000000000000000000000600052602160045260246000fd5b14156105ad576105ab83600761199f90919063ffffffff16565b505b50505050565b600063150b7a0260e01b9050949350505050565b6105cf610a76565b1561060f576040517f08c379a0000000000000000000000000000000000000000000000000000000008152600401610606906139c6565b60405180910390fd5b6000604051806020016040528060008152509050600061063183600584611d60565b90506000600181111561066d577f4e487b7100000000000000000000000000000000000000000000000000000000600052602160045260246000fd5b8160018111156106a6577f4e487b7100000000000000000000000000000000000000000000000000000000600052602160045260246000fd5b14156106b5576106b46124b1565b5b505050565b60006106c4610a76565b15610704576040517f08c379a00000000000000000000000000000000000000000000000000000000081526004016106fb906139c6565b60405180910390fd5b600060405180604001604052808673ffffffffffffffffffffffffffffffffffffffff16815260200185858080601f016020809104026020016040519081016040528093929190818152602001838380828437600081840152601f19601f820116905080830192505050505050508152506040516020016107859190613ae1565b604051602081830303815290604052905060006107a487600184611d60565b9050600060018111156107e0577f4e487b7100000000000000000000000000000000000000000000000000000000600052602160045260246000fd5b816001811115610819577f4e487b7100000000000000000000000000000000000000000000000000000000600052602160045260246000fd5b141561097557600560009054906101000a900473ffffffffffffffffffffffffffffffffffffffff1673ffffffffffffffffffffffffffffffffffffffff166340c10f19876003546040518363ffffffff1660e01b815260040161087e929190613830565b600060405180830381600087803b15801561089857600080fd5b505af11580156108ac573d6000803e3d6000fd5b50505050600560009054906101000a900473ffffffffffffffffffffffffffffffffffffffff1673ffffffffffffffffffffffffffffffffffffffff1663862440e260035487876040518463ffffffff1660e01b815260040161091193929190613b6f565b600060405180830381600087803b15801561092b57600080fd5b505af115801561093f573d6000803e3d6000fd5b505050506001600360008282546109569190613df8565b92505081905550600160035461096c9190613e7f565b9250505061097c565b6000925050505b949350505050565b61098c610a76565b6109cb576040517f08c379a00000000000000000000000000000000000000000000000000000000081526004016109c2906138e6565b60405180910390fd5b600060405180602001604052806000815250905060006109ed83600684611d60565b905060006001811115610a29577f4e487b7100000000000000000000000000000000000000000000000000000000600052602160045260246000fd5b816001811115610a62577f4e487b7100000000000000000000000000000000000000000000000000000000600052602160045260246000fd5b1415610a7157610a70612553565b5b505050565b60008060009054906101000a900460ff16905090565b610a94610a76565b15610ad4576040517f08c379a0000000000000000000000000000000000000000000000000000000008152600401610acb906139c6565b60405180910390fd5b600060405180604001604052808473ffffffffffffffffffffffffffffffffffffffff16815260200183815250604051602001610b119190613b03565b60405160208183030381529060405290506000610b3085600284611d60565b905060006001811115610b6c577f4e487b7100000000000000000000000000000000000000000000000000000000600052602160045260246000fd5b816001811115610ba5577f4e487b7100000000000000000000000000000000000000000000000000000000600052602160045260246000fd5b1415610c20578373ffffffffffffffffffffffffffffffffffffffff166108fc849081150290604051600060405180830381858888f19350505050610c1f576040517f08c379a0000000000000000000000000000000000000000000000000000000008152600401610c1690613a66565b60405180910390fd5b5b5050505050565b60006040518060200160405280600081525090506000610c4983600a84611d60565b905060006001811115610c85577f4e487b7100000000000000000000000000000000000000000000000000000000600052602160045260246000fd5b816001811115610cbe577f4e487b7100000000000000000000000000000000000000000000000000000000600052602160045260246000fd5b1415610ccd57610ccc6125f4565b5b505050565b610cda610a76565b15610d1a576040517f08c379a0000000000000000000000000000000000000000000000000000000008152600401610d11906139c6565b60405180910390fd5b6002600960008373ffffffffffffffffffffffffffffffffffffffff1673ffffffffffffffffffffffffffffffffffffffff16815260200190815260200160002060009054906101000a900460ff1660ff1614610dac576040517f08c379a0000000000000000000000000000000000000000000000000000000008152600401610da390613aa6565b60405180910390fd5b600060405180606001604052808573ffffffffffffffffffffffffffffffffffffffff1681526020018481526020018373ffffffffffffffffffffffffffffffffffffffff16815250604051602001610e059190613b1e565b60405160208183030381529060405290506000610e2486600384611d60565b905060006001811115610e60577f4e487b7100000000000000000000000000000000000000000000000000000000600052602160045260246000fd5b816001811115610e99577f4e487b7100000000000000000000000000000000000000000000000000000000600052602160045260246000fd5b1415610f0f578273ffffffffffffffffffffffffffffffffffffffff166342842e0e3087876040518463ffffffff1660e01b8152600401610edc939291906137f9565b600060405180830381600087803b158015610ef657600080fd5b505af1158015610f0a573d6000803e3d6000fd5b505050505b505050505050565b60003411610f5a576040517f08c379a0000000000000000000000000000000000000000000000000000000008152600401610f5190613a26565b60405180910390fd5b610f62610a76565b15610fa2576040517f08c379a0000000000000000000000000000000000000000000000000000000008152600401610f99906139c6565b60405180910390fd5b610faf33858585856126aa565b50505050565b610fbd610a76565b15610ffd576040517f08c379a0000000000000000000000000000000000000000000000000000000008152600401610ff4906139c6565b60405180910390fd5b80341161103f576040517f08c379a000000000000000000000000000000000000000000000000000000000815260040161103690613926565b60405180910390fd5b7f88f79205ab1c13838c5021687f6e6e5840f03604b240c4f7441a657029b346e46002548483346110709190613e7f565b8585604051611083959493929190613cea565b60405180910390a160016002600082825461109e9190613df8565b9250508190555080346110b19190613e7f565b600460008282546110c29190613df8565b92505081905550505050565b6110d6610a76565b15611116576040517f08c379a000000000000000000000000000000000000000000000000000000000815260040161110d906139c6565b60405180910390fd5b600161112260076127b8565b61112c9190613e7f565b6001541115611170576040517f08c379a000000000000000000000000000000000000000000000000000000000815260040161116790613966565b60405180910390fd5b611184816007611d3090919063ffffffff16565b6111c3576040517f08c379a00000000000000000000000000000000000000000000000000000000081526004016111ba906139a6565b60405180910390fd5b6000816040516020016111d691906137a8565b604051602081830303815290604052905060006111f584600884611d60565b905060006001811115611231577f4e487b7100000000000000000000000000000000000000000000000000000000600052602160045260246000fd5b81600181111561126a577f4e487b7100000000000000000000000000000000000000000000000000000000600052602160045260246000fd5b1415611286576112848360076127cd90919063ffffffff16565b505b50505050565b600034116112cf576040517f08c379a00000000000000000000000000000000000000000000000000000000081526004016112c690613a26565b60405180910390fd5b6112d7610a76565b15611317576040517f08c379a000000000000000000000000000000000000000000000000000000000815260040161130e906139c6565b60405180910390fd5b6002600960008773ffffffffffffffffffffffffffffffffffffffff1673ffffffffffffffffffffffffffffffffffffffff16815260200190815260200160002060009054906101000a900460ff1660ff16146113a9576040517f08c379a00000000000000000000000000000000000000000000000000000000081526004016113a090613a46565b60405180910390fd5b8473ffffffffffffffffffffffffffffffffffffffff166342842e0e3330876040518463ffffffff1660e01b81526004016113e6939291906137f9565b600060405180830381600087803b15801561140057600080fd5b505af1158015611414573d6000803e3d6000fd5b505050507fefd5d17615e8d78513f02fa7a2aab6ebdf2452857907b1293a10e321e9d5386b60025484348585898b6040516114559796959493929190613c80565b60405180910390a16001600260008282546114709190613df8565b9250508190555034600460008282546114899190613df8565b925050819055505050505050565b61149f610a76565b156114df576040517f08c379a00000000000000000000000000000000000000000000000000000000081526004016114d6906139c6565b60405180910390fd5b600060405180606001604052808567ffffffffffffffff1681526020018473ffffffffffffffffffffffffffffffffffffffff1681526020018381525060405160200161152c9190613ac6565b6040516020818303038152906040529050600061154b86600084611d60565b905060006001811115611587577f4e487b7100000000000000000000000000000000000000000000000000000000600052602160045260246000fd5b8160018111156115c0577f4e487b7100000000000000000000000000000000000000000000000000000000600052602160045260246000fd5b141561165857600660009054906101000a900473ffffffffffffffffffffffffffffffffffffffff1673ffffffffffffffffffffffffffffffffffffffff1663156e29f68587866040518463ffffffff1660e01b815260040161162593929190613859565b600060405180830381600087803b15801561163f57600080fd5b505af1158015611653573d6000803e3d6000fd5b505050505b505050505050565b611668610a76565b156116a8576040517f08c379a000000000000000000000000000000000000000000000000000000000815260040161169f906139c6565b60405180910390fd5b6002600960008373ffffffffffffffffffffffffffffffffffffffff1673ffffffffffffffffffffffffffffffffffffffff16815260200190815260200160002060009054906101000a900460ff1660ff16141561173b576040517f08c379a000000000000000000000000000000000000000000000000000000000815260040161173290613a06565b60405180910390fd5b60008160405160200161174e91906137a8565b6040516020818303038152906040529050600061176d84600484611d60565b9050600060018111156117a9577f4e487b7100000000000000000000000000000000000000000000000000000000600052602160045260246000fd5b8160018111156117e2577f4e487b7100000000000000000000000000000000000000000000000000000000600052602160045260246000fd5b1415611842576002600960008573ffffffffffffffffffffffffffffffffffffffff1673ffffffffffffffffffffffffffffffffffffffff16815260200190815260200160002060006101000a81548160ff021916908360ff1602179055505b50505050565b611850610a76565b15611890576040517f08c379a0000000000000000000000000000000000000000000000000000000008152600401611887906139c6565b60405180910390fd5b61189a60076127b8565b8161ffff1611156118e0576040517f08c379a00000000000000000000000000000000000000000000000000000000081526004016118d790613986565b60405180910390fd5b6000816040516020016118f391906137c3565b6040516020818303038152906040529050600061191284600984611d60565b90506000600181111561194e577f4e487b7100000000000000000000000000000000000000000000000000000000600052602160045260246000fd5b816001811115611987577f4e487b7100000000000000000000000000000000000000000000000000000000600052602160045260246000fd5b1415611999578261ffff166001819055505b50505050565b60006119c7836000018373ffffffffffffffffffffffffffffffffffffffff1660001b6127fd565b905092915050565b8373ffffffffffffffffffffffffffffffffffffffff16600560009054906101000a900473ffffffffffffffffffffffffffffffffffffffff1673ffffffffffffffffffffffffffffffffffffffff16636352211e836040518263ffffffff1660e01b8152600401611a419190613b54565b60206040518083038186803b158015611a5957600080fd5b505afa158015611a6d573d6000803e3d6000fd5b505050506040513d601f19601f82011682018060405250810190611a919190612e14565b73ffffffffffffffffffffffffffffffffffffffff1614611ae7576040517f08c379a0000000000000000000000000000000000000000000000000000000008152600401611ade90613a86565b60405180910390fd5b6000600560009054906101000a900473ffffffffffffffffffffffffffffffffffffffff1673ffffffffffffffffffffffffffffffffffffffff1663c87b56dd836040518263ffffffff1660e01b8152600401611b449190613b54565b60006040518083038186803b158015611b5c57600080fd5b505afa158015611b70573d6000803e3d6000fd5b505050506040513d6000823e3d601f19601f82011682018060405250810190611b999190612f90565b9050600560009054906101000a900473ffffffffffffffffffffffffffffffffffffffff1673ffffffffffffffffffffffffffffffffffffffff1663862440e2836040518263ffffffff1660e01b8152600401611bf69190613ba1565b600060405180830381600087803b158015611c1057600080fd5b505af1158015611c24573d6000803e3d6000fd5b50505050600560009054906101000a900473ffffffffffffffffffffffffffffffffffffffff1673ffffffffffffffffffffffffffffffffffffffff166342966c68836040518263ffffffff1660e01b8152600401611c839190613b54565b600060405180830381600087803b158015611c9d57600080fd5b505af1158015611cb1573d6000803e3d6000fd5b505050507f9fa54a915c5d5d5ff39f445ca7c4b9bce03cbaf401223dbd10d1079fcdd0b56660025434868685604051611cee959493929190613bcf565b60405180910390a1600160026000828254611d099190613df8565b925050819055503460046000828254611d229190613df8565b925050819055505050505050565b6000611d58836000018373ffffffffffffffffffffffffffffffffffffffff1660001b61286d565b905092915050565b6000611d76336007611d3090919063ffffffff16565b611db5576040517f08c379a0000000000000000000000000000000000000000000000000000000008152600401611dac906138c6565b60405180910390fd5b6000600a6000866fffffffffffffffffffffffffffffffff166fffffffffffffffffffffffffffffffff168152602001908152602001600020600201541415611f1957604051806080016040528084600a811115611e3c577f4e487b7100000000000000000000000000000000000000000000000000000000600052602160045260246000fd5b8152602001838152602001600181526020016001815250600a6000866fffffffffffffffffffffffffffffffff166fffffffffffffffffffffffffffffffff16815260200190815260200160002060008201518160000160006101000a81548160ff0219169083600a811115611edb577f4e487b7100000000000000000000000000000000000000000000000000000000600052602160045260246000fd5b02179055506020820151816001019080519060200190611efc929190612b07565b506040820151816002015560608201518160030155905050612293565b6002600b6000866fffffffffffffffffffffffffffffffff166fffffffffffffffffffffffffffffffff16815260200190815260200160002060003373ffffffffffffffffffffffffffffffffffffffff1673ffffffffffffffffffffffffffffffffffffffff16815260200190815260200160002060009054906101000a900460ff1660ff161415611fe1576040517f08c379a0000000000000000000000000000000000000000000000000000000008152600401611fd890613946565b60405180910390fd5b6001600a6000866fffffffffffffffffffffffffffffffff166fffffffffffffffffffffffffffffffff168152602001908152602001600020600301600082825461202c9190613df8565b9250508190555082600a81111561206c577f4e487b7100000000000000000000000000000000000000000000000000000000600052602160045260246000fd5b600a6000866fffffffffffffffffffffffffffffffff166fffffffffffffffffffffffffffffffff16815260200190815260200160002060000160009054906101000a900460ff16600a8111156120ec577f4e487b7100000000000000000000000000000000000000000000000000000000600052602160045260246000fd5b1461212c576040517f08c379a000000000000000000000000000000000000000000000000000000000815260040161212390613906565b60405180910390fd5b61220182600a6000876fffffffffffffffffffffffffffffffff166fffffffffffffffffffffffffffffffff168152602001908152602001600020600101805461217590613fef565b80601f01602080910402602001604051908101604052809291908181526020018280546121a190613fef565b80156121ee5780601f106121c3576101008083540402835291602001916121ee565b820191906000526020600020905b8154815290600101906020018083116121d157829003601f168201915b505050505061289090919063ffffffff16565b612240576040517f08c379a000000000000000000000000000000000000000000000000000000000815260040161223790613906565b60405180910390fd5b6001600a6000866fffffffffffffffffffffffffffffffff166fffffffffffffffffffffffffffffffff168152602001908152602001600020600201600082825461228b9190613df8565b925050819055505b6002600b6000866fffffffffffffffffffffffffffffffff166fffffffffffffffffffffffffffffffff16815260200190815260200160002060003373ffffffffffffffffffffffffffffffffffffffff1673ffffffffffffffffffffffffffffffffffffffff16815260200190815260200160002060006101000a81548160ff021916908360ff160217905550600060019050600154600a6000876fffffffffffffffffffffffffffffffff166fffffffffffffffffffffffffffffffff16815260200190815260200160002060020154141561237057600090505b61237a60076127b8565b600a6000876fffffffffffffffffffffffffffffffff166fffffffffffffffffffffffffffffffff1681526020019081526020016000206003015414156124a657600a6000866fffffffffffffffffffffffffffffffff166fffffffffffffffffffffffffffffffff168152602001908152602001600020600080820160006101000a81549060ff02191690556001820160006124179190612b8d565b600282016000905560038201600090555050600154600a6000876fffffffffffffffffffffffffffffffff166fffffffffffffffffffffffffffffffff1681526020019081526020016000206002015410156124a5577fe22e1372cd6c9720ae7fc7854536a963d13d9996efde6038cbcecac7ff182e078560405161249c9190613b39565b60405180910390a15b5b809150509392505050565b6124b9610a76565b156124f9576040517f08c379a00000000000000000000000000000000000000000000000000000000081526004016124f0906139c6565b60405180910390fd5b60016000806101000a81548160ff0219169083151502179055507f62e78cea01bee320cd4e420270b5ea74000d11b0c9f74754ebdbfc544b05a25861253c6128fd565b60405161254991906137de565b60405180910390a1565b61255b610a76565b61259a576040517f08c379a0000000000000000000000000000000000000000000000000000000008152600401612591906138e6565b60405180910390fd5b60008060006101000a81548160ff0219169083151502179055507f5db9ee0a495bf2e6ff9c91a7834c1ba4fdd244a5e8aa4e537bd38aeae4b073aa6125dd6128fd565b6040516125ea91906137de565b60405180910390a1565b600061260060076127b8565b90506000816004546126129190613e4e565b905060005b828110156126a55761263381600761290590919063ffffffff16565b73ffffffffffffffffffffffffffffffffffffffff166108fc839081150290604051600060405180830381858888f19350505050158015612678573d6000803e3d6000fd5b50816004600082825461268b9190613e7f565b92505081905550808061269d90614052565b915050612617565b505050565b600660009054906101000a900473ffffffffffffffffffffffffffffffffffffffff1673ffffffffffffffffffffffffffffffffffffffff1663f5298aca8686846040518463ffffffff1660e01b815260040161270993929190613859565b600060405180830381600087803b15801561272357600080fd5b505af1158015612737573d6000803e3d6000fd5b505050507f135c92cfa1cfe8e46534cd8748b74ee2505948ac3023824a91dc57ffda5f5b4c600254853486868660405161277696959493929190613c24565b60405180910390a16001600260008282546127919190613df8565b9250508190555034600460008282546127aa9190613df8565b925050819055505050505050565b60006127c68260000161291f565b9050919050565b60006127f5836000018373ffffffffffffffffffffffffffffffffffffffff1660001b612930565b905092915050565b6000612809838361286d565b612862578260000182908060018154018082558091505060019003906000526020600020016000909190919091505582600001805490508360010160008481526020019081526020016000208190555060019050612867565b600090505b92915050565b600080836001016000848152602001908152602001600020541415905092915050565b60008060019050835183518114600181146128ae57600092506128f1565b600160208701838101602088015b6002848385100114156128ec5780518351146128db5760009650600093505b6020830192506020810190506128bc565b505050505b50508091505092915050565b600033905090565b60006129148360000183612ab6565b60001c905092915050565b600081600001805490509050919050565b60008083600101600084815260200190815260200160002054905060008114612aaa5760006001826129629190613e7f565b905060006001866000018054905061297a9190613e7f565b9050818114612a355760008660000182815481106129c1577f4e487b7100000000000000000000000000000000000000000000000000000000600052603260045260246000fd5b9060005260206000200154905080876000018481548110612a0b577f4e487b7100000000000000000000000000000000000000000000000000000000600052603260045260246000fd5b90600052602060002001819055508387600101600083815260200190815260200160002081905550505b85600001805480612a6f577f4e487b7100000000000000000000000000000000000000000000000000000000600052603160045260246000fd5b600190038181906000526020600020016000905590558560010160008681526020019081526020016000206000905560019350505050612ab0565b60009150505b92915050565b6000826000018281548110612af4577f4e487b7100000000000000000000000000000000000000000000000000000000600052603260045260246000fd5b9060005260206000200154905092915050565b828054612b1390613fef565b90600052602060002090601f016020900481019282612b355760008555612b7c565b82601f10612b4e57805160ff1916838001178555612b7c565b82800160010185558215612b7c579182015b82811115612b7b578251825591602001919060010190612b60565b5b509050612b899190612bcd565b5090565b508054612b9990613fef565b6000825580601f10612bab5750612bca565b601f016020900490600052602060002090810190612bc99190612bcd565b5b50565b5b80821115612be6576000816000905550600101612bce565b5090565b6000612bfd612bf884613d69565b613d44565b905082815260208101848484011115612c1557600080fd5b612c20848285613fad565b509392505050565b6000612c3b612c3684613d9a565b613d44565b905082815260208101848484011115612c5357600080fd5b612c5e848285613fad565b509392505050565b6000612c79612c7484613d9a565b613d44565b905082815260208101848484011115612c9157600080fd5b612c9c848285613fbc565b509392505050565b600081359050612cb3816144e3565b92915050565b600081519050612cc8816144e3565b92915050565b600081359050612cdd816144fa565b92915050565b600082601f830112612cf457600080fd5b8135612d04848260208601612bea565b91505092915050565b600081359050612d1c81614511565b92915050565b60008083601f840112612d3457600080fd5b8235905067ffffffffffffffff811115612d4d57600080fd5b602083019150836001820283011115612d6557600080fd5b9250929050565b600082601f830112612d7d57600080fd5b8135612d8d848260208601612c28565b91505092915050565b600082601f830112612da757600080fd5b8151612db7848260208601612c66565b91505092915050565b600081359050612dcf81614528565b92915050565b600081359050612de48161453f565b92915050565b600081359050612df981614556565b92915050565b600081359050612e0e8161456d565b92915050565b600060208284031215612e2657600080fd5b6000612e3484828501612cb9565b91505092915050565b60008060008060808587031215612e5357600080fd5b6000612e6187828801612ca4565b9450506020612e7287828801612ca4565b9350506040612e8387828801612dea565b925050606085013567ffffffffffffffff811115612ea057600080fd5b612eac87828801612ce3565b91505092959194509250565b600080600080600060808688031215612ed057600080fd5b6000612ede88828901612d0d565b9550506020612eef88828901612dea565b9450506040612f0088828901612dff565b935050606086013567ffffffffffffffff811115612f1d57600080fd5b612f2988828901612d22565b92509250509295509295909350565b600080600060408486031215612f4d57600080fd5b600084013567ffffffffffffffff811115612f6757600080fd5b612f7386828701612d22565b93509350506020612f8686828701612dea565b9150509250925092565b600060208284031215612fa257600080fd5b600082015167ffffffffffffffff811115612fbc57600080fd5b612fc884828501612d96565b91505092915050565b600060208284031215612fe357600080fd5b6000612ff184828501612dc0565b91505092915050565b6000806040838503121561300d57600080fd5b600061301b85828601612dc0565b925050602061302c85828601612ca4565b9150509250929050565b60008060006060848603121561304b57600080fd5b600061305986828701612dc0565b935050602061306a86828701612cce565b925050604061307b86828701612dea565b9150509250925092565b6000806000806060858703121561309b57600080fd5b60006130a987828801612dc0565b94505060206130ba87828801612ca4565b935050604085013567ffffffffffffffff8111156130d757600080fd5b6130e387828801612d22565b925092505092959194509250565b6000806000806080858703121561310757600080fd5b600061311587828801612dc0565b945050602061312687828801612ca4565b935050604061313787828801612dea565b925050606061314887828801612d0d565b91505092959194509250565b6000806040838503121561316757600080fd5b600061317585828601612dc0565b925050602061318685828601612d0d565b9150509250929050565b600080604083850312156131a357600080fd5b60006131b185828601612dc0565b92505060206131c285828601612dd5565b9150509250929050565b600080600080608085870312156131e257600080fd5b60006131f087828801612dc0565b945050602061320187828801612dff565b935050604061321287828801612ca4565b925050606061322387828801612dea565b91505092959194509250565b6000806000806060858703121561324557600080fd5b600061325387828801612dff565b945050602085013567ffffffffffffffff81111561327057600080fd5b61327c87828801612d22565b9350935050604061328f87828801612dea565b91505092959194509250565b6000806000606084860312156132b057600080fd5b60006132be86828701612dff565b935050602084013567ffffffffffffffff8111156132db57600080fd5b6132e786828701612d6c565b92505060406132f886828701612dea565b9150509250925092565b61330b81613eb3565b82525050565b61331a81613eb3565b82525050565b61333161332c82613eb3565b61409b565b82525050565b61334081613ed7565b82525050565b61334f81613ee3565b82525050565b60006133618385613de7565b935061336e838584613fad565b6133778361418d565b840190509392505050565b600061338d82613dcb565b6133978185613dd6565b93506133a7818560208601613fbc565b6133b08161418d565b840191505092915050565b60006133c682613dcb565b6133d08185613de7565b93506133e0818560208601613fbc565b6133e98161418d565b840191505092915050565b6000613401601083613de7565b915061340c826141b8565b602082019050919050565b6000613424601483613de7565b915061342f826141e1565b602082019050919050565b6000613447600f83613de7565b91506134528261420a565b602082019050919050565b600061346a602983613de7565b915061347582614233565b604082019050919050565b600061348d601483613de7565b915061349882614282565b602082019050919050565b60006134b0603483613de7565b91506134bb826142ab565b604082019050919050565b60006134d3602783613de7565b91506134de826142fa565b604082019050919050565b60006134f6602083613de7565b915061350182614349565b602082019050919050565b6000613519601083613de7565b915061352482614372565b602082019050919050565b600061353c601383613de7565b91506135478261439b565b602082019050919050565b600061355f601783613de7565b915061356a826143c4565b602082019050919050565b6000613582601483613de7565b915061358d826143ed565b602082019050919050565b60006135a5602483613de7565b91506135b082614416565b604082019050919050565b60006135c8601483613de7565b91506135d382614465565b602082019050919050565b60006135eb601783613de7565b91506135f68261448e565b602082019050919050565b600061360e600083613de7565b9150613619826144b7565b600082019050919050565b6000613631601583613de7565b915061363c826144ba565b602082019050919050565b60608201600082015161365d600085018261378a565b5060208201516136706020850182613302565b506040820151613683604085018261375d565b50505050565b60006040830160008301516136a16000860182613302565b50602083015184820360208601526136b98282613382565b9150508091505092915050565b6040820160008201516136dc6000850182613302565b5060208201516136ef602085018261375d565b50505050565b60608201600082015161370b6000850182613302565b50602082015161371e602085018261375d565b5060408201516137316040850182613302565b50505050565b61374081613f89565b82525050565b61375761375282613f3d565b6140ad565b82525050565b61376681613f6b565b82525050565b61377581613f6b565b82525050565b61378481613f9b565b82525050565b61379381613f75565b82525050565b6137a281613f75565b82525050565b60006137b48284613320565b60148201915081905092915050565b60006137cf8284613746565b60028201915081905092915050565b60006020820190506137f36000830184613311565b92915050565b600060608201905061380e6000830186613311565b61381b6020830185613311565b613828604083018461376c565b949350505050565b60006040820190506138456000830185613311565b613852602083018461376c565b9392505050565b600060608201905061386e6000830186613311565b61387b602083018561377b565b613888604083018461376c565b949350505050565b60006020820190506138a56000830184613337565b92915050565b60006020820190506138c06000830184613346565b92915050565b600060208201905081810360008301526138df816133f4565b9050919050565b600060208201905081810360008301526138ff81613417565b9050919050565b6000602082019050818103600083015261391f8161343a565b9050919050565b6000602082019050818103600083015261393f8161345d565b9050919050565b6000602082019050818103600083015261395f81613480565b9050919050565b6000602082019050818103600083015261397f816134a3565b9050919050565b6000602082019050818103600083015261399f816134c6565b9050919050565b600060208201905081810360008301526139bf816134e9565b9050919050565b600060208201905081810360008301526139df8161350c565b9050919050565b600060208201905081810360008301526139ff8161352f565b9050919050565b60006020820190508181036000830152613a1f81613552565b9050919050565b60006020820190508181036000830152613a3f81613575565b9050919050565b60006020820190508181036000830152613a5f81613598565b9050919050565b60006020820190508181036000830152613a7f816135bb565b9050919050565b60006020820190508181036000830152613a9f816135de565b9050919050565b60006020820190508181036000830152613abf81613624565b9050919050565b6000606082019050613adb6000830184613647565b92915050565b60006020820190508181036000830152613afb8184613689565b905092915050565b6000604082019050613b1860008301846136c6565b92915050565b6000606082019050613b3360008301846136f5565b92915050565b6000602082019050613b4e6000830184613737565b92915050565b6000602082019050613b69600083018461376c565b92915050565b6000604082019050613b84600083018661376c565b8181036020830152613b97818486613355565b9050949350505050565b6000604082019050613bb6600083018461376c565b8181036020830152613bc781613601565b905092915050565b6000608082019050613be4600083018861376c565b613bf1602083018761376c565b8181036040830152613c04818587613355565b90508181036060830152613c1881846133bb565b90509695505050505050565b600060a082019050613c39600083018961376c565b613c466020830188613799565b613c53604083018761376c565b8181036060830152613c66818587613355565b9050613c75608083018461376c565b979650505050505050565b600060c082019050613c95600083018a61376c565b613ca26020830189613799565b613caf604083018861376c565b8181036060830152613cc2818688613355565b9050613cd1608083018561376c565b613cde60a0830184613311565b98975050505050505050565b600060a082019050613cff600083018861376c565b613d0c6020830187613799565b613d19604083018661376c565b8181036060830152613d2b81856133bb565b9050613d3a608083018461376c565b9695505050505050565b6000613d4e613d5f565b9050613d5a8282614021565b919050565b6000604051905090565b600067ffffffffffffffff821115613d8457613d8361415e565b5b613d8d8261418d565b9050602081019050919050565b600067ffffffffffffffff821115613db557613db461415e565b5b613dbe8261418d565b9050602081019050919050565b600081519050919050565b600082825260208201905092915050565b600082825260208201905092915050565b6000613e0382613f6b565b9150613e0e83613f6b565b9250827fffffffffffffffffffffffffffffffffffffffffffffffffffffffffffffffff03821115613e4357613e426140d1565b5b828201905092915050565b6000613e5982613f6b565b9150613e6483613f6b565b925082613e7457613e73614100565b5b828204905092915050565b6000613e8a82613f6b565b9150613e9583613f6b565b925082821015613ea857613ea76140d1565b5b828203905092915050565b6000613ebe82613f4b565b9050919050565b6000613ed082613f4b565b9050919050565b60008115159050919050565b60007fffffffff0000000000000000000000000000000000000000000000000000000082169050919050565b6000613f1a82613eb3565b9050919050565b60006fffffffffffffffffffffffffffffffff82169050919050565b600061ffff82169050919050565b600073ffffffffffffffffffffffffffffffffffffffff82169050919050565b6000819050919050565b600067ffffffffffffffff82169050919050565b6000613f9482613f21565b9050919050565b6000613fa682613f75565b9050919050565b82818337600083830152505050565b60005b83811015613fda578082015181840152602081019050613fbf565b83811115613fe9576000848401525b50505050565b6000600282049050600182168061400757607f821691505b6020821081141561401b5761401a61412f565b5b50919050565b61402a8261418d565b810181811067ffffffffffffffff821117156140495761404861415e565b5b80604052505050565b600061405d82613f6b565b91507fffffffffffffffffffffffffffffffffffffffffffffffffffffffffffffffff8214156140905761408f6140d1565b5b600182019050919050565b60006140a6826140bf565b9050919050565b60006140b88261419e565b9050919050565b60006140ca826141ab565b9050919050565b7f4e487b7100000000000000000000000000000000000000000000000000000000600052601160045260246000fd5b7f4e487b7100000000000000000000000000000000000000000000000000000000600052601260045260246000fd5b7f4e487b7100000000000000000000000000000000000000000000000000000000600052602260045260246000fd5b7f4e487b7100000000000000000000000000000000000000000000000000000000600052604160045260246000fd5b6000601f19601f8301169050919050565b60008160f01b9050919050565b60008160601b9050919050565b7f4e6f7420612076616c696461746f722100000000000000000000000000000000600082015250565b7f5061757361626c653a206e6f7420706175736564000000000000000000000000600082015250565b7f416374696f6e204d69736d617463680000000000000000000000000000000000600082015250565b7f6d7573742070617920626f74682076616c756520616e64207472616e7361637460008201527f696f6e2066656573210000000000000000000000000000000000000000000000602082015250565b7f4475706c69636174652056616c696461746f7221000000000000000000000000600082015250565b7f75706461746520746865207468726573686f6c64206265666f72652072656d6f60008201527f76696e6720746869732076616c696461746f7221000000000000000000000000602082015250565b7f76616c696461746f7273206d757374206265203c3d2076616c696461746f727360008201527f206c656e67746800000000000000000000000000000000000000000000000000602082015250565b7f676976656e2061646472657373206973206e6f7420612076616c696461746f72600082015250565b7f5061757361626c653a2070617573656400000000000000000000000000000000600082015250565b7f616c726561647920612076616c696461746f7200000000000000000000000000600082015250565b7f4e465420616c72656164792077686974656c6973746564000000000000000000600082015250565b7f5478204665657320697320726571756972656421000000000000000000000000600082015250565b7f54686973204e465420636f6e7472616374206973206e6f742077686974656c6960008201527f7374656400000000000000000000000000000000000000000000000000000000602082015250565b7f4641494c454420544f205452414e534645523f21000000000000000000000000600082015250565b7f596f7520646f6e2774206f776e2074686973206e667421000000000000000000600082015250565b50565b7f4e4654206e6f742077686974656c69737465643f210000000000000000000000600082015250565b6144ec81613eb3565b81146144f757600080fd5b50565b61450381613ec5565b811461450e57600080fd5b50565b61451a81613f0f565b811461452557600080fd5b50565b61453181613f21565b811461453c57600080fd5b50565b61454881613f3d565b811461455357600080fd5b50565b61455f81613f6b565b811461456a57600080fd5b50565b61457681613f75565b811461458157600080fd5b5056fea2646970667358221220a659c1fdb7743f7a286cb8aef43425cab05c2f792ea5465274023c94e5d4bdad64736f6c63430008040033",
  "linkReferences": {},
  "deployedLinkReferences": {}
}