{
  "_format": "hh-sol-artifact-1",
  "contractName": "XPNet",
  "sourceName": "contracts/XPNet.sol",
  "abi": [
    {
      "inputs": [],
      "stateMutability": "nonpayable",
      "type": "constructor"
    },
    {
      "anonymous": false,
      "inputs": [
        {
          "indexed": true,
          "internalType": "address",
          "name": "account",
          "type": "address"
        },
        {
          "indexed": true,
          "internalType": "address",
          "name": "operator",
          "type": "address"
        },
        {
          "indexed": false,
          "internalType": "bool",
          "name": "approved",
          "type": "bool"
        }
      ],
      "name": "ApprovalForAll",
      "type": "event"
    },
    {
      "anonymous": false,
      "inputs": [
        {
          "indexed": true,
          "internalType": "address",
          "name": "previousOwner",
          "type": "address"
        },
        {
          "indexed": true,
          "internalType": "address",
          "name": "newOwner",
          "type": "address"
        }
      ],
      "name": "OwnershipTransferred",
      "type": "event"
    },
    {
      "anonymous": false,
      "inputs": [
        {
          "indexed": true,
          "internalType": "address",
          "name": "operator",
          "type": "address"
        },
        {
          "indexed": true,
          "internalType": "address",
          "name": "from",
          "type": "address"
        },
        {
          "indexed": true,
          "internalType": "address",
          "name": "to",
          "type": "address"
        },
        {
          "indexed": false,
          "internalType": "uint256[]",
          "name": "ids",
          "type": "uint256[]"
        },
        {
          "indexed": false,
          "internalType": "uint256[]",
          "name": "values",
          "type": "uint256[]"
        }
      ],
      "name": "TransferBatch",
      "type": "event"
    },
    {
      "anonymous": false,
      "inputs": [
        {
          "indexed": true,
          "internalType": "address",
          "name": "operator",
          "type": "address"
        },
        {
          "indexed": true,
          "internalType": "address",
          "name": "from",
          "type": "address"
        },
        {
          "indexed": true,
          "internalType": "address",
          "name": "to",
          "type": "address"
        },
        {
          "indexed": false,
          "internalType": "uint256",
          "name": "id",
          "type": "uint256"
        },
        {
          "indexed": false,
          "internalType": "uint256",
          "name": "value",
          "type": "uint256"
        }
      ],
      "name": "TransferSingle",
      "type": "event"
    },
    {
      "anonymous": false,
      "inputs": [
        {
          "indexed": false,
          "internalType": "string",
          "name": "value",
          "type": "string"
        },
        {
          "indexed": true,
          "internalType": "uint256",
          "name": "id",
          "type": "uint256"
        }
      ],
      "name": "URI",
      "type": "event"
    },
    {
      "inputs": [
        {
          "internalType": "address",
          "name": "account",
          "type": "address"
        },
        {
          "internalType": "uint256",
          "name": "id",
          "type": "uint256"
        }
      ],
      "name": "balanceOf",
      "outputs": [
        {
          "internalType": "uint256",
          "name": "",
          "type": "uint256"
        }
      ],
      "stateMutability": "view",
      "type": "function"
    },
    {
      "inputs": [
        {
          "internalType": "address[]",
          "name": "accounts",
          "type": "address[]"
        },
        {
          "internalType": "uint256[]",
          "name": "ids",
          "type": "uint256[]"
        }
      ],
      "name": "balanceOfBatch",
      "outputs": [
        {
          "internalType": "uint256[]",
          "name": "",
          "type": "uint256[]"
        }
      ],
      "stateMutability": "view",
      "type": "function"
    },
    {
      "inputs": [
        {
          "internalType": "address",
          "name": "from",
          "type": "address"
        },
        {
          "internalType": "uint256",
          "name": "id",
          "type": "uint256"
        },
        {
          "internalType": "uint256",
          "name": "amount",
          "type": "uint256"
        }
      ],
      "name": "burn",
      "outputs": [],
      "stateMutability": "nonpayable",
      "type": "function"
    },
    {
      "inputs": [
        {
          "internalType": "address",
          "name": "account",
          "type": "address"
        },
        {
          "internalType": "address",
          "name": "operator",
          "type": "address"
        }
      ],
      "name": "isApprovedForAll",
      "outputs": [
        {
          "internalType": "bool",
          "name": "",
          "type": "bool"
        }
      ],
      "stateMutability": "view",
      "type": "function"
    },
    {
      "inputs": [
        {
          "internalType": "address",
          "name": "to",
          "type": "address"
        },
        {
          "internalType": "uint256",
          "name": "id",
          "type": "uint256"
        },
        {
          "internalType": "uint256",
          "name": "amount",
          "type": "uint256"
        }
      ],
      "name": "mint",
      "outputs": [],
      "stateMutability": "nonpayable",
      "type": "function"
    },
    {
      "inputs": [],
      "name": "owner",
      "outputs": [
        {
          "internalType": "address",
          "name": "",
          "type": "address"
        }
      ],
      "stateMutability": "view",
      "type": "function"
    },
    {
      "inputs": [],
      "name": "renounceOwnership",
      "outputs": [],
      "stateMutability": "nonpayable",
      "type": "function"
    },
    {
      "inputs": [
        {
          "internalType": "address",
          "name": "from",
          "type": "address"
        },
        {
          "internalType": "address",
          "name": "to",
          "type": "address"
        },
        {
          "internalType": "uint256[]",
          "name": "ids",
          "type": "uint256[]"
        },
        {
          "internalType": "uint256[]",
          "name": "amounts",
          "type": "uint256[]"
        },
        {
          "internalType": "bytes",
          "name": "data",
          "type": "bytes"
        }
      ],
      "name": "safeBatchTransferFrom",
      "outputs": [],
      "stateMutability": "nonpayable",
      "type": "function"
    },
    {
      "inputs": [
        {
          "internalType": "address",
          "name": "from",
          "type": "address"
        },
        {
          "internalType": "address",
          "name": "to",
          "type": "address"
        },
        {
          "internalType": "uint256",
          "name": "id",
          "type": "uint256"
        },
        {
          "internalType": "uint256",
          "name": "amount",
          "type": "uint256"
        },
        {
          "internalType": "bytes",
          "name": "data",
          "type": "bytes"
        }
      ],
      "name": "safeTransferFrom",
      "outputs": [],
      "stateMutability": "nonpayable",
      "type": "function"
    },
    {
      "inputs": [
        {
          "internalType": "address",
          "name": "operator",
          "type": "address"
        },
        {
          "internalType": "bool",
          "name": "approved",
          "type": "bool"
        }
      ],
      "name": "setApprovalForAll",
      "outputs": [],
      "stateMutability": "nonpayable",
      "type": "function"
    },
    {
      "inputs": [
        {
          "internalType": "uint256",
          "name": "id",
          "type": "uint256"
        },
        {
          "internalType": "string",
          "name": "uri_",
          "type": "string"
        }
      ],
      "name": "setURI",
      "outputs": [],
      "stateMutability": "nonpayable",
      "type": "function"
    },
    {
      "inputs": [
        {
          "internalType": "bytes4",
          "name": "interfaceId",
          "type": "bytes4"
        }
      ],
      "name": "supportsInterface",
      "outputs": [
        {
          "internalType": "bool",
          "name": "",
          "type": "bool"
        }
      ],
      "stateMutability": "view",
      "type": "function"
    },
    {
      "inputs": [
        {
          "internalType": "address",
          "name": "newOwner",
          "type": "address"
        }
      ],
      "name": "transferOwnership",
      "outputs": [],
      "stateMutability": "nonpayable",
      "type": "function"
    },
    {
      "inputs": [
        {
          "internalType": "uint256",
          "name": "id",
          "type": "uint256"
        }
      ],
      "name": "uri",
      "outputs": [
        {
          "internalType": "string",
          "name": "",
          "type": "string"
        }
      ],
      "stateMutability": "view",
      "type": "function"
    }
  ],
  "bytecode": "0x60806040523480156200001157600080fd5b506040518060200160405280600081525062000033816200005a60201b60201c565b5062000054620000486200007660201b60201c565b6200007e60201b60201c565b62000259565b80600290805190602001906200007292919062000144565b5050565b600033905090565b6000600360009054906101000a900473ffffffffffffffffffffffffffffffffffffffff16905081600360006101000a81548173ffffffffffffffffffffffffffffffffffffffff021916908373ffffffffffffffffffffffffffffffffffffffff1602179055508173ffffffffffffffffffffffffffffffffffffffff168173ffffffffffffffffffffffffffffffffffffffff167f8be0079c531659141344cd1fd0a4f28419497f9722a3daafe3b4186f6b6457e060405160405180910390a35050565b8280546200015290620001f4565b90600052602060002090601f016020900481019282620001765760008555620001c2565b82601f106200019157805160ff1916838001178555620001c2565b82800160010185558215620001c2579182015b82811115620001c1578251825591602001919060010190620001a4565b5b509050620001d19190620001d5565b5090565b5b80821115620001f0576000816000905550600101620001d6565b5090565b600060028204905060018216806200020d57607f821691505b602082108114156200022457620002236200022a565b5b50919050565b7f4e487b7100000000000000000000000000000000000000000000000000000000600052602260045260246000fd5b6133c680620002696000396000f3fe608060405234801561001057600080fd5b50600436106100e95760003560e01c8063862440e21161008c578063e985e9c511610066578063e985e9c514610246578063f242432a14610276578063f2fde38b14610292578063f5298aca146102ae576100e9565b8063862440e2146101f05780638da5cb5b1461020c578063a22cb4651461022a576100e9565b8063156e29f6116100c8578063156e29f61461017e5780632eb2c2d61461019a5780634e1273f4146101b6578063715018a6146101e6576100e9565b8062fdd58e146100ee57806301ffc9a71461011e5780630e89341c1461014e575b600080fd5b610108600480360381019061010391906121ed565b6102ca565b6040516101159190612a3b565b60405180910390f35b610138600480360381019061013391906122e4565b610393565b604051610145919061281e565b60405180910390f35b61016860048036038101906101639190612336565b610475565b6040516101759190612839565b60405180910390f35b61019860048036038101906101939190612229565b61051a565b005b6101b460048036038101906101af9190612063565b6105b6565b005b6101d060048036038101906101cb9190612278565b610657565b6040516101dd91906127c5565b60405180910390f35b6101ee610808565b005b61020a6004803603810190610205919061235f565b610890565b005b610214610934565b60405161022191906126e8565b60405180910390f35b610244600480360381019061023f91906121b1565b61095e565b005b610260600480360381019061025b9190612027565b610adf565b60405161026d919061281e565b60405180910390f35b610290600480360381019061028b9190612122565b610b73565b005b6102ac60048036038101906102a79190611ffe565b610c14565b005b6102c860048036038101906102c39190612229565b610d0c565b005b60008073ffffffffffffffffffffffffffffffffffffffff168373ffffffffffffffffffffffffffffffffffffffff16141561033b576040517f08c379a00000000000000000000000000000000000000000000000000000000081526004016103329061289b565b60405180910390fd5b60008083815260200190815260200160002060008473ffffffffffffffffffffffffffffffffffffffff1673ffffffffffffffffffffffffffffffffffffffff16815260200190815260200160002054905092915050565b60007fd9b67a26000000000000000000000000000000000000000000000000000000007bffffffffffffffffffffffffffffffffffffffffffffffffffffffff1916827bffffffffffffffffffffffffffffffffffffffffffffffffffffffff1916148061045e57507f0e89341c000000000000000000000000000000000000000000000000000000007bffffffffffffffffffffffffffffffffffffffffffffffffffffffff1916827bffffffffffffffffffffffffffffffffffffffffffffffffffffffff1916145b8061046e575061046d82610d98565b5b9050919050565b606060046000838152602001908152602001600020805461049590612caa565b80601f01602080910402602001604051908101604052809291908181526020018280546104c190612caa565b801561050e5780601f106104e35761010080835404028352916020019161050e565b820191906000526020600020905b8154815290600101906020018083116104f157829003601f168201915b50505050509050919050565b610522610e02565b73ffffffffffffffffffffffffffffffffffffffff16610540610934565b73ffffffffffffffffffffffffffffffffffffffff1614610596576040517f08c379a000000000000000000000000000000000000000000000000000000000815260040161058d9061299b565b60405180910390fd5b6105b183838360405180602001604052806000815250610e0a565b505050565b6105be610e02565b73ffffffffffffffffffffffffffffffffffffffff168573ffffffffffffffffffffffffffffffffffffffff1614806106045750610603856105fe610e02565b610adf565b5b610643576040517f08c379a000000000000000000000000000000000000000000000000000000000815260040161063a9061293b565b60405180910390fd5b6106508585858585610fa0565b5050505050565b6060815183511461069d576040517f08c379a0000000000000000000000000000000000000000000000000000000008152600401610694906129db565b60405180910390fd5b6000835167ffffffffffffffff8111156106e0577f4e487b7100000000000000000000000000000000000000000000000000000000600052604160045260246000fd5b60405190808252806020026020018201604052801561070e5781602001602082028036833780820191505090505b50905060005b84518110156107fd576107a7858281518110610759577f4e487b7100000000000000000000000000000000000000000000000000000000600052603260045260246000fd5b602002602001015185838151811061079a577f4e487b7100000000000000000000000000000000000000000000000000000000600052603260045260246000fd5b60200260200101516102ca565b8282815181106107e0577f4e487b7100000000000000000000000000000000000000000000000000000000600052603260045260246000fd5b602002602001018181525050806107f690612d0d565b9050610714565b508091505092915050565b610810610e02565b73ffffffffffffffffffffffffffffffffffffffff1661082e610934565b73ffffffffffffffffffffffffffffffffffffffff1614610884576040517f08c379a000000000000000000000000000000000000000000000000000000000815260040161087b9061299b565b60405180910390fd5b61088e6000611300565b565b610898610e02565b73ffffffffffffffffffffffffffffffffffffffff166108b6610934565b73ffffffffffffffffffffffffffffffffffffffff161461090c576040517f08c379a00000000000000000000000000000000000000000000000000000000081526004016109039061299b565b60405180910390fd5b818160046000868152602001908152602001600020919061092e929190611d14565b50505050565b6000600360009054906101000a900473ffffffffffffffffffffffffffffffffffffffff16905090565b8173ffffffffffffffffffffffffffffffffffffffff1661097d610e02565b73ffffffffffffffffffffffffffffffffffffffff1614156109d4576040517f08c379a00000000000000000000000000000000000000000000000000000000081526004016109cb906129bb565b60405180910390fd5b80600160006109e1610e02565b73ffffffffffffffffffffffffffffffffffffffff1673ffffffffffffffffffffffffffffffffffffffff16815260200190815260200160002060008473ffffffffffffffffffffffffffffffffffffffff1673ffffffffffffffffffffffffffffffffffffffff16815260200190815260200160002060006101000a81548160ff0219169083151502179055508173ffffffffffffffffffffffffffffffffffffffff16610a8e610e02565b73ffffffffffffffffffffffffffffffffffffffff167f17307eab39ab6107e8899845ad3d59bd9653f200f220920489ca2b5937696c3183604051610ad3919061281e565b60405180910390a35050565b6000600160008473ffffffffffffffffffffffffffffffffffffffff1673ffffffffffffffffffffffffffffffffffffffff16815260200190815260200160002060008373ffffffffffffffffffffffffffffffffffffffff1673ffffffffffffffffffffffffffffffffffffffff16815260200190815260200160002060009054906101000a900460ff16905092915050565b610b7b610e02565b73ffffffffffffffffffffffffffffffffffffffff168573ffffffffffffffffffffffffffffffffffffffff161480610bc15750610bc085610bbb610e02565b610adf565b5b610c00576040517f08c379a0000000000000000000000000000000000000000000000000000000008152600401610bf7906128fb565b60405180910390fd5b610c0d85858585856113c6565b5050505050565b610c1c610e02565b73ffffffffffffffffffffffffffffffffffffffff16610c3a610934565b73ffffffffffffffffffffffffffffffffffffffff1614610c90576040517f08c379a0000000000000000000000000000000000000000000000000000000008152600401610c879061299b565b60405180910390fd5b600073ffffffffffffffffffffffffffffffffffffffff168173ffffffffffffffffffffffffffffffffffffffff161415610d00576040517f08c379a0000000000000000000000000000000000000000000000000000000008152600401610cf7906128bb565b60405180910390fd5b610d0981611300565b50565b610d14610e02565b73ffffffffffffffffffffffffffffffffffffffff16610d32610934565b73ffffffffffffffffffffffffffffffffffffffff1614610d88576040517f08c379a0000000000000000000000000000000000000000000000000000000008152600401610d7f9061299b565b60405180910390fd5b610d93838383611648565b505050565b60007f01ffc9a7000000000000000000000000000000000000000000000000000000007bffffffffffffffffffffffffffffffffffffffffffffffffffffffff1916827bffffffffffffffffffffffffffffffffffffffffffffffffffffffff1916149050919050565b600033905090565b600073ffffffffffffffffffffffffffffffffffffffff168473ffffffffffffffffffffffffffffffffffffffff161415610e7a576040517f08c379a0000000000000000000000000000000000000000000000000000000008152600401610e7190612a1b565b60405180910390fd5b6000610e84610e02565b9050610ea581600087610e9688611865565b610e9f88611865565b8761192b565b8260008086815260200190815260200160002060008773ffffffffffffffffffffffffffffffffffffffff1673ffffffffffffffffffffffffffffffffffffffff1681526020019081526020016000206000828254610f049190612b9e565b925050819055508473ffffffffffffffffffffffffffffffffffffffff16600073ffffffffffffffffffffffffffffffffffffffff168273ffffffffffffffffffffffffffffffffffffffff167fc3d58168c5ae7397731d063d5bbf3d657854427343f4c083240f7aacaa2d0f628787604051610f82929190612a56565b60405180910390a4610f9981600087878787611933565b5050505050565b8151835114610fe4576040517f08c379a0000000000000000000000000000000000000000000000000000000008152600401610fdb906129fb565b60405180910390fd5b600073ffffffffffffffffffffffffffffffffffffffff168473ffffffffffffffffffffffffffffffffffffffff161415611054576040517f08c379a000000000000000000000000000000000000000000000000000000000815260040161104b9061291b565b60405180910390fd5b600061105e610e02565b905061106e81878787878761192b565b60005b845181101561126b5760008582815181106110b5577f4e487b7100000000000000000000000000000000000000000000000000000000600052603260045260246000fd5b6020026020010151905060008583815181106110fa577f4e487b7100000000000000000000000000000000000000000000000000000000600052603260045260246000fd5b60200260200101519050600080600084815260200190815260200160002060008b73ffffffffffffffffffffffffffffffffffffffff1673ffffffffffffffffffffffffffffffffffffffff1681526020019081526020016000205490508181101561119b576040517f08c379a00000000000000000000000000000000000000000000000000000000081526004016111929061297b565b60405180910390fd5b81810360008085815260200190815260200160002060008c73ffffffffffffffffffffffffffffffffffffffff1673ffffffffffffffffffffffffffffffffffffffff168152602001908152602001600020819055508160008085815260200190815260200160002060008b73ffffffffffffffffffffffffffffffffffffffff1673ffffffffffffffffffffffffffffffffffffffff16815260200190815260200160002060008282546112509190612b9e565b925050819055505050508061126490612d0d565b9050611071565b508473ffffffffffffffffffffffffffffffffffffffff168673ffffffffffffffffffffffffffffffffffffffff168273ffffffffffffffffffffffffffffffffffffffff167f4a39dc06d4c0dbc64b70af90fd698a233a518aa5d07e595d983b8c0526c8f7fb87876040516112e29291906127e7565b60405180910390a46112f8818787878787611b1a565b505050505050565b6000600360009054906101000a900473ffffffffffffffffffffffffffffffffffffffff16905081600360006101000a81548173ffffffffffffffffffffffffffffffffffffffff021916908373ffffffffffffffffffffffffffffffffffffffff1602179055508173ffffffffffffffffffffffffffffffffffffffff168173ffffffffffffffffffffffffffffffffffffffff167f8be0079c531659141344cd1fd0a4f28419497f9722a3daafe3b4186f6b6457e060405160405180910390a35050565b600073ffffffffffffffffffffffffffffffffffffffff168473ffffffffffffffffffffffffffffffffffffffff161415611436576040517f08c379a000000000000000000000000000000000000000000000000000000000815260040161142d9061291b565b60405180910390fd5b6000611440610e02565b905061146081878761145188611865565b61145a88611865565b8761192b565b600080600086815260200190815260200160002060008873ffffffffffffffffffffffffffffffffffffffff1673ffffffffffffffffffffffffffffffffffffffff168152602001908152602001600020549050838110156114f7576040517f08c379a00000000000000000000000000000000000000000000000000000000081526004016114ee9061297b565b60405180910390fd5b83810360008087815260200190815260200160002060008973ffffffffffffffffffffffffffffffffffffffff1673ffffffffffffffffffffffffffffffffffffffff168152602001908152602001600020819055508360008087815260200190815260200160002060008873ffffffffffffffffffffffffffffffffffffffff1673ffffffffffffffffffffffffffffffffffffffff16815260200190815260200160002060008282546115ac9190612b9e565b925050819055508573ffffffffffffffffffffffffffffffffffffffff168773ffffffffffffffffffffffffffffffffffffffff168373ffffffffffffffffffffffffffffffffffffffff167fc3d58168c5ae7397731d063d5bbf3d657854427343f4c083240f7aacaa2d0f628888604051611629929190612a56565b60405180910390a461163f828888888888611933565b50505050505050565b600073ffffffffffffffffffffffffffffffffffffffff168373ffffffffffffffffffffffffffffffffffffffff1614156116b8576040517f08c379a00000000000000000000000000000000000000000000000000000000081526004016116af9061295b565b60405180910390fd5b60006116c2610e02565b90506116f2818560006116d487611865565b6116dd87611865565b6040518060200160405280600081525061192b565b600080600085815260200190815260200160002060008673ffffffffffffffffffffffffffffffffffffffff1673ffffffffffffffffffffffffffffffffffffffff16815260200190815260200160002054905082811015611789576040517f08c379a0000000000000000000000000000000000000000000000000000000008152600401611780906128db565b60405180910390fd5b82810360008086815260200190815260200160002060008773ffffffffffffffffffffffffffffffffffffffff1673ffffffffffffffffffffffffffffffffffffffff16815260200190815260200160002081905550600073ffffffffffffffffffffffffffffffffffffffff168573ffffffffffffffffffffffffffffffffffffffff168373ffffffffffffffffffffffffffffffffffffffff167fc3d58168c5ae7397731d063d5bbf3d657854427343f4c083240f7aacaa2d0f628787604051611856929190612a56565b60405180910390a45050505050565b60606000600167ffffffffffffffff8111156118aa577f4e487b7100000000000000000000000000000000000000000000000000000000600052604160045260246000fd5b6040519080825280602002602001820160405280156118d85781602001602082028036833780820191505090505b5090508281600081518110611916577f4e487b7100000000000000000000000000000000000000000000000000000000600052603260045260246000fd5b60200260200101818152505080915050919050565b505050505050565b6119528473ffffffffffffffffffffffffffffffffffffffff16611d01565b15611b12578373ffffffffffffffffffffffffffffffffffffffff1663f23a6e6187878686866040518663ffffffff1660e01b815260040161199895949392919061276b565b602060405180830381600087803b1580156119b257600080fd5b505af19250505080156119e357506040513d601f19601f820116820180604052508101906119e0919061230d565b60015b611a89576119ef612de3565b806308c379a01415611a4c5750611a0461329e565b80611a0f5750611a4e565b806040517f08c379a0000000000000000000000000000000000000000000000000000000008152600401611a439190612839565b60405180910390fd5b505b6040517f08c379a0000000000000000000000000000000000000000000000000000000008152600401611a809061285b565b60405180910390fd5b63f23a6e6160e01b7bffffffffffffffffffffffffffffffffffffffffffffffffffffffff1916817bffffffffffffffffffffffffffffffffffffffffffffffffffffffff191614611b10576040517f08c379a0000000000000000000000000000000000000000000000000000000008152600401611b079061287b565b60405180910390fd5b505b505050505050565b611b398473ffffffffffffffffffffffffffffffffffffffff16611d01565b15611cf9578373ffffffffffffffffffffffffffffffffffffffff1663bc197c8187878686866040518663ffffffff1660e01b8152600401611b7f959493929190612703565b602060405180830381600087803b158015611b9957600080fd5b505af1925050508015611bca57506040513d601f19601f82011682018060405250810190611bc7919061230d565b60015b611c7057611bd6612de3565b806308c379a01415611c335750611beb61329e565b80611bf65750611c35565b806040517f08c379a0000000000000000000000000000000000000000000000000000000008152600401611c2a9190612839565b60405180910390fd5b505b6040517f08c379a0000000000000000000000000000000000000000000000000000000008152600401611c679061285b565b60405180910390fd5b63bc197c8160e01b7bffffffffffffffffffffffffffffffffffffffffffffffffffffffff1916817bffffffffffffffffffffffffffffffffffffffffffffffffffffffff191614611cf7576040517f08c379a0000000000000000000000000000000000000000000000000000000008152600401611cee9061287b565b60405180910390fd5b505b505050505050565b600080823b905060008111915050919050565b828054611d2090612caa565b90600052602060002090601f016020900481019282611d425760008555611d89565b82601f10611d5b57803560ff1916838001178555611d89565b82800160010185558215611d89579182015b82811115611d88578235825591602001919060010190611d6d565b5b509050611d969190611d9a565b5090565b5b80821115611db3576000816000905550600101611d9b565b5090565b6000611dca611dc584612aa4565b612a7f565b90508083825260208201905082856020860282011115611de957600080fd5b60005b85811015611e195781611dff8882611ecd565b845260208401935060208301925050600181019050611dec565b5050509392505050565b6000611e36611e3184612ad0565b612a7f565b90508083825260208201905082856020860282011115611e5557600080fd5b60005b85811015611e855781611e6b8882611fe9565b845260208401935060208301925050600181019050611e58565b5050509392505050565b6000611ea2611e9d84612afc565b612a7f565b905082815260208101848484011115611eba57600080fd5b611ec5848285612c68565b509392505050565b600081359050611edc81613334565b92915050565b600082601f830112611ef357600080fd5b8135611f03848260208601611db7565b91505092915050565b600082601f830112611f1d57600080fd5b8135611f2d848260208601611e23565b91505092915050565b600081359050611f458161334b565b92915050565b600081359050611f5a81613362565b92915050565b600081519050611f6f81613362565b92915050565b600082601f830112611f8657600080fd5b8135611f96848260208601611e8f565b91505092915050565b60008083601f840112611fb157600080fd5b8235905067ffffffffffffffff811115611fca57600080fd5b602083019150836001820283011115611fe257600080fd5b9250929050565b600081359050611ff881613379565b92915050565b60006020828403121561201057600080fd5b600061201e84828501611ecd565b91505092915050565b6000806040838503121561203a57600080fd5b600061204885828601611ecd565b925050602061205985828601611ecd565b9150509250929050565b600080600080600060a0868803121561207b57600080fd5b600061208988828901611ecd565b955050602061209a88828901611ecd565b945050604086013567ffffffffffffffff8111156120b757600080fd5b6120c388828901611f0c565b935050606086013567ffffffffffffffff8111156120e057600080fd5b6120ec88828901611f0c565b925050608086013567ffffffffffffffff81111561210957600080fd5b61211588828901611f75565b9150509295509295909350565b600080600080600060a0868803121561213a57600080fd5b600061214888828901611ecd565b955050602061215988828901611ecd565b945050604061216a88828901611fe9565b935050606061217b88828901611fe9565b925050608086013567ffffffffffffffff81111561219857600080fd5b6121a488828901611f75565b9150509295509295909350565b600080604083850312156121c457600080fd5b60006121d285828601611ecd565b92505060206121e385828601611f36565b9150509250929050565b6000806040838503121561220057600080fd5b600061220e85828601611ecd565b925050602061221f85828601611fe9565b9150509250929050565b60008060006060848603121561223e57600080fd5b600061224c86828701611ecd565b935050602061225d86828701611fe9565b925050604061226e86828701611fe9565b9150509250925092565b6000806040838503121561228b57600080fd5b600083013567ffffffffffffffff8111156122a557600080fd5b6122b185828601611ee2565b925050602083013567ffffffffffffffff8111156122ce57600080fd5b6122da85828601611f0c565b9150509250929050565b6000602082840312156122f657600080fd5b600061230484828501611f4b565b91505092915050565b60006020828403121561231f57600080fd5b600061232d84828501611f60565b91505092915050565b60006020828403121561234857600080fd5b600061235684828501611fe9565b91505092915050565b60008060006040848603121561237457600080fd5b600061238286828701611fe9565b935050602084013567ffffffffffffffff81111561239f57600080fd5b6123ab86828701611f9f565b92509250509250925092565b60006123c383836126ca565b60208301905092915050565b6123d881612bf4565b82525050565b60006123e982612b3d565b6123f38185612b6b565b93506123fe83612b2d565b8060005b8381101561242f57815161241688826123b7565b975061242183612b5e565b925050600181019050612402565b5085935050505092915050565b61244581612c06565b82525050565b600061245682612b48565b6124608185612b7c565b9350612470818560208601612c77565b61247981612e05565b840191505092915050565b600061248f82612b53565b6124998185612b8d565b93506124a9818560208601612c77565b6124b281612e05565b840191505092915050565b60006124ca603483612b8d565b91506124d582612e23565b604082019050919050565b60006124ed602883612b8d565b91506124f882612e72565b604082019050919050565b6000612510602b83612b8d565b915061251b82612ec1565b604082019050919050565b6000612533602683612b8d565b915061253e82612f10565b604082019050919050565b6000612556602483612b8d565b915061256182612f5f565b604082019050919050565b6000612579602983612b8d565b915061258482612fae565b604082019050919050565b600061259c602583612b8d565b91506125a782612ffd565b604082019050919050565b60006125bf603283612b8d565b91506125ca8261304c565b604082019050919050565b60006125e2602383612b8d565b91506125ed8261309b565b604082019050919050565b6000612605602a83612b8d565b9150612610826130ea565b604082019050919050565b6000612628602083612b8d565b915061263382613139565b602082019050919050565b600061264b602983612b8d565b915061265682613162565b604082019050919050565b600061266e602983612b8d565b9150612679826131b1565b604082019050919050565b6000612691602883612b8d565b915061269c82613200565b604082019050919050565b60006126b4602183612b8d565b91506126bf8261324f565b604082019050919050565b6126d381612c5e565b82525050565b6126e281612c5e565b82525050565b60006020820190506126fd60008301846123cf565b92915050565b600060a08201905061271860008301886123cf565b61272560208301876123cf565b818103604083015261273781866123de565b9050818103606083015261274b81856123de565b9050818103608083015261275f818461244b565b90509695505050505050565b600060a08201905061278060008301886123cf565b61278d60208301876123cf565b61279a60408301866126d9565b6127a760608301856126d9565b81810360808301526127b9818461244b565b90509695505050505050565b600060208201905081810360008301526127df81846123de565b905092915050565b6000604082019050818103600083015261280181856123de565b9050818103602083015261281581846123de565b90509392505050565b6000602082019050612833600083018461243c565b92915050565b600060208201905081810360008301526128538184612484565b905092915050565b60006020820190508181036000830152612874816124bd565b9050919050565b60006020820190508181036000830152612894816124e0565b9050919050565b600060208201905081810360008301526128b481612503565b9050919050565b600060208201905081810360008301526128d481612526565b9050919050565b600060208201905081810360008301526128f481612549565b9050919050565b600060208201905081810360008301526129148161256c565b9050919050565b600060208201905081810360008301526129348161258f565b9050919050565b60006020820190508181036000830152612954816125b2565b9050919050565b60006020820190508181036000830152612974816125d5565b9050919050565b60006020820190508181036000830152612994816125f8565b9050919050565b600060208201905081810360008301526129b48161261b565b9050919050565b600060208201905081810360008301526129d48161263e565b9050919050565b600060208201905081810360008301526129f481612661565b9050919050565b60006020820190508181036000830152612a1481612684565b9050919050565b60006020820190508181036000830152612a34816126a7565b9050919050565b6000602082019050612a5060008301846126d9565b92915050565b6000604082019050612a6b60008301856126d9565b612a7860208301846126d9565b9392505050565b6000612a89612a9a565b9050612a958282612cdc565b919050565b6000604051905090565b600067ffffffffffffffff821115612abf57612abe612db4565b5b602082029050602081019050919050565b600067ffffffffffffffff821115612aeb57612aea612db4565b5b602082029050602081019050919050565b600067ffffffffffffffff821115612b1757612b16612db4565b5b612b2082612e05565b9050602081019050919050565b6000819050602082019050919050565b600081519050919050565b600081519050919050565b600081519050919050565b6000602082019050919050565b600082825260208201905092915050565b600082825260208201905092915050565b600082825260208201905092915050565b6000612ba982612c5e565b9150612bb483612c5e565b9250827fffffffffffffffffffffffffffffffffffffffffffffffffffffffffffffffff03821115612be957612be8612d56565b5b828201905092915050565b6000612bff82612c3e565b9050919050565b60008115159050919050565b60007fffffffff0000000000000000000000000000000000000000000000000000000082169050919050565b600073ffffffffffffffffffffffffffffffffffffffff82169050919050565b6000819050919050565b82818337600083830152505050565b60005b83811015612c95578082015181840152602081019050612c7a565b83811115612ca4576000848401525b50505050565b60006002820490506001821680612cc257607f821691505b60208210811415612cd657612cd5612d85565b5b50919050565b612ce582612e05565b810181811067ffffffffffffffff82111715612d0457612d03612db4565b5b80604052505050565b6000612d1882612c5e565b91507fffffffffffffffffffffffffffffffffffffffffffffffffffffffffffffffff821415612d4b57612d4a612d56565b5b600182019050919050565b7f4e487b7100000000000000000000000000000000000000000000000000000000600052601160045260246000fd5b7f4e487b7100000000000000000000000000000000000000000000000000000000600052602260045260246000fd5b7f4e487b7100000000000000000000000000000000000000000000000000000000600052604160045260246000fd5b600060033d1115612e025760046000803e612dff600051612e16565b90505b90565b6000601f19601f8301169050919050565b60008160e01c9050919050565b7f455243313135353a207472616e7366657220746f206e6f6e204552433131353560008201527f526563656976657220696d706c656d656e746572000000000000000000000000602082015250565b7f455243313135353a204552433131353552656365697665722072656a6563746560008201527f6420746f6b656e73000000000000000000000000000000000000000000000000602082015250565b7f455243313135353a2062616c616e636520717565727920666f7220746865207a60008201527f65726f2061646472657373000000000000000000000000000000000000000000602082015250565b7f4f776e61626c653a206e6577206f776e657220697320746865207a65726f206160008201527f6464726573730000000000000000000000000000000000000000000000000000602082015250565b7f455243313135353a206275726e20616d6f756e7420657863656564732062616c60008201527f616e636500000000000000000000000000000000000000000000000000000000602082015250565b7f455243313135353a2063616c6c6572206973206e6f74206f776e6572206e6f7260008201527f20617070726f7665640000000000000000000000000000000000000000000000602082015250565b7f455243313135353a207472616e7366657220746f20746865207a65726f20616460008201527f6472657373000000000000000000000000000000000000000000000000000000602082015250565b7f455243313135353a207472616e736665722063616c6c6572206973206e6f742060008201527f6f776e6572206e6f7220617070726f7665640000000000000000000000000000602082015250565b7f455243313135353a206275726e2066726f6d20746865207a65726f206164647260008201527f6573730000000000000000000000000000000000000000000000000000000000602082015250565b7f455243313135353a20696e73756666696369656e742062616c616e636520666f60008201527f72207472616e7366657200000000000000000000000000000000000000000000602082015250565b7f4f776e61626c653a2063616c6c6572206973206e6f7420746865206f776e6572600082015250565b7f455243313135353a2073657474696e6720617070726f76616c2073746174757360008201527f20666f722073656c660000000000000000000000000000000000000000000000602082015250565b7f455243313135353a206163636f756e747320616e6420696473206c656e67746860008201527f206d69736d617463680000000000000000000000000000000000000000000000602082015250565b7f455243313135353a2069647320616e6420616d6f756e7473206c656e6774682060008201527f6d69736d61746368000000000000000000000000000000000000000000000000602082015250565b7f455243313135353a206d696e7420746f20746865207a65726f2061646472657360008201527f7300000000000000000000000000000000000000000000000000000000000000602082015250565b600060443d10156132ae57613331565b6132b6612a9a565b60043d036004823e80513d602482011167ffffffffffffffff821117156132de575050613331565b808201805167ffffffffffffffff8111156132fc5750505050613331565b80602083010160043d038501811115613319575050505050613331565b61332882602001850186612cdc565b82955050505050505b90565b61333d81612bf4565b811461334857600080fd5b50565b61335481612c06565b811461335f57600080fd5b50565b61336b81612c12565b811461337657600080fd5b50565b61338281612c5e565b811461338d57600080fd5b5056fea26469706673582212207c954b474ba2938a61031705a0987bcb898a0dffe9cb3f5a8744e3e16585386e64736f6c63430008040033",
  "linkReferences": {},
  "deployedLinkReferences": {}
}